{
	"SmartParking.sol": {
		"SmartParking": {
			"abi": [
				{
					"inputs": [],
					"stateMutability": "nonpayable",
					"type": "constructor"
				},
				{
					"anonymous": false,
					"inputs": [
						{
							"indexed": false,
							"internalType": "uint256",
							"name": "id",
							"type": "uint256"
						},
						{
							"indexed": false,
							"internalType": "uint256",
							"name": "hourlyRate",
							"type": "uint256"
						}
					],
					"name": "ParkingSpotAdded",
					"type": "event"
				},
				{
					"anonymous": false,
					"inputs": [
						{
							"indexed": false,
							"internalType": "uint256",
							"name": "id",
							"type": "uint256"
						},
						{
							"indexed": false,
							"internalType": "uint256",
							"name": "hourlyRate",
							"type": "uint256"
						}
					],
					"name": "ParkingSpotUpdated",
					"type": "event"
				},
				{
					"anonymous": false,
					"inputs": [
						{
							"indexed": false,
							"internalType": "uint256",
							"name": "reservationId",
							"type": "uint256"
						}
					],
					"name": "ReservationCanceled",
					"type": "event"
				},
				{
					"anonymous": false,
					"inputs": [
						{
							"indexed": false,
							"internalType": "uint256",
							"name": "reservationId",
							"type": "uint256"
						},
						{
							"indexed": false,
							"internalType": "uint256",
							"name": "parkingSpotId",
							"type": "uint256"
						},
						{
							"indexed": false,
							"internalType": "address",
							"name": "user",
							"type": "address"
						},
						{
							"indexed": false,
							"internalType": "uint256",
							"name": "startTime",
							"type": "uint256"
						},
						{
							"indexed": false,
							"internalType": "uint256",
							"name": "endTime",
							"type": "uint256"
						}
					],
					"name": "ReservationMade",
					"type": "event"
				},
				{
					"inputs": [
						{
							"internalType": "uint256",
							"name": "hourlyRate",
							"type": "uint256"
						}
					],
					"name": "addParkingSpot",
					"outputs": [
						{
							"internalType": "uint256",
							"name": "",
							"type": "uint256"
						}
					],
					"stateMutability": "nonpayable",
					"type": "function"
				},
				{
					"inputs": [],
					"name": "freeUpExpiredSpots",
					"outputs": [],
					"stateMutability": "nonpayable",
					"type": "function"
				},
				{
					"inputs": [],
					"name": "owner",
					"outputs": [
						{
							"internalType": "address",
							"name": "",
							"type": "address"
						}
					],
					"stateMutability": "view",
					"type": "function"
				},
				{
					"inputs": [
						{
							"internalType": "uint256",
							"name": "",
							"type": "uint256"
						}
					],
					"name": "parkingSpots",
					"outputs": [
						{
							"internalType": "uint256",
							"name": "id",
							"type": "uint256"
						},
						{
							"internalType": "bool",
							"name": "available",
							"type": "bool"
						},
						{
							"internalType": "uint256",
							"name": "hourlyRate",
							"type": "uint256"
						}
					],
					"stateMutability": "view",
					"type": "function"
				},
				{
					"inputs": [],
					"name": "parkingSpotsCount",
					"outputs": [
						{
							"internalType": "uint256",
							"name": "",
							"type": "uint256"
						}
					],
					"stateMutability": "view",
					"type": "function"
				},
				{
					"inputs": [
						{
							"internalType": "uint256",
							"name": "",
							"type": "uint256"
						}
					],
					"name": "reservations",
					"outputs": [
						{
							"internalType": "uint256",
							"name": "parkingSpotId",
							"type": "uint256"
						},
						{
							"internalType": "address",
							"name": "user",
							"type": "address"
						},
						{
							"internalType": "uint256",
							"name": "startTime",
							"type": "uint256"
						},
						{
							"internalType": "uint256",
							"name": "endTime",
							"type": "uint256"
						}
					],
					"stateMutability": "view",
					"type": "function"
				},
				{
					"inputs": [],
					"name": "reservationsCount",
					"outputs": [
						{
							"internalType": "uint256",
							"name": "",
							"type": "uint256"
						}
					],
					"stateMutability": "view",
					"type": "function"
				},
				{
					"inputs": [
						{
							"internalType": "uint256",
							"name": "parkingSpotId",
							"type": "uint256"
						},
						{
							"internalType": "uint256",
							"name": "numberOfHours",
							"type": "uint256"
						}
					],
					"name": "reserveSpot",
					"outputs": [],
					"stateMutability": "payable",
					"type": "function"
				},
				{
					"inputs": [
						{
							"internalType": "uint256",
							"name": "id",
							"type": "uint256"
						},
						{
							"internalType": "uint256",
							"name": "hourlyRate",
							"type": "uint256"
						}
					],
					"name": "updateParkingSpot",
					"outputs": [],
					"stateMutability": "nonpayable",
					"type": "function"
				}
			],
			"devdoc": {
				"kind": "dev",
				"methods": {},
				"version": 1
			},
			"evm": {
				"assembly": "    /* \"SmartParking.sol\":60:3035  contract SmartParking {... */\n  mstore(0x40, 0x80)\n    /* \"SmartParking.sol\":472:473  0 */\n  0x00\n    /* \"SmartParking.sol\":440:473  uint public parkingSpotsCount = 0 */\n  0x02\n  sstore\n    /* \"SmartParking.sol\":512:513  0 */\n  0x00\n    /* \"SmartParking.sol\":480:513  uint public reservationsCount = 0 */\n  0x03\n  sstore\n    /* \"SmartParking.sol\":549:600  constructor() {... */\n  callvalue\n  dup1\n  iszero\n  tag_1\n  jumpi\n  0x00\n  dup1\n  revert\ntag_1:\n  pop\n    /* \"SmartParking.sol\":582:592  msg.sender */\n  caller\n    /* \"SmartParking.sol\":574:579  owner */\n  0x04\n  0x00\n    /* \"SmartParking.sol\":574:592  owner = msg.sender */\n  0x0100\n  exp\n  dup2\n  sload\n  dup2\n  0xffffffffffffffffffffffffffffffffffffffff\n  mul\n  not\n  and\n  swap1\n  dup4\n  0xffffffffffffffffffffffffffffffffffffffff\n  and\n  mul\n  or\n  swap1\n  sstore\n  pop\n    /* \"SmartParking.sol\":60:3035  contract SmartParking {... */\n  dataSize(sub_0)\n  dup1\n  dataOffset(sub_0)\n  0x00\n  codecopy\n  0x00\n  return\nstop\n\nsub_0: assembly {\n        /* \"SmartParking.sol\":60:3035  contract SmartParking {... */\n      mstore(0x40, 0x80)\n      jumpi(tag_1, lt(calldatasize, 0x04))\n      shr(0xe0, calldataload(0x00))\n      dup1\n      0x8da5cb5b\n      gt\n      tag_11\n      jumpi\n      dup1\n      0x8da5cb5b\n      eq\n      tag_6\n      jumpi\n      dup1\n      0xa5a48e84\n      eq\n      tag_7\n      jumpi\n      dup1\n      0xc0d8774b\n      eq\n      tag_8\n      jumpi\n      dup1\n      0xc4d1b347\n      eq\n      tag_9\n      jumpi\n      dup1\n      0xf5defcd3\n      eq\n      tag_10\n      jumpi\n      jump(tag_1)\n    tag_11:\n      dup1\n      0x067cf832\n      eq\n      tag_2\n      jumpi\n      dup1\n      0x182d8de5\n      eq\n      tag_3\n      jumpi\n      dup1\n      0x658db3e5\n      eq\n      tag_4\n      jumpi\n      dup1\n      0x868def04\n      eq\n      tag_5\n      jumpi\n    tag_1:\n      0x00\n      dup1\n      revert\n        /* \"SmartParking.sol\":385:433  mapping(uint => Reservation) public reservations */\n    tag_2:\n      callvalue\n      dup1\n      iszero\n      tag_12\n      jumpi\n      0x00\n      dup1\n      revert\n    tag_12:\n      pop\n      tag_13\n      0x04\n      dup1\n      calldatasize\n      sub\n      dup2\n      add\n      swap1\n      tag_14\n      swap2\n      swap1\n      tag_15\n      jump\t// in\n    tag_14:\n      tag_16\n      jump\t// in\n    tag_13:\n      mload(0x40)\n      tag_17\n      swap5\n      swap4\n      swap3\n      swap2\n      swap1\n      tag_18\n      jump\t// in\n    tag_17:\n      mload(0x40)\n      dup1\n      swap2\n      sub\n      swap1\n      return\n        /* \"SmartParking.sol\":886:1263  function addParkingSpot(uint hourlyRate) public returns (uint) {... */\n    tag_3:\n      callvalue\n      dup1\n      iszero\n      tag_19\n      jumpi\n      0x00\n      dup1\n      revert\n    tag_19:\n      pop\n      tag_20\n      0x04\n      dup1\n      calldatasize\n      sub\n      dup2\n      add\n      swap1\n      tag_21\n      swap2\n      swap1\n      tag_15\n      jump\t// in\n    tag_21:\n      tag_22\n      jump\t// in\n    tag_20:\n      mload(0x40)\n      tag_23\n      swap2\n      swap1\n      tag_24\n      jump\t// in\n    tag_23:\n      mload(0x40)\n      dup1\n      swap2\n      sub\n      swap1\n      return\n        /* \"SmartParking.sol\":440:473  uint public parkingSpotsCount = 0 */\n    tag_4:\n      callvalue\n      dup1\n      iszero\n      tag_25\n      jumpi\n      0x00\n      dup1\n      revert\n    tag_25:\n      pop\n      tag_26\n      tag_27\n      jump\t// in\n    tag_26:\n      mload(0x40)\n      tag_28\n      swap2\n      swap1\n      tag_24\n      jump\t// in\n    tag_28:\n      mload(0x40)\n      dup1\n      swap2\n      sub\n      swap1\n      return\n        /* \"SmartParking.sol\":1598:2455  function reserveSpot(uint parkingSpotId, uint numberOfHours) public payable {... */\n    tag_5:\n      tag_29\n      0x04\n      dup1\n      calldatasize\n      sub\n      dup2\n      add\n      swap1\n      tag_30\n      swap2\n      swap1\n      tag_31\n      jump\t// in\n    tag_30:\n      tag_32\n      jump\t// in\n    tag_29:\n      stop\n        /* \"SmartParking.sol\":520:540  address public owner */\n    tag_6:\n      callvalue\n      dup1\n      iszero\n      tag_33\n      jumpi\n      0x00\n      dup1\n      revert\n    tag_33:\n      pop\n      tag_34\n      tag_35\n      jump\t// in\n    tag_34:\n      mload(0x40)\n      tag_36\n      swap2\n      swap1\n      tag_37\n      jump\t// in\n    tag_36:\n      mload(0x40)\n      dup1\n      swap2\n      sub\n      swap1\n      return\n        /* \"SmartParking.sol\":2463:3032  function freeUpExpiredSpots() public {... */\n    tag_7:\n      callvalue\n      dup1\n      iszero\n      tag_38\n      jumpi\n      0x00\n      dup1\n      revert\n    tag_38:\n      pop\n      tag_39\n      tag_40\n      jump\t// in\n    tag_39:\n      stop\n        /* \"SmartParking.sol\":1271:1590  function updateParkingSpot(uint id, uint hourlyRate) public {... */\n    tag_8:\n      callvalue\n      dup1\n      iszero\n      tag_41\n      jumpi\n      0x00\n      dup1\n      revert\n    tag_41:\n      pop\n      tag_42\n      0x04\n      dup1\n      calldatasize\n      sub\n      dup2\n      add\n      swap1\n      tag_43\n      swap2\n      swap1\n      tag_31\n      jump\t// in\n    tag_43:\n      tag_44\n      jump\t// in\n    tag_42:\n      stop\n        /* \"SmartParking.sol\":480:513  uint public reservationsCount = 0 */\n    tag_9:\n      callvalue\n      dup1\n      iszero\n      tag_45\n      jumpi\n      0x00\n      dup1\n      revert\n    tag_45:\n      pop\n      tag_46\n      tag_47\n      jump\t// in\n    tag_46:\n      mload(0x40)\n      tag_48\n      swap2\n      swap1\n      tag_24\n      jump\t// in\n    tag_48:\n      mload(0x40)\n      dup1\n      swap2\n      sub\n      swap1\n      return\n        /* \"SmartParking.sol\":330:378  mapping(uint => ParkingSpot) public parkingSpots */\n    tag_10:\n      callvalue\n      dup1\n      iszero\n      tag_49\n      jumpi\n      0x00\n      dup1\n      revert\n    tag_49:\n      pop\n      tag_50\n      0x04\n      dup1\n      calldatasize\n      sub\n      dup2\n      add\n      swap1\n      tag_51\n      swap2\n      swap1\n      tag_15\n      jump\t// in\n    tag_51:\n      tag_52\n      jump\t// in\n    tag_50:\n      mload(0x40)\n      tag_53\n      swap4\n      swap3\n      swap2\n      swap1\n      tag_54\n      jump\t// in\n    tag_53:\n      mload(0x40)\n      dup1\n      swap2\n      sub\n      swap1\n      return\n        /* \"SmartParking.sol\":385:433  mapping(uint => Reservation) public reservations */\n    tag_16:\n      mstore(0x20, 0x01)\n      dup1\n      0x00\n      mstore\n      keccak256(0x00, 0x40)\n      0x00\n      swap2\n      pop\n      swap1\n      pop\n      dup1\n      0x00\n      add\n      sload\n      swap1\n      dup1\n      0x01\n      add\n      0x00\n      swap1\n      sload\n      swap1\n      0x0100\n      exp\n      swap1\n      div\n      0xffffffffffffffffffffffffffffffffffffffff\n      and\n      swap1\n      dup1\n      0x02\n      add\n      sload\n      swap1\n      dup1\n      0x03\n      add\n      sload\n      swap1\n      pop\n      dup5\n      jump\t// out\n        /* \"SmartParking.sol\":886:1263  function addParkingSpot(uint hourlyRate) public returns (uint) {... */\n    tag_22:\n        /* \"SmartParking.sol\":943:947  uint */\n      0x00\n        /* \"SmartParking.sol\":982:987  owner */\n      0x04\n      0x00\n      swap1\n      sload\n      swap1\n      0x0100\n      exp\n      swap1\n      div\n      0xffffffffffffffffffffffffffffffffffffffff\n      and\n        /* \"SmartParking.sol\":968:987  msg.sender == owner */\n      0xffffffffffffffffffffffffffffffffffffffff\n      and\n        /* \"SmartParking.sol\":968:978  msg.sender */\n      caller\n        /* \"SmartParking.sol\":968:987  msg.sender == owner */\n      0xffffffffffffffffffffffffffffffffffffffff\n      and\n      eq\n        /* \"SmartParking.sol\":960:1030  require(msg.sender == owner, \"Only an owner can access this function\") */\n      tag_56\n      jumpi\n      mload(0x40)\n      0x08c379a000000000000000000000000000000000000000000000000000000000\n      dup2\n      mstore\n      0x04\n      add\n      tag_57\n      swap1\n      tag_58\n      jump\t// in\n    tag_57:\n      mload(0x40)\n      dup1\n      swap2\n      sub\n      swap1\n      revert\n    tag_56:\n        /* \"SmartParking.sol\":1075:1123  ParkingSpot(parkingSpotsCount, true, hourlyRate) */\n      mload(0x40)\n      dup1\n      0x60\n      add\n      0x40\n      mstore\n      dup1\n        /* \"SmartParking.sol\":1087:1104  parkingSpotsCount */\n      sload(0x02)\n        /* \"SmartParking.sol\":1075:1123  ParkingSpot(parkingSpotsCount, true, hourlyRate) */\n      dup2\n      mstore\n      0x20\n      add\n        /* \"SmartParking.sol\":1106:1110  true */\n      0x01\n        /* \"SmartParking.sol\":1075:1123  ParkingSpot(parkingSpotsCount, true, hourlyRate) */\n      iszero\n      iszero\n      dup2\n      mstore\n      0x20\n      add\n        /* \"SmartParking.sol\":1112:1122  hourlyRate */\n      dup4\n        /* \"SmartParking.sol\":1075:1123  ParkingSpot(parkingSpotsCount, true, hourlyRate) */\n      dup2\n      mstore\n      pop\n        /* \"SmartParking.sol\":1041:1053  parkingSpots */\n      0x00\n        /* \"SmartParking.sol\":1041:1072  parkingSpots[parkingSpotsCount] */\n      dup1\n        /* \"SmartParking.sol\":1054:1071  parkingSpotsCount */\n      sload(0x02)\n        /* \"SmartParking.sol\":1041:1072  parkingSpots[parkingSpotsCount] */\n      dup2\n      mstore\n      0x20\n      add\n      swap1\n      dup2\n      mstore\n      0x20\n      add\n      0x00\n      keccak256\n        /* \"SmartParking.sol\":1041:1123  parkingSpots[parkingSpotsCount] = ParkingSpot(parkingSpotsCount, true, hourlyRate) */\n      0x00\n      dup3\n      add\n      mload\n      dup2\n      0x00\n      add\n      sstore\n      0x20\n      dup3\n      add\n      mload\n      dup2\n      0x01\n      add\n      exp(0x0100, 0x00)\n      dup2\n      sload\n      dup2\n      0xff\n      mul\n      not\n      and\n      swap1\n      dup4\n      iszero\n      iszero\n      mul\n      or\n      swap1\n      sstore\n      pop\n      0x40\n      dup3\n      add\n      mload\n      dup2\n      0x02\n      add\n      sstore\n      swap1\n      pop\n      pop\n        /* \"SmartParking.sol\":1139:1186  ParkingSpotAdded(parkingSpotsCount, hourlyRate) */\n      0xf75d109f18e4f7bd4ba898340a13e16a7b3ad2860a84e35165f3564fbd642a8b\n        /* \"SmartParking.sol\":1156:1173  parkingSpotsCount */\n      sload(0x02)\n        /* \"SmartParking.sol\":1175:1185  hourlyRate */\n      dup4\n        /* \"SmartParking.sol\":1139:1186  ParkingSpotAdded(parkingSpotsCount, hourlyRate) */\n      mload(0x40)\n      tag_59\n      swap3\n      swap2\n      swap1\n      tag_60\n      jump\t// in\n    tag_59:\n      mload(0x40)\n      dup1\n      swap2\n      sub\n      swap1\n      log1\n        /* \"SmartParking.sol\":1197:1214  parkingSpotsCount */\n      0x02\n      0x00\n        /* \"SmartParking.sol\":1197:1216  parkingSpotsCount++ */\n      dup2\n      sload\n      dup1\n      swap3\n      swap2\n      swap1\n      tag_61\n      swap1\n      tag_62\n      jump\t// in\n    tag_61:\n      swap2\n      swap1\n      pop\n      sstore\n      pop\n        /* \"SmartParking.sol\":1254:1255  1 */\n      0x01\n        /* \"SmartParking.sol\":1234:1251  parkingSpotsCount */\n      sload(0x02)\n        /* \"SmartParking.sol\":1234:1255  parkingSpotsCount - 1 */\n      tag_63\n      swap2\n      swap1\n      tag_64\n      jump\t// in\n    tag_63:\n        /* \"SmartParking.sol\":1227:1255  return parkingSpotsCount - 1 */\n      swap1\n      pop\n        /* \"SmartParking.sol\":886:1263  function addParkingSpot(uint hourlyRate) public returns (uint) {... */\n      swap2\n      swap1\n      pop\n      jump\t// out\n        /* \"SmartParking.sol\":440:473  uint public parkingSpotsCount = 0 */\n    tag_27:\n      sload(0x02)\n      dup2\n      jump\t// out\n        /* \"SmartParking.sol\":1598:2455  function reserveSpot(uint parkingSpotId, uint numberOfHours) public payable {... */\n    tag_32:\n        /* \"SmartParking.sol\":1709:1726  parkingSpotsCount */\n      sload(0x02)\n        /* \"SmartParking.sol\":1693:1706  parkingSpotId */\n      dup3\n        /* \"SmartParking.sol\":1693:1726  parkingSpotId < parkingSpotsCount */\n      lt\n        /* \"SmartParking.sol\":1685:1754  require(parkingSpotId < parkingSpotsCount, \"Invalid parking spot ID\") */\n      tag_66\n      jumpi\n      mload(0x40)\n      0x08c379a000000000000000000000000000000000000000000000000000000000\n      dup2\n      mstore\n      0x04\n      add\n      tag_67\n      swap1\n      tag_68\n      jump\t// in\n    tag_67:\n      mload(0x40)\n      dup1\n      swap2\n      sub\n      swap1\n      revert\n    tag_66:\n        /* \"SmartParking.sol\":1773:1785  parkingSpots */\n      0x00\n        /* \"SmartParking.sol\":1773:1800  parkingSpots[parkingSpotId] */\n      dup1\n        /* \"SmartParking.sol\":1786:1799  parkingSpotId */\n      dup4\n        /* \"SmartParking.sol\":1773:1800  parkingSpots[parkingSpotId] */\n      dup2\n      mstore\n      0x20\n      add\n      swap1\n      dup2\n      mstore\n      0x20\n      add\n      0x00\n      keccak256\n        /* \"SmartParking.sol\":1773:1810  parkingSpots[parkingSpotId].available */\n      0x01\n      add\n      0x00\n      swap1\n      sload\n      swap1\n      0x0100\n      exp\n      swap1\n      div\n      0xff\n      and\n        /* \"SmartParking.sol\":1765:1844  require(parkingSpots[parkingSpotId].available, \"Parking spot is not available\") */\n      tag_69\n      jumpi\n      mload(0x40)\n      0x08c379a000000000000000000000000000000000000000000000000000000000\n      dup2\n      mstore\n      0x04\n      add\n      tag_70\n      swap1\n      tag_71\n      jump\t// in\n    tag_70:\n      mload(0x40)\n      dup1\n      swap2\n      sub\n      swap1\n      revert\n    tag_69:\n        /* \"SmartParking.sol\":1857:1866  uint cost */\n      0x00\n        /* \"SmartParking.sol\":1910:1923  numberOfHours */\n      dup2\n        /* \"SmartParking.sol\":1869:1881  parkingSpots */\n      0x00\n        /* \"SmartParking.sol\":1869:1896  parkingSpots[parkingSpotId] */\n      dup1\n        /* \"SmartParking.sol\":1882:1895  parkingSpotId */\n      dup6\n        /* \"SmartParking.sol\":1869:1896  parkingSpots[parkingSpotId] */\n      dup2\n      mstore\n      0x20\n      add\n      swap1\n      dup2\n      mstore\n      0x20\n      add\n      0x00\n      keccak256\n        /* \"SmartParking.sol\":1869:1907  parkingSpots[parkingSpotId].hourlyRate */\n      0x02\n      add\n      sload\n        /* \"SmartParking.sol\":1869:1923  parkingSpots[parkingSpotId].hourlyRate * numberOfHours */\n      tag_72\n      swap2\n      swap1\n      tag_73\n      jump\t// in\n    tag_72:\n        /* \"SmartParking.sol\":1857:1923  uint cost = parkingSpots[parkingSpotId].hourlyRate * numberOfHours */\n      swap1\n      pop\n        /* \"SmartParking.sol\":1955:1959  cost */\n      dup1\n        /* \"SmartParking.sol\":1942:1951  msg.value */\n      callvalue\n        /* \"SmartParking.sol\":1942:1959  msg.value >= cost */\n      lt\n      iszero\n        /* \"SmartParking.sol\":1934:1982  require(msg.value >= cost, \"Insufficient funds\") */\n      tag_74\n      jumpi\n      mload(0x40)\n      0x08c379a000000000000000000000000000000000000000000000000000000000\n      dup2\n      mstore\n      0x04\n      add\n      tag_75\n      swap1\n      tag_76\n      jump\t// in\n    tag_75:\n      mload(0x40)\n      dup1\n      swap2\n      sub\n      swap1\n      revert\n    tag_74:\n        /* \"SmartParking.sol\":2029:2122  Reservation(parkingSpotId, msg.sender, block.timestamp, block.timestamp + numberOfHours*3600) */\n      mload(0x40)\n      dup1\n      0x80\n      add\n      0x40\n      mstore\n      dup1\n        /* \"SmartParking.sol\":2041:2054  parkingSpotId */\n      dup5\n        /* \"SmartParking.sol\":2029:2122  Reservation(parkingSpotId, msg.sender, block.timestamp, block.timestamp + numberOfHours*3600) */\n      dup2\n      mstore\n      0x20\n      add\n        /* \"SmartParking.sol\":2056:2066  msg.sender */\n      caller\n        /* \"SmartParking.sol\":2029:2122  Reservation(parkingSpotId, msg.sender, block.timestamp, block.timestamp + numberOfHours*3600) */\n      0xffffffffffffffffffffffffffffffffffffffff\n      and\n      dup2\n      mstore\n      0x20\n      add\n        /* \"SmartParking.sol\":2068:2083  block.timestamp */\n      timestamp\n        /* \"SmartParking.sol\":2029:2122  Reservation(parkingSpotId, msg.sender, block.timestamp, block.timestamp + numberOfHours*3600) */\n      dup2\n      mstore\n      0x20\n      add\n        /* \"SmartParking.sol\":2117:2121  3600 */\n      0x0e10\n        /* \"SmartParking.sol\":2103:2116  numberOfHours */\n      dup5\n        /* \"SmartParking.sol\":2103:2121  numberOfHours*3600 */\n      tag_77\n      swap2\n      swap1\n      tag_73\n      jump\t// in\n    tag_77:\n        /* \"SmartParking.sol\":2085:2100  block.timestamp */\n      timestamp\n        /* \"SmartParking.sol\":2085:2121  block.timestamp + numberOfHours*3600 */\n      tag_78\n      swap2\n      swap1\n      tag_79\n      jump\t// in\n    tag_78:\n        /* \"SmartParking.sol\":2029:2122  Reservation(parkingSpotId, msg.sender, block.timestamp, block.timestamp + numberOfHours*3600) */\n      dup2\n      mstore\n      pop\n        /* \"SmartParking.sol\":1995:2007  reservations */\n      0x01\n        /* \"SmartParking.sol\":1995:2026  reservations[reservationsCount] */\n      0x00\n        /* \"SmartParking.sol\":2008:2025  reservationsCount */\n      sload(0x03)\n        /* \"SmartParking.sol\":1995:2026  reservations[reservationsCount] */\n      dup2\n      mstore\n      0x20\n      add\n      swap1\n      dup2\n      mstore\n      0x20\n      add\n      0x00\n      keccak256\n        /* \"SmartParking.sol\":1995:2122  reservations[reservationsCount] = Reservation(parkingSpotId, msg.sender, block.timestamp, block.timestamp + numberOfHours*3600) */\n      0x00\n      dup3\n      add\n      mload\n      dup2\n      0x00\n      add\n      sstore\n      0x20\n      dup3\n      add\n      mload\n      dup2\n      0x01\n      add\n      exp(0x0100, 0x00)\n      dup2\n      sload\n      dup2\n      0xffffffffffffffffffffffffffffffffffffffff\n      mul\n      not\n      and\n      swap1\n      dup4\n      0xffffffffffffffffffffffffffffffffffffffff\n      and\n      mul\n      or\n      swap1\n      sstore\n      pop\n      0x40\n      dup3\n      add\n      mload\n      dup2\n      0x02\n      add\n      sstore\n      0x60\n      dup3\n      add\n      mload\n      dup2\n      0x03\n      add\n      sstore\n      swap1\n      pop\n      pop\n        /* \"SmartParking.sol\":2173:2178  false */\n      0x00\n        /* \"SmartParking.sol\":2133:2145  parkingSpots */\n      dup1\n        /* \"SmartParking.sol\":2133:2160  parkingSpots[parkingSpotId] */\n      0x00\n        /* \"SmartParking.sol\":2146:2159  parkingSpotId */\n      dup6\n        /* \"SmartParking.sol\":2133:2160  parkingSpots[parkingSpotId] */\n      dup2\n      mstore\n      0x20\n      add\n      swap1\n      dup2\n      mstore\n      0x20\n      add\n      0x00\n      keccak256\n        /* \"SmartParking.sol\":2133:2170  parkingSpots[parkingSpotId].available */\n      0x01\n      add\n      0x00\n        /* \"SmartParking.sol\":2133:2178  parkingSpots[parkingSpotId].available = false */\n      0x0100\n      exp\n      dup2\n      sload\n      dup2\n      0xff\n      mul\n      not\n      and\n      swap1\n      dup4\n      iszero\n      iszero\n      mul\n      or\n      swap1\n      sstore\n      pop\n        /* \"SmartParking.sol\":2194:2310  ReservationMade(reservationsCount, parkingSpotId, msg.sender, block.timestamp, block.timestamp + numberOfHours*3600) */\n      0x72ecd7f7851d99362881875ab1be61b520cafd001460ee107307408aa0ffbc58\n        /* \"SmartParking.sol\":2210:2227  reservationsCount */\n      sload(0x03)\n        /* \"SmartParking.sol\":2229:2242  parkingSpotId */\n      dup5\n        /* \"SmartParking.sol\":2244:2254  msg.sender */\n      caller\n        /* \"SmartParking.sol\":2256:2271  block.timestamp */\n      timestamp\n        /* \"SmartParking.sol\":2305:2309  3600 */\n      0x0e10\n        /* \"SmartParking.sol\":2291:2304  numberOfHours */\n      dup8\n        /* \"SmartParking.sol\":2291:2309  numberOfHours*3600 */\n      tag_80\n      swap2\n      swap1\n      tag_73\n      jump\t// in\n    tag_80:\n        /* \"SmartParking.sol\":2273:2288  block.timestamp */\n      timestamp\n        /* \"SmartParking.sol\":2273:2309  block.timestamp + numberOfHours*3600 */\n      tag_81\n      swap2\n      swap1\n      tag_79\n      jump\t// in\n    tag_81:\n        /* \"SmartParking.sol\":2194:2310  ReservationMade(reservationsCount, parkingSpotId, msg.sender, block.timestamp, block.timestamp + numberOfHours*3600) */\n      mload(0x40)\n      tag_82\n      swap6\n      swap5\n      swap4\n      swap3\n      swap2\n      swap1\n      tag_83\n      jump\t// in\n    tag_82:\n      mload(0x40)\n      dup1\n      swap2\n      sub\n      swap1\n      log1\n        /* \"SmartParking.sol\":2321:2338  reservationsCount */\n      0x03\n      0x00\n        /* \"SmartParking.sol\":2321:2340  reservationsCount++ */\n      dup2\n      sload\n      dup1\n      swap3\n      swap2\n      swap1\n      tag_84\n      swap1\n      tag_62\n      jump\t// in\n    tag_84:\n      swap2\n      swap1\n      pop\n      sstore\n      pop\n        /* \"SmartParking.sol\":2369:2373  cost */\n      dup1\n        /* \"SmartParking.sol\":2357:2366  msg.value */\n      callvalue\n        /* \"SmartParking.sol\":2357:2373  msg.value > cost */\n      gt\n        /* \"SmartParking.sol\":2353:2448  if (msg.value > cost) {... */\n      iszero\n      tag_85\n      jumpi\n        /* \"SmartParking.sol\":2398:2408  msg.sender */\n      caller\n        /* \"SmartParking.sol\":2390:2418  payable(msg.sender).transfer */\n      0xffffffffffffffffffffffffffffffffffffffff\n      and\n        /* \"SmartParking.sol\":2390:2436  payable(msg.sender).transfer(msg.value - cost) */\n      0x08fc\n        /* \"SmartParking.sol\":2431:2435  cost */\n      dup3\n        /* \"SmartParking.sol\":2419:2428  msg.value */\n      callvalue\n        /* \"SmartParking.sol\":2419:2435  msg.value - cost */\n      tag_86\n      swap2\n      swap1\n      tag_64\n      jump\t// in\n    tag_86:\n        /* \"SmartParking.sol\":2390:2436  payable(msg.sender).transfer(msg.value - cost) */\n      swap1\n      dup2\n      iszero\n      mul\n      swap1\n      mload(0x40)\n      0x00\n      mload(0x40)\n      dup1\n      dup4\n      sub\n      dup2\n      dup6\n      dup9\n      dup9\n      call\n      swap4\n      pop\n      pop\n      pop\n      pop\n      iszero\n      dup1\n      iszero\n      tag_88\n      jumpi\n      returndatasize\n      0x00\n      dup1\n      returndatacopy\n      revert(0x00, returndatasize)\n    tag_88:\n      pop\n        /* \"SmartParking.sol\":2353:2448  if (msg.value > cost) {... */\n    tag_85:\n        /* \"SmartParking.sol\":1674:2455  {... */\n      pop\n        /* \"SmartParking.sol\":1598:2455  function reserveSpot(uint parkingSpotId, uint numberOfHours) public payable {... */\n      pop\n      pop\n      jump\t// out\n        /* \"SmartParking.sol\":520:540  address public owner */\n    tag_35:\n      0x04\n      0x00\n      swap1\n      sload\n      swap1\n      0x0100\n      exp\n      swap1\n      div\n      0xffffffffffffffffffffffffffffffffffffffff\n      and\n      dup2\n      jump\t// out\n        /* \"SmartParking.sol\":2463:3032  function freeUpExpiredSpots() public {... */\n    tag_40:\n        /* \"SmartParking.sol\":2511:2527  uint toDecrement */\n      0x00\n        /* \"SmartParking.sol\":2547:2553  uint i */\n      dup1\n        /* \"SmartParking.sol\":2542:2984  for (uint i = 0; i < reservationsCount; i++) {... */\n    tag_90:\n        /* \"SmartParking.sol\":2563:2580  reservationsCount */\n      sload(0x03)\n        /* \"SmartParking.sol\":2559:2560  i */\n      dup2\n        /* \"SmartParking.sol\":2559:2580  i < reservationsCount */\n      lt\n        /* \"SmartParking.sol\":2542:2984  for (uint i = 0; i < reservationsCount; i++) {... */\n      iszero\n      tag_91\n      jumpi\n        /* \"SmartParking.sol\":2602:2633  Reservation storage reservation */\n      0x00\n        /* \"SmartParking.sol\":2636:2648  reservations */\n      0x01\n        /* \"SmartParking.sol\":2636:2651  reservations[i] */\n      0x00\n        /* \"SmartParking.sol\":2649:2650  i */\n      dup4\n        /* \"SmartParking.sol\":2636:2651  reservations[i] */\n      dup2\n      mstore\n      0x20\n      add\n      swap1\n      dup2\n      mstore\n      0x20\n      add\n      0x00\n      keccak256\n        /* \"SmartParking.sol\":2602:2651  Reservation storage reservation = reservations[i] */\n      swap1\n      pop\n        /* \"SmartParking.sol\":2689:2700  reservation */\n      dup1\n        /* \"SmartParking.sol\":2689:2708  reservation.endTime */\n      0x03\n      add\n      sload\n        /* \"SmartParking.sol\":2670:2685  block.timestamp */\n      timestamp\n        /* \"SmartParking.sol\":2670:2708  block.timestamp >= reservation.endTime */\n      lt\n        /* \"SmartParking.sol\":2666:2973  if (block.timestamp >= reservation.endTime) {... */\n      tag_93\n      jumpi\n        /* \"SmartParking.sol\":2729:2747  uint parkingSpotId */\n      0x00\n        /* \"SmartParking.sol\":2750:2761  reservation */\n      dup2\n        /* \"SmartParking.sol\":2750:2775  reservation.parkingSpotId */\n      0x00\n      add\n      sload\n        /* \"SmartParking.sol\":2729:2775  uint parkingSpotId = reservation.parkingSpotId */\n      swap1\n      pop\n        /* \"SmartParking.sol\":2834:2838  true */\n      0x01\n        /* \"SmartParking.sol\":2794:2806  parkingSpots */\n      0x00\n        /* \"SmartParking.sol\":2794:2821  parkingSpots[parkingSpotId] */\n      dup1\n        /* \"SmartParking.sol\":2807:2820  parkingSpotId */\n      dup4\n        /* \"SmartParking.sol\":2794:2821  parkingSpots[parkingSpotId] */\n      dup2\n      mstore\n      0x20\n      add\n      swap1\n      dup2\n      mstore\n      0x20\n      add\n      0x00\n      keccak256\n        /* \"SmartParking.sol\":2794:2831  parkingSpots[parkingSpotId].available */\n      0x01\n      add\n      0x00\n        /* \"SmartParking.sol\":2794:2838  parkingSpots[parkingSpotId].available = true */\n      0x0100\n      exp\n      dup2\n      sload\n      dup2\n      0xff\n      mul\n      not\n      and\n      swap1\n      dup4\n      iszero\n      iszero\n      mul\n      or\n      swap1\n      sstore\n      pop\n        /* \"SmartParking.sol\":2862:2884  ReservationCanceled(i) */\n      0x81a9339e192f17a2544892f6f54b4b2c4d16184d3ac5cbcd45146fe360d753af\n        /* \"SmartParking.sol\":2882:2883  i */\n      dup4\n        /* \"SmartParking.sol\":2862:2884  ReservationCanceled(i) */\n      mload(0x40)\n      tag_94\n      swap2\n      swap1\n      tag_24\n      jump\t// in\n    tag_94:\n      mload(0x40)\n      dup1\n      swap2\n      sub\n      swap1\n      log1\n        /* \"SmartParking.sol\":2910:2922  reservations */\n      0x01\n        /* \"SmartParking.sol\":2910:2925  reservations[i] */\n      0x00\n        /* \"SmartParking.sol\":2923:2924  i */\n      dup5\n        /* \"SmartParking.sol\":2910:2925  reservations[i] */\n      dup2\n      mstore\n      0x20\n      add\n      swap1\n      dup2\n      mstore\n      0x20\n      add\n      0x00\n      keccak256\n      0x00\n        /* \"SmartParking.sol\":2903:2925  delete reservations[i] */\n      dup1\n      dup3\n      add\n      0x00\n      swap1\n      sstore\n      0x01\n      dup3\n      add\n      exp(0x0100, 0x00)\n      dup2\n      sload\n      swap1\n      0xffffffffffffffffffffffffffffffffffffffff\n      mul\n      not\n      and\n      swap1\n      sstore\n      0x02\n      dup3\n      add\n      0x00\n      swap1\n      sstore\n      0x03\n      dup3\n      add\n      0x00\n      swap1\n      sstore\n      pop\n      pop\n        /* \"SmartParking.sol\":2944:2957  toDecrement++ */\n      dup4\n      dup1\n      tag_95\n      swap1\n      tag_62\n      jump\t// in\n    tag_95:\n      swap5\n      pop\n      pop\n        /* \"SmartParking.sol\":2710:2973  {... */\n      pop\n        /* \"SmartParking.sol\":2666:2973  if (block.timestamp >= reservation.endTime) {... */\n    tag_93:\n        /* \"SmartParking.sol\":2587:2984  {... */\n      pop\n        /* \"SmartParking.sol\":2582:2585  i++ */\n      dup1\n      dup1\n      tag_96\n      swap1\n      tag_62\n      jump\t// in\n    tag_96:\n      swap2\n      pop\n      pop\n        /* \"SmartParking.sol\":2542:2984  for (uint i = 0; i < reservationsCount; i++) {... */\n      jump(tag_90)\n    tag_91:\n      pop\n        /* \"SmartParking.sol\":3013:3024  toDecrement */\n      dup1\n        /* \"SmartParking.sol\":2994:3011  reservationsCount */\n      0x03\n      0x00\n        /* \"SmartParking.sol\":2994:3024  reservationsCount-=toDecrement */\n      dup3\n      dup3\n      sload\n      tag_97\n      swap2\n      swap1\n      tag_64\n      jump\t// in\n    tag_97:\n      swap3\n      pop\n      pop\n      dup2\n      swap1\n      sstore\n      pop\n        /* \"SmartParking.sol\":2500:3032  {... */\n      pop\n        /* \"SmartParking.sol\":2463:3032  function freeUpExpiredSpots() public {... */\n      jump\t// out\n        /* \"SmartParking.sol\":1271:1590  function updateParkingSpot(uint id, uint hourlyRate) public {... */\n    tag_44:\n        /* \"SmartParking.sol\":1364:1369  owner */\n      0x04\n      0x00\n      swap1\n      sload\n      swap1\n      0x0100\n      exp\n      swap1\n      div\n      0xffffffffffffffffffffffffffffffffffffffff\n      and\n        /* \"SmartParking.sol\":1350:1369  msg.sender == owner */\n      0xffffffffffffffffffffffffffffffffffffffff\n      and\n        /* \"SmartParking.sol\":1350:1360  msg.sender */\n      caller\n        /* \"SmartParking.sol\":1350:1369  msg.sender == owner */\n      0xffffffffffffffffffffffffffffffffffffffff\n      and\n      eq\n        /* \"SmartParking.sol\":1342:1412  require(msg.sender == owner, \"Only an owner can access this function\") */\n      tag_99\n      jumpi\n      mload(0x40)\n      0x08c379a000000000000000000000000000000000000000000000000000000000\n      dup2\n      mstore\n      0x04\n      add\n      tag_100\n      swap1\n      tag_58\n      jump\t// in\n    tag_100:\n      mload(0x40)\n      dup1\n      swap2\n      sub\n      swap1\n      revert\n    tag_99:\n        /* \"SmartParking.sol\":1436:1453  parkingSpotsCount */\n      sload(0x02)\n        /* \"SmartParking.sol\":1431:1433  id */\n      dup3\n        /* \"SmartParking.sol\":1431:1453  id < parkingSpotsCount */\n      lt\n        /* \"SmartParking.sol\":1423:1481  require(id < parkingSpotsCount, \"Invalid parking spot ID\") */\n      tag_101\n      jumpi\n      mload(0x40)\n      0x08c379a000000000000000000000000000000000000000000000000000000000\n      dup2\n      mstore\n      0x04\n      add\n      tag_102\n      swap1\n      tag_68\n      jump\t// in\n    tag_102:\n      mload(0x40)\n      dup1\n      swap2\n      sub\n      swap1\n      revert\n    tag_101:\n        /* \"SmartParking.sol\":1522:1532  hourlyRate */\n      dup1\n        /* \"SmartParking.sol\":1492:1504  parkingSpots */\n      0x00\n        /* \"SmartParking.sol\":1492:1508  parkingSpots[id] */\n      dup1\n        /* \"SmartParking.sol\":1505:1507  id */\n      dup5\n        /* \"SmartParking.sol\":1492:1508  parkingSpots[id] */\n      dup2\n      mstore\n      0x20\n      add\n      swap1\n      dup2\n      mstore\n      0x20\n      add\n      0x00\n      keccak256\n        /* \"SmartParking.sol\":1492:1519  parkingSpots[id].hourlyRate */\n      0x02\n      add\n        /* \"SmartParking.sol\":1492:1532  parkingSpots[id].hourlyRate = hourlyRate */\n      dup2\n      swap1\n      sstore\n      pop\n        /* \"SmartParking.sol\":1548:1582  ParkingSpotUpdated(id, hourlyRate) */\n      0xda4e74bbf57aae4d09379d2ffdb6e596f1760a1cd5623421e5f1dd6e05afc655\n        /* \"SmartParking.sol\":1567:1569  id */\n      dup3\n        /* \"SmartParking.sol\":1571:1581  hourlyRate */\n      dup3\n        /* \"SmartParking.sol\":1548:1582  ParkingSpotUpdated(id, hourlyRate) */\n      mload(0x40)\n      tag_103\n      swap3\n      swap2\n      swap1\n      tag_60\n      jump\t// in\n    tag_103:\n      mload(0x40)\n      dup1\n      swap2\n      sub\n      swap1\n      log1\n        /* \"SmartParking.sol\":1271:1590  function updateParkingSpot(uint id, uint hourlyRate) public {... */\n      pop\n      pop\n      jump\t// out\n        /* \"SmartParking.sol\":480:513  uint public reservationsCount = 0 */\n    tag_47:\n      sload(0x03)\n      dup2\n      jump\t// out\n        /* \"SmartParking.sol\":330:378  mapping(uint => ParkingSpot) public parkingSpots */\n    tag_52:\n      mstore(0x20, 0x00)\n      dup1\n      0x00\n      mstore\n      keccak256(0x00, 0x40)\n      0x00\n      swap2\n      pop\n      swap1\n      pop\n      dup1\n      0x00\n      add\n      sload\n      swap1\n      dup1\n      0x01\n      add\n      0x00\n      swap1\n      sload\n      swap1\n      0x0100\n      exp\n      swap1\n      div\n      0xff\n      and\n      swap1\n      dup1\n      0x02\n      add\n      sload\n      swap1\n      pop\n      dup4\n      jump\t// out\n        /* \"#utility.yul\":88:205   */\n    tag_105:\n        /* \"#utility.yul\":197:198   */\n      0x00\n        /* \"#utility.yul\":194:195   */\n      dup1\n        /* \"#utility.yul\":187:199   */\n      revert\n        /* \"#utility.yul\":334:411   */\n    tag_107:\n        /* \"#utility.yul\":371:378   */\n      0x00\n        /* \"#utility.yul\":400:405   */\n      dup2\n        /* \"#utility.yul\":389:405   */\n      swap1\n      pop\n        /* \"#utility.yul\":334:411   */\n      swap2\n      swap1\n      pop\n      jump\t// out\n        /* \"#utility.yul\":417:539   */\n    tag_108:\n        /* \"#utility.yul\":490:514   */\n      tag_132\n        /* \"#utility.yul\":508:513   */\n      dup2\n        /* \"#utility.yul\":490:514   */\n      tag_107\n      jump\t// in\n    tag_132:\n        /* \"#utility.yul\":483:488   */\n      dup2\n        /* \"#utility.yul\":480:515   */\n      eq\n        /* \"#utility.yul\":470:533   */\n      tag_133\n      jumpi\n        /* \"#utility.yul\":529:530   */\n      0x00\n        /* \"#utility.yul\":526:527   */\n      dup1\n        /* \"#utility.yul\":519:531   */\n      revert\n        /* \"#utility.yul\":470:533   */\n    tag_133:\n        /* \"#utility.yul\":417:539   */\n      pop\n      jump\t// out\n        /* \"#utility.yul\":545:684   */\n    tag_109:\n        /* \"#utility.yul\":591:596   */\n      0x00\n        /* \"#utility.yul\":629:635   */\n      dup2\n        /* \"#utility.yul\":616:636   */\n      calldataload\n        /* \"#utility.yul\":607:636   */\n      swap1\n      pop\n        /* \"#utility.yul\":645:678   */\n      tag_135\n        /* \"#utility.yul\":672:677   */\n      dup2\n        /* \"#utility.yul\":645:678   */\n      tag_108\n      jump\t// in\n    tag_135:\n        /* \"#utility.yul\":545:684   */\n      swap3\n      swap2\n      pop\n      pop\n      jump\t// out\n        /* \"#utility.yul\":690:1019   */\n    tag_15:\n        /* \"#utility.yul\":749:755   */\n      0x00\n        /* \"#utility.yul\":798:800   */\n      0x20\n        /* \"#utility.yul\":786:795   */\n      dup3\n        /* \"#utility.yul\":777:784   */\n      dup5\n        /* \"#utility.yul\":773:796   */\n      sub\n        /* \"#utility.yul\":769:801   */\n      slt\n        /* \"#utility.yul\":766:885   */\n      iszero\n      tag_137\n      jumpi\n        /* \"#utility.yul\":804:883   */\n      tag_138\n      tag_105\n      jump\t// in\n    tag_138:\n        /* \"#utility.yul\":766:885   */\n    tag_137:\n        /* \"#utility.yul\":924:925   */\n      0x00\n        /* \"#utility.yul\":949:1002   */\n      tag_139\n        /* \"#utility.yul\":994:1001   */\n      dup5\n        /* \"#utility.yul\":985:991   */\n      dup3\n        /* \"#utility.yul\":974:983   */\n      dup6\n        /* \"#utility.yul\":970:992   */\n      add\n        /* \"#utility.yul\":949:1002   */\n      tag_109\n      jump\t// in\n    tag_139:\n        /* \"#utility.yul\":939:1002   */\n      swap2\n      pop\n        /* \"#utility.yul\":895:1012   */\n      pop\n        /* \"#utility.yul\":690:1019   */\n      swap3\n      swap2\n      pop\n      pop\n      jump\t// out\n        /* \"#utility.yul\":1025:1143   */\n    tag_110:\n        /* \"#utility.yul\":1112:1136   */\n      tag_141\n        /* \"#utility.yul\":1130:1135   */\n      dup2\n        /* \"#utility.yul\":1112:1136   */\n      tag_107\n      jump\t// in\n    tag_141:\n        /* \"#utility.yul\":1107:1110   */\n      dup3\n        /* \"#utility.yul\":1100:1137   */\n      mstore\n        /* \"#utility.yul\":1025:1143   */\n      pop\n      pop\n      jump\t// out\n        /* \"#utility.yul\":1149:1275   */\n    tag_111:\n        /* \"#utility.yul\":1186:1193   */\n      0x00\n        /* \"#utility.yul\":1226:1268   */\n      0xffffffffffffffffffffffffffffffffffffffff\n        /* \"#utility.yul\":1219:1224   */\n      dup3\n        /* \"#utility.yul\":1215:1269   */\n      and\n        /* \"#utility.yul\":1204:1269   */\n      swap1\n      pop\n        /* \"#utility.yul\":1149:1275   */\n      swap2\n      swap1\n      pop\n      jump\t// out\n        /* \"#utility.yul\":1281:1377   */\n    tag_112:\n        /* \"#utility.yul\":1318:1325   */\n      0x00\n        /* \"#utility.yul\":1347:1371   */\n      tag_144\n        /* \"#utility.yul\":1365:1370   */\n      dup3\n        /* \"#utility.yul\":1347:1371   */\n      tag_111\n      jump\t// in\n    tag_144:\n        /* \"#utility.yul\":1336:1371   */\n      swap1\n      pop\n        /* \"#utility.yul\":1281:1377   */\n      swap2\n      swap1\n      pop\n      jump\t// out\n        /* \"#utility.yul\":1383:1501   */\n    tag_113:\n        /* \"#utility.yul\":1470:1494   */\n      tag_146\n        /* \"#utility.yul\":1488:1493   */\n      dup2\n        /* \"#utility.yul\":1470:1494   */\n      tag_112\n      jump\t// in\n    tag_146:\n        /* \"#utility.yul\":1465:1468   */\n      dup3\n        /* \"#utility.yul\":1458:1495   */\n      mstore\n        /* \"#utility.yul\":1383:1501   */\n      pop\n      pop\n      jump\t// out\n        /* \"#utility.yul\":1507:2060   */\n    tag_18:\n        /* \"#utility.yul\":1684:1688   */\n      0x00\n        /* \"#utility.yul\":1722:1725   */\n      0x80\n        /* \"#utility.yul\":1711:1720   */\n      dup3\n        /* \"#utility.yul\":1707:1726   */\n      add\n        /* \"#utility.yul\":1699:1726   */\n      swap1\n      pop\n        /* \"#utility.yul\":1736:1807   */\n      tag_148\n        /* \"#utility.yul\":1804:1805   */\n      0x00\n        /* \"#utility.yul\":1793:1802   */\n      dup4\n        /* \"#utility.yul\":1789:1806   */\n      add\n        /* \"#utility.yul\":1780:1786   */\n      dup8\n        /* \"#utility.yul\":1736:1807   */\n      tag_110\n      jump\t// in\n    tag_148:\n        /* \"#utility.yul\":1817:1889   */\n      tag_149\n        /* \"#utility.yul\":1885:1887   */\n      0x20\n        /* \"#utility.yul\":1874:1883   */\n      dup4\n        /* \"#utility.yul\":1870:1888   */\n      add\n        /* \"#utility.yul\":1861:1867   */\n      dup7\n        /* \"#utility.yul\":1817:1889   */\n      tag_113\n      jump\t// in\n    tag_149:\n        /* \"#utility.yul\":1899:1971   */\n      tag_150\n        /* \"#utility.yul\":1967:1969   */\n      0x40\n        /* \"#utility.yul\":1956:1965   */\n      dup4\n        /* \"#utility.yul\":1952:1970   */\n      add\n        /* \"#utility.yul\":1943:1949   */\n      dup6\n        /* \"#utility.yul\":1899:1971   */\n      tag_110\n      jump\t// in\n    tag_150:\n        /* \"#utility.yul\":1981:2053   */\n      tag_151\n        /* \"#utility.yul\":2049:2051   */\n      0x60\n        /* \"#utility.yul\":2038:2047   */\n      dup4\n        /* \"#utility.yul\":2034:2052   */\n      add\n        /* \"#utility.yul\":2025:2031   */\n      dup5\n        /* \"#utility.yul\":1981:2053   */\n      tag_110\n      jump\t// in\n    tag_151:\n        /* \"#utility.yul\":1507:2060   */\n      swap6\n      swap5\n      pop\n      pop\n      pop\n      pop\n      pop\n      jump\t// out\n        /* \"#utility.yul\":2066:2288   */\n    tag_24:\n        /* \"#utility.yul\":2159:2163   */\n      0x00\n        /* \"#utility.yul\":2197:2199   */\n      0x20\n        /* \"#utility.yul\":2186:2195   */\n      dup3\n        /* \"#utility.yul\":2182:2200   */\n      add\n        /* \"#utility.yul\":2174:2200   */\n      swap1\n      pop\n        /* \"#utility.yul\":2210:2281   */\n      tag_153\n        /* \"#utility.yul\":2278:2279   */\n      0x00\n        /* \"#utility.yul\":2267:2276   */\n      dup4\n        /* \"#utility.yul\":2263:2280   */\n      add\n        /* \"#utility.yul\":2254:2260   */\n      dup5\n        /* \"#utility.yul\":2210:2281   */\n      tag_110\n      jump\t// in\n    tag_153:\n        /* \"#utility.yul\":2066:2288   */\n      swap3\n      swap2\n      pop\n      pop\n      jump\t// out\n        /* \"#utility.yul\":2294:2768   */\n    tag_31:\n        /* \"#utility.yul\":2362:2368   */\n      0x00\n        /* \"#utility.yul\":2370:2376   */\n      dup1\n        /* \"#utility.yul\":2419:2421   */\n      0x40\n        /* \"#utility.yul\":2407:2416   */\n      dup4\n        /* \"#utility.yul\":2398:2405   */\n      dup6\n        /* \"#utility.yul\":2394:2417   */\n      sub\n        /* \"#utility.yul\":2390:2422   */\n      slt\n        /* \"#utility.yul\":2387:2506   */\n      iszero\n      tag_155\n      jumpi\n        /* \"#utility.yul\":2425:2504   */\n      tag_156\n      tag_105\n      jump\t// in\n    tag_156:\n        /* \"#utility.yul\":2387:2506   */\n    tag_155:\n        /* \"#utility.yul\":2545:2546   */\n      0x00\n        /* \"#utility.yul\":2570:2623   */\n      tag_157\n        /* \"#utility.yul\":2615:2622   */\n      dup6\n        /* \"#utility.yul\":2606:2612   */\n      dup3\n        /* \"#utility.yul\":2595:2604   */\n      dup7\n        /* \"#utility.yul\":2591:2613   */\n      add\n        /* \"#utility.yul\":2570:2623   */\n      tag_109\n      jump\t// in\n    tag_157:\n        /* \"#utility.yul\":2560:2623   */\n      swap3\n      pop\n        /* \"#utility.yul\":2516:2633   */\n      pop\n        /* \"#utility.yul\":2672:2674   */\n      0x20\n        /* \"#utility.yul\":2698:2751   */\n      tag_158\n        /* \"#utility.yul\":2743:2750   */\n      dup6\n        /* \"#utility.yul\":2734:2740   */\n      dup3\n        /* \"#utility.yul\":2723:2732   */\n      dup7\n        /* \"#utility.yul\":2719:2741   */\n      add\n        /* \"#utility.yul\":2698:2751   */\n      tag_109\n      jump\t// in\n    tag_158:\n        /* \"#utility.yul\":2688:2751   */\n      swap2\n      pop\n        /* \"#utility.yul\":2643:2761   */\n      pop\n        /* \"#utility.yul\":2294:2768   */\n      swap3\n      pop\n      swap3\n      swap1\n      pop\n      jump\t// out\n        /* \"#utility.yul\":2774:2996   */\n    tag_37:\n        /* \"#utility.yul\":2867:2871   */\n      0x00\n        /* \"#utility.yul\":2905:2907   */\n      0x20\n        /* \"#utility.yul\":2894:2903   */\n      dup3\n        /* \"#utility.yul\":2890:2908   */\n      add\n        /* \"#utility.yul\":2882:2908   */\n      swap1\n      pop\n        /* \"#utility.yul\":2918:2989   */\n      tag_160\n        /* \"#utility.yul\":2986:2987   */\n      0x00\n        /* \"#utility.yul\":2975:2984   */\n      dup4\n        /* \"#utility.yul\":2971:2988   */\n      add\n        /* \"#utility.yul\":2962:2968   */\n      dup5\n        /* \"#utility.yul\":2918:2989   */\n      tag_113\n      jump\t// in\n    tag_160:\n        /* \"#utility.yul\":2774:2996   */\n      swap3\n      swap2\n      pop\n      pop\n      jump\t// out\n        /* \"#utility.yul\":3002:3092   */\n    tag_114:\n        /* \"#utility.yul\":3036:3043   */\n      0x00\n        /* \"#utility.yul\":3079:3084   */\n      dup2\n        /* \"#utility.yul\":3072:3085   */\n      iszero\n        /* \"#utility.yul\":3065:3086   */\n      iszero\n        /* \"#utility.yul\":3054:3086   */\n      swap1\n      pop\n        /* \"#utility.yul\":3002:3092   */\n      swap2\n      swap1\n      pop\n      jump\t// out\n        /* \"#utility.yul\":3098:3207   */\n    tag_115:\n        /* \"#utility.yul\":3179:3200   */\n      tag_163\n        /* \"#utility.yul\":3194:3199   */\n      dup2\n        /* \"#utility.yul\":3179:3200   */\n      tag_114\n      jump\t// in\n    tag_163:\n        /* \"#utility.yul\":3174:3177   */\n      dup3\n        /* \"#utility.yul\":3167:3201   */\n      mstore\n        /* \"#utility.yul\":3098:3207   */\n      pop\n      pop\n      jump\t// out\n        /* \"#utility.yul\":3213:3643   */\n    tag_54:\n        /* \"#utility.yul\":3356:3360   */\n      0x00\n        /* \"#utility.yul\":3394:3396   */\n      0x60\n        /* \"#utility.yul\":3383:3392   */\n      dup3\n        /* \"#utility.yul\":3379:3397   */\n      add\n        /* \"#utility.yul\":3371:3397   */\n      swap1\n      pop\n        /* \"#utility.yul\":3407:3478   */\n      tag_165\n        /* \"#utility.yul\":3475:3476   */\n      0x00\n        /* \"#utility.yul\":3464:3473   */\n      dup4\n        /* \"#utility.yul\":3460:3477   */\n      add\n        /* \"#utility.yul\":3451:3457   */\n      dup7\n        /* \"#utility.yul\":3407:3478   */\n      tag_110\n      jump\t// in\n    tag_165:\n        /* \"#utility.yul\":3488:3554   */\n      tag_166\n        /* \"#utility.yul\":3550:3552   */\n      0x20\n        /* \"#utility.yul\":3539:3548   */\n      dup4\n        /* \"#utility.yul\":3535:3553   */\n      add\n        /* \"#utility.yul\":3526:3532   */\n      dup6\n        /* \"#utility.yul\":3488:3554   */\n      tag_115\n      jump\t// in\n    tag_166:\n        /* \"#utility.yul\":3564:3636   */\n      tag_167\n        /* \"#utility.yul\":3632:3634   */\n      0x40\n        /* \"#utility.yul\":3621:3630   */\n      dup4\n        /* \"#utility.yul\":3617:3635   */\n      add\n        /* \"#utility.yul\":3608:3614   */\n      dup5\n        /* \"#utility.yul\":3564:3636   */\n      tag_110\n      jump\t// in\n    tag_167:\n        /* \"#utility.yul\":3213:3643   */\n      swap5\n      swap4\n      pop\n      pop\n      pop\n      pop\n      jump\t// out\n        /* \"#utility.yul\":3649:3818   */\n    tag_116:\n        /* \"#utility.yul\":3733:3744   */\n      0x00\n        /* \"#utility.yul\":3767:3773   */\n      dup3\n        /* \"#utility.yul\":3762:3765   */\n      dup3\n        /* \"#utility.yul\":3755:3774   */\n      mstore\n        /* \"#utility.yul\":3807:3811   */\n      0x20\n        /* \"#utility.yul\":3802:3805   */\n      dup3\n        /* \"#utility.yul\":3798:3812   */\n      add\n        /* \"#utility.yul\":3783:3812   */\n      swap1\n      pop\n        /* \"#utility.yul\":3649:3818   */\n      swap3\n      swap2\n      pop\n      pop\n      jump\t// out\n        /* \"#utility.yul\":3824:4049   */\n    tag_117:\n        /* \"#utility.yul\":3964:3998   */\n      0x4f6e6c7920616e206f776e65722063616e206163636573732074686973206675\n        /* \"#utility.yul\":3960:3961   */\n      0x00\n        /* \"#utility.yul\":3952:3958   */\n      dup3\n        /* \"#utility.yul\":3948:3962   */\n      add\n        /* \"#utility.yul\":3941:3999   */\n      mstore\n        /* \"#utility.yul\":4033:4041   */\n      0x6e6374696f6e0000000000000000000000000000000000000000000000000000\n        /* \"#utility.yul\":4028:4030   */\n      0x20\n        /* \"#utility.yul\":4020:4026   */\n      dup3\n        /* \"#utility.yul\":4016:4031   */\n      add\n        /* \"#utility.yul\":4009:4042   */\n      mstore\n        /* \"#utility.yul\":3824:4049   */\n      pop\n      jump\t// out\n        /* \"#utility.yul\":4055:4421   */\n    tag_118:\n        /* \"#utility.yul\":4197:4200   */\n      0x00\n        /* \"#utility.yul\":4218:4285   */\n      tag_171\n        /* \"#utility.yul\":4282:4284   */\n      0x26\n        /* \"#utility.yul\":4277:4280   */\n      dup4\n        /* \"#utility.yul\":4218:4285   */\n      tag_116\n      jump\t// in\n    tag_171:\n        /* \"#utility.yul\":4211:4285   */\n      swap2\n      pop\n        /* \"#utility.yul\":4294:4387   */\n      tag_172\n        /* \"#utility.yul\":4383:4386   */\n      dup3\n        /* \"#utility.yul\":4294:4387   */\n      tag_117\n      jump\t// in\n    tag_172:\n        /* \"#utility.yul\":4412:4414   */\n      0x40\n        /* \"#utility.yul\":4407:4410   */\n      dup3\n        /* \"#utility.yul\":4403:4415   */\n      add\n        /* \"#utility.yul\":4396:4415   */\n      swap1\n      pop\n        /* \"#utility.yul\":4055:4421   */\n      swap2\n      swap1\n      pop\n      jump\t// out\n        /* \"#utility.yul\":4427:4846   */\n    tag_58:\n        /* \"#utility.yul\":4593:4597   */\n      0x00\n        /* \"#utility.yul\":4631:4633   */\n      0x20\n        /* \"#utility.yul\":4620:4629   */\n      dup3\n        /* \"#utility.yul\":4616:4634   */\n      add\n        /* \"#utility.yul\":4608:4634   */\n      swap1\n      pop\n        /* \"#utility.yul\":4680:4689   */\n      dup2\n        /* \"#utility.yul\":4674:4678   */\n      dup2\n        /* \"#utility.yul\":4670:4690   */\n      sub\n        /* \"#utility.yul\":4666:4667   */\n      0x00\n        /* \"#utility.yul\":4655:4664   */\n      dup4\n        /* \"#utility.yul\":4651:4668   */\n      add\n        /* \"#utility.yul\":4644:4691   */\n      mstore\n        /* \"#utility.yul\":4708:4839   */\n      tag_174\n        /* \"#utility.yul\":4834:4838   */\n      dup2\n        /* \"#utility.yul\":4708:4839   */\n      tag_118\n      jump\t// in\n    tag_174:\n        /* \"#utility.yul\":4700:4839   */\n      swap1\n      pop\n        /* \"#utility.yul\":4427:4846   */\n      swap2\n      swap1\n      pop\n      jump\t// out\n        /* \"#utility.yul\":4852:5184   */\n    tag_60:\n        /* \"#utility.yul\":4973:4977   */\n      0x00\n        /* \"#utility.yul\":5011:5013   */\n      0x40\n        /* \"#utility.yul\":5000:5009   */\n      dup3\n        /* \"#utility.yul\":4996:5014   */\n      add\n        /* \"#utility.yul\":4988:5014   */\n      swap1\n      pop\n        /* \"#utility.yul\":5024:5095   */\n      tag_176\n        /* \"#utility.yul\":5092:5093   */\n      0x00\n        /* \"#utility.yul\":5081:5090   */\n      dup4\n        /* \"#utility.yul\":5077:5094   */\n      add\n        /* \"#utility.yul\":5068:5074   */\n      dup6\n        /* \"#utility.yul\":5024:5095   */\n      tag_110\n      jump\t// in\n    tag_176:\n        /* \"#utility.yul\":5105:5177   */\n      tag_177\n        /* \"#utility.yul\":5173:5175   */\n      0x20\n        /* \"#utility.yul\":5162:5171   */\n      dup4\n        /* \"#utility.yul\":5158:5176   */\n      add\n        /* \"#utility.yul\":5149:5155   */\n      dup5\n        /* \"#utility.yul\":5105:5177   */\n      tag_110\n      jump\t// in\n    tag_177:\n        /* \"#utility.yul\":4852:5184   */\n      swap4\n      swap3\n      pop\n      pop\n      pop\n      jump\t// out\n        /* \"#utility.yul\":5190:5370   */\n    tag_119:\n        /* \"#utility.yul\":5238:5315   */\n      0x4e487b7100000000000000000000000000000000000000000000000000000000\n        /* \"#utility.yul\":5235:5236   */\n      0x00\n        /* \"#utility.yul\":5228:5316   */\n      mstore\n        /* \"#utility.yul\":5335:5339   */\n      0x11\n        /* \"#utility.yul\":5332:5333   */\n      0x04\n        /* \"#utility.yul\":5325:5340   */\n      mstore\n        /* \"#utility.yul\":5359:5363   */\n      0x24\n        /* \"#utility.yul\":5356:5357   */\n      0x00\n        /* \"#utility.yul\":5349:5364   */\n      revert\n        /* \"#utility.yul\":5376:5609   */\n    tag_62:\n        /* \"#utility.yul\":5415:5418   */\n      0x00\n        /* \"#utility.yul\":5438:5462   */\n      tag_180\n        /* \"#utility.yul\":5456:5461   */\n      dup3\n        /* \"#utility.yul\":5438:5462   */\n      tag_107\n      jump\t// in\n    tag_180:\n        /* \"#utility.yul\":5429:5462   */\n      swap2\n      pop\n        /* \"#utility.yul\":5484:5550   */\n      0xffffffffffffffffffffffffffffffffffffffffffffffffffffffffffffffff\n        /* \"#utility.yul\":5477:5482   */\n      dup3\n        /* \"#utility.yul\":5474:5551   */\n      sub\n        /* \"#utility.yul\":5471:5574   */\n      tag_181\n      jumpi\n        /* \"#utility.yul\":5554:5572   */\n      tag_182\n      tag_119\n      jump\t// in\n    tag_182:\n        /* \"#utility.yul\":5471:5574   */\n    tag_181:\n        /* \"#utility.yul\":5601:5602   */\n      0x01\n        /* \"#utility.yul\":5594:5599   */\n      dup3\n        /* \"#utility.yul\":5590:5603   */\n      add\n        /* \"#utility.yul\":5583:5603   */\n      swap1\n      pop\n        /* \"#utility.yul\":5376:5609   */\n      swap2\n      swap1\n      pop\n      jump\t// out\n        /* \"#utility.yul\":5615:5809   */\n    tag_64:\n        /* \"#utility.yul\":5655:5659   */\n      0x00\n        /* \"#utility.yul\":5675:5695   */\n      tag_184\n        /* \"#utility.yul\":5693:5694   */\n      dup3\n        /* \"#utility.yul\":5675:5695   */\n      tag_107\n      jump\t// in\n    tag_184:\n        /* \"#utility.yul\":5670:5695   */\n      swap2\n      pop\n        /* \"#utility.yul\":5709:5729   */\n      tag_185\n        /* \"#utility.yul\":5727:5728   */\n      dup4\n        /* \"#utility.yul\":5709:5729   */\n      tag_107\n      jump\t// in\n    tag_185:\n        /* \"#utility.yul\":5704:5729   */\n      swap3\n      pop\n        /* \"#utility.yul\":5753:5754   */\n      dup3\n        /* \"#utility.yul\":5750:5751   */\n      dup3\n        /* \"#utility.yul\":5746:5755   */\n      sub\n        /* \"#utility.yul\":5738:5755   */\n      swap1\n      pop\n        /* \"#utility.yul\":5777:5778   */\n      dup2\n        /* \"#utility.yul\":5771:5775   */\n      dup2\n        /* \"#utility.yul\":5768:5779   */\n      gt\n        /* \"#utility.yul\":5765:5802   */\n      iszero\n      tag_186\n      jumpi\n        /* \"#utility.yul\":5782:5800   */\n      tag_187\n      tag_119\n      jump\t// in\n    tag_187:\n        /* \"#utility.yul\":5765:5802   */\n    tag_186:\n        /* \"#utility.yul\":5615:5809   */\n      swap3\n      swap2\n      pop\n      pop\n      jump\t// out\n        /* \"#utility.yul\":5815:5988   */\n    tag_120:\n        /* \"#utility.yul\":5955:5980   */\n      0x496e76616c6964207061726b696e672073706f74204944000000000000000000\n        /* \"#utility.yul\":5951:5952   */\n      0x00\n        /* \"#utility.yul\":5943:5949   */\n      dup3\n        /* \"#utility.yul\":5939:5953   */\n      add\n        /* \"#utility.yul\":5932:5981   */\n      mstore\n        /* \"#utility.yul\":5815:5988   */\n      pop\n      jump\t// out\n        /* \"#utility.yul\":5994:6360   */\n    tag_121:\n        /* \"#utility.yul\":6136:6139   */\n      0x00\n        /* \"#utility.yul\":6157:6224   */\n      tag_190\n        /* \"#utility.yul\":6221:6223   */\n      0x17\n        /* \"#utility.yul\":6216:6219   */\n      dup4\n        /* \"#utility.yul\":6157:6224   */\n      tag_116\n      jump\t// in\n    tag_190:\n        /* \"#utility.yul\":6150:6224   */\n      swap2\n      pop\n        /* \"#utility.yul\":6233:6326   */\n      tag_191\n        /* \"#utility.yul\":6322:6325   */\n      dup3\n        /* \"#utility.yul\":6233:6326   */\n      tag_120\n      jump\t// in\n    tag_191:\n        /* \"#utility.yul\":6351:6353   */\n      0x20\n        /* \"#utility.yul\":6346:6349   */\n      dup3\n        /* \"#utility.yul\":6342:6354   */\n      add\n        /* \"#utility.yul\":6335:6354   */\n      swap1\n      pop\n        /* \"#utility.yul\":5994:6360   */\n      swap2\n      swap1\n      pop\n      jump\t// out\n        /* \"#utility.yul\":6366:6785   */\n    tag_68:\n        /* \"#utility.yul\":6532:6536   */\n      0x00\n        /* \"#utility.yul\":6570:6572   */\n      0x20\n        /* \"#utility.yul\":6559:6568   */\n      dup3\n        /* \"#utility.yul\":6555:6573   */\n      add\n        /* \"#utility.yul\":6547:6573   */\n      swap1\n      pop\n        /* \"#utility.yul\":6619:6628   */\n      dup2\n        /* \"#utility.yul\":6613:6617   */\n      dup2\n        /* \"#utility.yul\":6609:6629   */\n      sub\n        /* \"#utility.yul\":6605:6606   */\n      0x00\n        /* \"#utility.yul\":6594:6603   */\n      dup4\n        /* \"#utility.yul\":6590:6607   */\n      add\n        /* \"#utility.yul\":6583:6630   */\n      mstore\n        /* \"#utility.yul\":6647:6778   */\n      tag_193\n        /* \"#utility.yul\":6773:6777   */\n      dup2\n        /* \"#utility.yul\":6647:6778   */\n      tag_121\n      jump\t// in\n    tag_193:\n        /* \"#utility.yul\":6639:6778   */\n      swap1\n      pop\n        /* \"#utility.yul\":6366:6785   */\n      swap2\n      swap1\n      pop\n      jump\t// out\n        /* \"#utility.yul\":6791:6970   */\n    tag_122:\n        /* \"#utility.yul\":6931:6962   */\n      0x5061726b696e672073706f74206973206e6f7420617661696c61626c65000000\n        /* \"#utility.yul\":6927:6928   */\n      0x00\n        /* \"#utility.yul\":6919:6925   */\n      dup3\n        /* \"#utility.yul\":6915:6929   */\n      add\n        /* \"#utility.yul\":6908:6963   */\n      mstore\n        /* \"#utility.yul\":6791:6970   */\n      pop\n      jump\t// out\n        /* \"#utility.yul\":6976:7342   */\n    tag_123:\n        /* \"#utility.yul\":7118:7121   */\n      0x00\n        /* \"#utility.yul\":7139:7206   */\n      tag_196\n        /* \"#utility.yul\":7203:7205   */\n      0x1d\n        /* \"#utility.yul\":7198:7201   */\n      dup4\n        /* \"#utility.yul\":7139:7206   */\n      tag_116\n      jump\t// in\n    tag_196:\n        /* \"#utility.yul\":7132:7206   */\n      swap2\n      pop\n        /* \"#utility.yul\":7215:7308   */\n      tag_197\n        /* \"#utility.yul\":7304:7307   */\n      dup3\n        /* \"#utility.yul\":7215:7308   */\n      tag_122\n      jump\t// in\n    tag_197:\n        /* \"#utility.yul\":7333:7335   */\n      0x20\n        /* \"#utility.yul\":7328:7331   */\n      dup3\n        /* \"#utility.yul\":7324:7336   */\n      add\n        /* \"#utility.yul\":7317:7336   */\n      swap1\n      pop\n        /* \"#utility.yul\":6976:7342   */\n      swap2\n      swap1\n      pop\n      jump\t// out\n        /* \"#utility.yul\":7348:7767   */\n    tag_71:\n        /* \"#utility.yul\":7514:7518   */\n      0x00\n        /* \"#utility.yul\":7552:7554   */\n      0x20\n        /* \"#utility.yul\":7541:7550   */\n      dup3\n        /* \"#utility.yul\":7537:7555   */\n      add\n        /* \"#utility.yul\":7529:7555   */\n      swap1\n      pop\n        /* \"#utility.yul\":7601:7610   */\n      dup2\n        /* \"#utility.yul\":7595:7599   */\n      dup2\n        /* \"#utility.yul\":7591:7611   */\n      sub\n        /* \"#utility.yul\":7587:7588   */\n      0x00\n        /* \"#utility.yul\":7576:7585   */\n      dup4\n        /* \"#utility.yul\":7572:7589   */\n      add\n        /* \"#utility.yul\":7565:7612   */\n      mstore\n        /* \"#utility.yul\":7629:7760   */\n      tag_199\n        /* \"#utility.yul\":7755:7759   */\n      dup2\n        /* \"#utility.yul\":7629:7760   */\n      tag_123\n      jump\t// in\n    tag_199:\n        /* \"#utility.yul\":7621:7760   */\n      swap1\n      pop\n        /* \"#utility.yul\":7348:7767   */\n      swap2\n      swap1\n      pop\n      jump\t// out\n        /* \"#utility.yul\":7773:8183   */\n    tag_73:\n        /* \"#utility.yul\":7813:7820   */\n      0x00\n        /* \"#utility.yul\":7836:7856   */\n      tag_201\n        /* \"#utility.yul\":7854:7855   */\n      dup3\n        /* \"#utility.yul\":7836:7856   */\n      tag_107\n      jump\t// in\n    tag_201:\n        /* \"#utility.yul\":7831:7856   */\n      swap2\n      pop\n        /* \"#utility.yul\":7870:7890   */\n      tag_202\n        /* \"#utility.yul\":7888:7889   */\n      dup4\n        /* \"#utility.yul\":7870:7890   */\n      tag_107\n      jump\t// in\n    tag_202:\n        /* \"#utility.yul\":7865:7890   */\n      swap3\n      pop\n        /* \"#utility.yul\":7925:7926   */\n      dup3\n        /* \"#utility.yul\":7922:7923   */\n      dup3\n        /* \"#utility.yul\":7918:7927   */\n      mul\n        /* \"#utility.yul\":7947:7977   */\n      tag_203\n        /* \"#utility.yul\":7965:7976   */\n      dup2\n        /* \"#utility.yul\":7947:7977   */\n      tag_107\n      jump\t// in\n    tag_203:\n        /* \"#utility.yul\":7936:7977   */\n      swap2\n      pop\n        /* \"#utility.yul\":8126:8127   */\n      dup3\n        /* \"#utility.yul\":8117:8124   */\n      dup3\n        /* \"#utility.yul\":8113:8128   */\n      div\n        /* \"#utility.yul\":8110:8111   */\n      dup5\n        /* \"#utility.yul\":8107:8129   */\n      eq\n        /* \"#utility.yul\":8087:8088   */\n      dup4\n        /* \"#utility.yul\":8080:8089   */\n      iszero\n        /* \"#utility.yul\":8060:8143   */\n      or\n        /* \"#utility.yul\":8037:8176   */\n      tag_204\n      jumpi\n        /* \"#utility.yul\":8156:8174   */\n      tag_205\n      tag_119\n      jump\t// in\n    tag_205:\n        /* \"#utility.yul\":8037:8176   */\n    tag_204:\n        /* \"#utility.yul\":7821:8183   */\n      pop\n        /* \"#utility.yul\":7773:8183   */\n      swap3\n      swap2\n      pop\n      pop\n      jump\t// out\n        /* \"#utility.yul\":8189:8357   */\n    tag_124:\n        /* \"#utility.yul\":8329:8349   */\n      0x496e73756666696369656e742066756e64730000000000000000000000000000\n        /* \"#utility.yul\":8325:8326   */\n      0x00\n        /* \"#utility.yul\":8317:8323   */\n      dup3\n        /* \"#utility.yul\":8313:8327   */\n      add\n        /* \"#utility.yul\":8306:8350   */\n      mstore\n        /* \"#utility.yul\":8189:8357   */\n      pop\n      jump\t// out\n        /* \"#utility.yul\":8363:8729   */\n    tag_125:\n        /* \"#utility.yul\":8505:8508   */\n      0x00\n        /* \"#utility.yul\":8526:8593   */\n      tag_208\n        /* \"#utility.yul\":8590:8592   */\n      0x12\n        /* \"#utility.yul\":8585:8588   */\n      dup4\n        /* \"#utility.yul\":8526:8593   */\n      tag_116\n      jump\t// in\n    tag_208:\n        /* \"#utility.yul\":8519:8593   */\n      swap2\n      pop\n        /* \"#utility.yul\":8602:8695   */\n      tag_209\n        /* \"#utility.yul\":8691:8694   */\n      dup3\n        /* \"#utility.yul\":8602:8695   */\n      tag_124\n      jump\t// in\n    tag_209:\n        /* \"#utility.yul\":8720:8722   */\n      0x20\n        /* \"#utility.yul\":8715:8718   */\n      dup3\n        /* \"#utility.yul\":8711:8723   */\n      add\n        /* \"#utility.yul\":8704:8723   */\n      swap1\n      pop\n        /* \"#utility.yul\":8363:8729   */\n      swap2\n      swap1\n      pop\n      jump\t// out\n        /* \"#utility.yul\":8735:9154   */\n    tag_76:\n        /* \"#utility.yul\":8901:8905   */\n      0x00\n        /* \"#utility.yul\":8939:8941   */\n      0x20\n        /* \"#utility.yul\":8928:8937   */\n      dup3\n        /* \"#utility.yul\":8924:8942   */\n      add\n        /* \"#utility.yul\":8916:8942   */\n      swap1\n      pop\n        /* \"#utility.yul\":8988:8997   */\n      dup2\n        /* \"#utility.yul\":8982:8986   */\n      dup2\n        /* \"#utility.yul\":8978:8998   */\n      sub\n        /* \"#utility.yul\":8974:8975   */\n      0x00\n        /* \"#utility.yul\":8963:8972   */\n      dup4\n        /* \"#utility.yul\":8959:8976   */\n      add\n        /* \"#utility.yul\":8952:8999   */\n      mstore\n        /* \"#utility.yul\":9016:9147   */\n      tag_211\n        /* \"#utility.yul\":9142:9146   */\n      dup2\n        /* \"#utility.yul\":9016:9147   */\n      tag_125\n      jump\t// in\n    tag_211:\n        /* \"#utility.yul\":9008:9147   */\n      swap1\n      pop\n        /* \"#utility.yul\":8735:9154   */\n      swap2\n      swap1\n      pop\n      jump\t// out\n        /* \"#utility.yul\":9160:9351   */\n    tag_79:\n        /* \"#utility.yul\":9200:9203   */\n      0x00\n        /* \"#utility.yul\":9219:9239   */\n      tag_213\n        /* \"#utility.yul\":9237:9238   */\n      dup3\n        /* \"#utility.yul\":9219:9239   */\n      tag_107\n      jump\t// in\n    tag_213:\n        /* \"#utility.yul\":9214:9239   */\n      swap2\n      pop\n        /* \"#utility.yul\":9253:9273   */\n      tag_214\n        /* \"#utility.yul\":9271:9272   */\n      dup4\n        /* \"#utility.yul\":9253:9273   */\n      tag_107\n      jump\t// in\n    tag_214:\n        /* \"#utility.yul\":9248:9273   */\n      swap3\n      pop\n        /* \"#utility.yul\":9296:9297   */\n      dup3\n        /* \"#utility.yul\":9293:9294   */\n      dup3\n        /* \"#utility.yul\":9289:9298   */\n      add\n        /* \"#utility.yul\":9282:9298   */\n      swap1\n      pop\n        /* \"#utility.yul\":9317:9320   */\n      dup1\n        /* \"#utility.yul\":9314:9315   */\n      dup3\n        /* \"#utility.yul\":9311:9321   */\n      gt\n        /* \"#utility.yul\":9308:9344   */\n      iszero\n      tag_215\n      jumpi\n        /* \"#utility.yul\":9324:9342   */\n      tag_216\n      tag_119\n      jump\t// in\n    tag_216:\n        /* \"#utility.yul\":9308:9344   */\n    tag_215:\n        /* \"#utility.yul\":9160:9351   */\n      swap3\n      swap2\n      pop\n      pop\n      jump\t// out\n        /* \"#utility.yul\":9357:10021   */\n    tag_83:\n        /* \"#utility.yul\":9562:9566   */\n      0x00\n        /* \"#utility.yul\":9600:9603   */\n      0xa0\n        /* \"#utility.yul\":9589:9598   */\n      dup3\n        /* \"#utility.yul\":9585:9604   */\n      add\n        /* \"#utility.yul\":9577:9604   */\n      swap1\n      pop\n        /* \"#utility.yul\":9614:9685   */\n      tag_218\n        /* \"#utility.yul\":9682:9683   */\n      0x00\n        /* \"#utility.yul\":9671:9680   */\n      dup4\n        /* \"#utility.yul\":9667:9684   */\n      add\n        /* \"#utility.yul\":9658:9664   */\n      dup9\n        /* \"#utility.yul\":9614:9685   */\n      tag_110\n      jump\t// in\n    tag_218:\n        /* \"#utility.yul\":9695:9767   */\n      tag_219\n        /* \"#utility.yul\":9763:9765   */\n      0x20\n        /* \"#utility.yul\":9752:9761   */\n      dup4\n        /* \"#utility.yul\":9748:9766   */\n      add\n        /* \"#utility.yul\":9739:9745   */\n      dup8\n        /* \"#utility.yul\":9695:9767   */\n      tag_110\n      jump\t// in\n    tag_219:\n        /* \"#utility.yul\":9777:9849   */\n      tag_220\n        /* \"#utility.yul\":9845:9847   */\n      0x40\n        /* \"#utility.yul\":9834:9843   */\n      dup4\n        /* \"#utility.yul\":9830:9848   */\n      add\n        /* \"#utility.yul\":9821:9827   */\n      dup7\n        /* \"#utility.yul\":9777:9849   */\n      tag_113\n      jump\t// in\n    tag_220:\n        /* \"#utility.yul\":9859:9931   */\n      tag_221\n        /* \"#utility.yul\":9927:9929   */\n      0x60\n        /* \"#utility.yul\":9916:9925   */\n      dup4\n        /* \"#utility.yul\":9912:9930   */\n      add\n        /* \"#utility.yul\":9903:9909   */\n      dup6\n        /* \"#utility.yul\":9859:9931   */\n      tag_110\n      jump\t// in\n    tag_221:\n        /* \"#utility.yul\":9941:10014   */\n      tag_222\n        /* \"#utility.yul\":10009:10012   */\n      0x80\n        /* \"#utility.yul\":9998:10007   */\n      dup4\n        /* \"#utility.yul\":9994:10013   */\n      add\n        /* \"#utility.yul\":9985:9991   */\n      dup5\n        /* \"#utility.yul\":9941:10014   */\n      tag_110\n      jump\t// in\n    tag_222:\n        /* \"#utility.yul\":9357:10021   */\n      swap7\n      swap6\n      pop\n      pop\n      pop\n      pop\n      pop\n      pop\n      jump\t// out\n\n    auxdata: 0xa26469706673582212208e0a9d2af15bd787c53faf6d58d28bba4c20769e48254b53ef9cd47bcf5bc46d64736f6c63430008120033\n}\n",
				"bytecode": {
					"linkReferences": {},
					"object": "60806040526000600255600060035534801561001a57600080fd5b5033600460006101000a81548173ffffffffffffffffffffffffffffffffffffffff021916908373ffffffffffffffffffffffffffffffffffffffff160217905550610efa8061006b6000396000f3fe6080604052600436106100865760003560e01c80638da5cb5b116100595780638da5cb5b1461014f578063a5a48e841461017a578063c0d8774b14610191578063c4d1b347146101ba578063f5defcd3146101e557610086565b8063067cf8321461008b578063182d8de5146100cb578063658db3e514610108578063868def0414610133575b600080fd5b34801561009757600080fd5b506100b260048036038101906100ad91906109b6565b610224565b6040516100c29493929190610a33565b60405180910390f35b3480156100d757600080fd5b506100f260048036038101906100ed91906109b6565b610274565b6040516100ff9190610a78565b60405180910390f35b34801561011457600080fd5b5061011d6103da565b60405161012a9190610a78565b60405180910390f35b61014d60048036038101906101489190610a93565b6103e0565b005b34801561015b57600080fd5b506101646106b9565b6040516101719190610ad3565b60405180910390f35b34801561018657600080fd5b5061018f6106df565b005b34801561019d57600080fd5b506101b860048036038101906101b39190610a93565b610813565b005b3480156101c657600080fd5b506101cf61093e565b6040516101dc9190610a78565b60405180910390f35b3480156101f157600080fd5b5061020c600480360381019061020791906109b6565b610944565b60405161021b93929190610b09565b60405180910390f35b60016020528060005260406000206000915090508060000154908060010160009054906101000a900473ffffffffffffffffffffffffffffffffffffffff16908060020154908060030154905084565b6000600460009054906101000a900473ffffffffffffffffffffffffffffffffffffffff1673ffffffffffffffffffffffffffffffffffffffff163373ffffffffffffffffffffffffffffffffffffffff1614610306576040517f08c379a00000000000000000000000000000000000000000000000000000000081526004016102fd90610bc3565b60405180910390fd5b604051806060016040528060025481526020016001151581526020018381525060008060025481526020019081526020016000206000820151816000015560208201518160010160006101000a81548160ff021916908315150217905550604082015181600201559050507ff75d109f18e4f7bd4ba898340a13e16a7b3ad2860a84e35165f3564fbd642a8b600254836040516103a4929190610be3565b60405180910390a1600260008154809291906103bf90610c3b565b919050555060016002546103d39190610c83565b9050919050565b60025481565b6002548210610424576040517f08c379a000000000000000000000000000000000000000000000000000000000815260040161041b90610d03565b60405180910390fd5b60008083815260200190815260200160002060010160009054906101000a900460ff16610486576040517f08c379a000000000000000000000000000000000000000000000000000000000815260040161047d90610d6f565b60405180910390fd5b600081600080858152602001908152602001600020600201546104a99190610d8f565b9050803410156104ee576040517f08c379a00000000000000000000000000000000000000000000000000000000081526004016104e590610e1d565b60405180910390fd5b60405180608001604052808481526020013373ffffffffffffffffffffffffffffffffffffffff168152602001428152602001610e108461052f9190610d8f565b4261053a9190610e3d565b8152506001600060035481526020019081526020016000206000820151816000015560208201518160010160006101000a81548173ffffffffffffffffffffffffffffffffffffffff021916908373ffffffffffffffffffffffffffffffffffffffff1602179055506040820151816002015560608201518160030155905050600080600085815260200190815260200160002060010160006101000a81548160ff0219169083151502179055507f72ecd7f7851d99362881875ab1be61b520cafd001460ee107307408aa0ffbc58600354843342610e108761061d9190610d8f565b426106289190610e3d565b604051610639959493929190610e71565b60405180910390a16003600081548092919061065490610c3b565b9190505550803411156106b4573373ffffffffffffffffffffffffffffffffffffffff166108fc82346106879190610c83565b9081150290604051600060405180830381858888f193505050501580156106b2573d6000803e3d6000fd5b505b505050565b600460009054906101000a900473ffffffffffffffffffffffffffffffffffffffff1681565b6000805b6003548110156107f6576000600160008381526020019081526020016000209050806003015442106107e257600081600001549050600160008083815260200190815260200160002060010160006101000a81548160ff0219169083151502179055507f81a9339e192f17a2544892f6f54b4b2c4d16184d3ac5cbcd45146fe360d753af836040516107759190610a78565b60405180910390a1600160008481526020019081526020016000206000808201600090556001820160006101000a81549073ffffffffffffffffffffffffffffffffffffffff021916905560028201600090556003820160009055505083806107dd90610c3b565b945050505b5080806107ee90610c3b565b9150506106e3565b5080600360008282546108099190610c83565b9250508190555050565b600460009054906101000a900473ffffffffffffffffffffffffffffffffffffffff1673ffffffffffffffffffffffffffffffffffffffff163373ffffffffffffffffffffffffffffffffffffffff16146108a3576040517f08c379a000000000000000000000000000000000000000000000000000000000815260040161089a90610bc3565b60405180910390fd5b60025482106108e7576040517f08c379a00000000000000000000000000000000000000000000000000000000081526004016108de90610d03565b60405180910390fd5b80600080848152602001908152602001600020600201819055507fda4e74bbf57aae4d09379d2ffdb6e596f1760a1cd5623421e5f1dd6e05afc6558282604051610932929190610be3565b60405180910390a15050565b60035481565b60006020528060005260406000206000915090508060000154908060010160009054906101000a900460ff16908060020154905083565b600080fd5b6000819050919050565b61099381610980565b811461099e57600080fd5b50565b6000813590506109b08161098a565b92915050565b6000602082840312156109cc576109cb61097b565b5b60006109da848285016109a1565b91505092915050565b6109ec81610980565b82525050565b600073ffffffffffffffffffffffffffffffffffffffff82169050919050565b6000610a1d826109f2565b9050919050565b610a2d81610a12565b82525050565b6000608082019050610a4860008301876109e3565b610a556020830186610a24565b610a6260408301856109e3565b610a6f60608301846109e3565b95945050505050565b6000602082019050610a8d60008301846109e3565b92915050565b60008060408385031215610aaa57610aa961097b565b5b6000610ab8858286016109a1565b9250506020610ac9858286016109a1565b9150509250929050565b6000602082019050610ae86000830184610a24565b92915050565b60008115159050919050565b610b0381610aee565b82525050565b6000606082019050610b1e60008301866109e3565b610b2b6020830185610afa565b610b3860408301846109e3565b949350505050565b600082825260208201905092915050565b7f4f6e6c7920616e206f776e65722063616e20616363657373207468697320667560008201527f6e6374696f6e0000000000000000000000000000000000000000000000000000602082015250565b6000610bad602683610b40565b9150610bb882610b51565b604082019050919050565b60006020820190508181036000830152610bdc81610ba0565b9050919050565b6000604082019050610bf860008301856109e3565b610c0560208301846109e3565b9392505050565b7f4e487b7100000000000000000000000000000000000000000000000000000000600052601160045260246000fd5b6000610c4682610980565b91507fffffffffffffffffffffffffffffffffffffffffffffffffffffffffffffffff8203610c7857610c77610c0c565b5b600182019050919050565b6000610c8e82610980565b9150610c9983610980565b9250828203905081811115610cb157610cb0610c0c565b5b92915050565b7f496e76616c6964207061726b696e672073706f74204944000000000000000000600082015250565b6000610ced601783610b40565b9150610cf882610cb7565b602082019050919050565b60006020820190508181036000830152610d1c81610ce0565b9050919050565b7f5061726b696e672073706f74206973206e6f7420617661696c61626c65000000600082015250565b6000610d59601d83610b40565b9150610d6482610d23565b602082019050919050565b60006020820190508181036000830152610d8881610d4c565b9050919050565b6000610d9a82610980565b9150610da583610980565b9250828202610db381610980565b91508282048414831517610dca57610dc9610c0c565b5b5092915050565b7f496e73756666696369656e742066756e64730000000000000000000000000000600082015250565b6000610e07601283610b40565b9150610e1282610dd1565b602082019050919050565b60006020820190508181036000830152610e3681610dfa565b9050919050565b6000610e4882610980565b9150610e5383610980565b9250828201905080821115610e6b57610e6a610c0c565b5b92915050565b600060a082019050610e8660008301886109e3565b610e9360208301876109e3565b610ea06040830186610a24565b610ead60608301856109e3565b610eba60808301846109e3565b969550505050505056fea26469706673582212208e0a9d2af15bd787c53faf6d58d28bba4c20769e48254b53ef9cd47bcf5bc46d64736f6c63430008120033",
					"opcodes": "PUSH1 0x80 PUSH1 0x40 MSTORE PUSH1 0x0 PUSH1 0x2 SSTORE PUSH1 0x0 PUSH1 0x3 SSTORE CALLVALUE DUP1 ISZERO PUSH2 0x1A JUMPI PUSH1 0x0 DUP1 REVERT JUMPDEST POP CALLER PUSH1 0x4 PUSH1 0x0 PUSH2 0x100 EXP DUP2 SLOAD DUP2 PUSH20 0xFFFFFFFFFFFFFFFFFFFFFFFFFFFFFFFFFFFFFFFF MUL NOT AND SWAP1 DUP4 PUSH20 0xFFFFFFFFFFFFFFFFFFFFFFFFFFFFFFFFFFFFFFFF AND MUL OR SWAP1 SSTORE POP PUSH2 0xEFA DUP1 PUSH2 0x6B PUSH1 0x0 CODECOPY PUSH1 0x0 RETURN INVALID PUSH1 0x80 PUSH1 0x40 MSTORE PUSH1 0x4 CALLDATASIZE LT PUSH2 0x86 JUMPI PUSH1 0x0 CALLDATALOAD PUSH1 0xE0 SHR DUP1 PUSH4 0x8DA5CB5B GT PUSH2 0x59 JUMPI DUP1 PUSH4 0x8DA5CB5B EQ PUSH2 0x14F JUMPI DUP1 PUSH4 0xA5A48E84 EQ PUSH2 0x17A JUMPI DUP1 PUSH4 0xC0D8774B EQ PUSH2 0x191 JUMPI DUP1 PUSH4 0xC4D1B347 EQ PUSH2 0x1BA JUMPI DUP1 PUSH4 0xF5DEFCD3 EQ PUSH2 0x1E5 JUMPI PUSH2 0x86 JUMP JUMPDEST DUP1 PUSH4 0x67CF832 EQ PUSH2 0x8B JUMPI DUP1 PUSH4 0x182D8DE5 EQ PUSH2 0xCB JUMPI DUP1 PUSH4 0x658DB3E5 EQ PUSH2 0x108 JUMPI DUP1 PUSH4 0x868DEF04 EQ PUSH2 0x133 JUMPI JUMPDEST PUSH1 0x0 DUP1 REVERT JUMPDEST CALLVALUE DUP1 ISZERO PUSH2 0x97 JUMPI PUSH1 0x0 DUP1 REVERT JUMPDEST POP PUSH2 0xB2 PUSH1 0x4 DUP1 CALLDATASIZE SUB DUP2 ADD SWAP1 PUSH2 0xAD SWAP2 SWAP1 PUSH2 0x9B6 JUMP JUMPDEST PUSH2 0x224 JUMP JUMPDEST PUSH1 0x40 MLOAD PUSH2 0xC2 SWAP5 SWAP4 SWAP3 SWAP2 SWAP1 PUSH2 0xA33 JUMP JUMPDEST PUSH1 0x40 MLOAD DUP1 SWAP2 SUB SWAP1 RETURN JUMPDEST CALLVALUE DUP1 ISZERO PUSH2 0xD7 JUMPI PUSH1 0x0 DUP1 REVERT JUMPDEST POP PUSH2 0xF2 PUSH1 0x4 DUP1 CALLDATASIZE SUB DUP2 ADD SWAP1 PUSH2 0xED SWAP2 SWAP1 PUSH2 0x9B6 JUMP JUMPDEST PUSH2 0x274 JUMP JUMPDEST PUSH1 0x40 MLOAD PUSH2 0xFF SWAP2 SWAP1 PUSH2 0xA78 JUMP JUMPDEST PUSH1 0x40 MLOAD DUP1 SWAP2 SUB SWAP1 RETURN JUMPDEST CALLVALUE DUP1 ISZERO PUSH2 0x114 JUMPI PUSH1 0x0 DUP1 REVERT JUMPDEST POP PUSH2 0x11D PUSH2 0x3DA JUMP JUMPDEST PUSH1 0x40 MLOAD PUSH2 0x12A SWAP2 SWAP1 PUSH2 0xA78 JUMP JUMPDEST PUSH1 0x40 MLOAD DUP1 SWAP2 SUB SWAP1 RETURN JUMPDEST PUSH2 0x14D PUSH1 0x4 DUP1 CALLDATASIZE SUB DUP2 ADD SWAP1 PUSH2 0x148 SWAP2 SWAP1 PUSH2 0xA93 JUMP JUMPDEST PUSH2 0x3E0 JUMP JUMPDEST STOP JUMPDEST CALLVALUE DUP1 ISZERO PUSH2 0x15B JUMPI PUSH1 0x0 DUP1 REVERT JUMPDEST POP PUSH2 0x164 PUSH2 0x6B9 JUMP JUMPDEST PUSH1 0x40 MLOAD PUSH2 0x171 SWAP2 SWAP1 PUSH2 0xAD3 JUMP JUMPDEST PUSH1 0x40 MLOAD DUP1 SWAP2 SUB SWAP1 RETURN JUMPDEST CALLVALUE DUP1 ISZERO PUSH2 0x186 JUMPI PUSH1 0x0 DUP1 REVERT JUMPDEST POP PUSH2 0x18F PUSH2 0x6DF JUMP JUMPDEST STOP JUMPDEST CALLVALUE DUP1 ISZERO PUSH2 0x19D JUMPI PUSH1 0x0 DUP1 REVERT JUMPDEST POP PUSH2 0x1B8 PUSH1 0x4 DUP1 CALLDATASIZE SUB DUP2 ADD SWAP1 PUSH2 0x1B3 SWAP2 SWAP1 PUSH2 0xA93 JUMP JUMPDEST PUSH2 0x813 JUMP JUMPDEST STOP JUMPDEST CALLVALUE DUP1 ISZERO PUSH2 0x1C6 JUMPI PUSH1 0x0 DUP1 REVERT JUMPDEST POP PUSH2 0x1CF PUSH2 0x93E JUMP JUMPDEST PUSH1 0x40 MLOAD PUSH2 0x1DC SWAP2 SWAP1 PUSH2 0xA78 JUMP JUMPDEST PUSH1 0x40 MLOAD DUP1 SWAP2 SUB SWAP1 RETURN JUMPDEST CALLVALUE DUP1 ISZERO PUSH2 0x1F1 JUMPI PUSH1 0x0 DUP1 REVERT JUMPDEST POP PUSH2 0x20C PUSH1 0x4 DUP1 CALLDATASIZE SUB DUP2 ADD SWAP1 PUSH2 0x207 SWAP2 SWAP1 PUSH2 0x9B6 JUMP JUMPDEST PUSH2 0x944 JUMP JUMPDEST PUSH1 0x40 MLOAD PUSH2 0x21B SWAP4 SWAP3 SWAP2 SWAP1 PUSH2 0xB09 JUMP JUMPDEST PUSH1 0x40 MLOAD DUP1 SWAP2 SUB SWAP1 RETURN JUMPDEST PUSH1 0x1 PUSH1 0x20 MSTORE DUP1 PUSH1 0x0 MSTORE PUSH1 0x40 PUSH1 0x0 KECCAK256 PUSH1 0x0 SWAP2 POP SWAP1 POP DUP1 PUSH1 0x0 ADD SLOAD SWAP1 DUP1 PUSH1 0x1 ADD PUSH1 0x0 SWAP1 SLOAD SWAP1 PUSH2 0x100 EXP SWAP1 DIV PUSH20 0xFFFFFFFFFFFFFFFFFFFFFFFFFFFFFFFFFFFFFFFF AND SWAP1 DUP1 PUSH1 0x2 ADD SLOAD SWAP1 DUP1 PUSH1 0x3 ADD SLOAD SWAP1 POP DUP5 JUMP JUMPDEST PUSH1 0x0 PUSH1 0x4 PUSH1 0x0 SWAP1 SLOAD SWAP1 PUSH2 0x100 EXP SWAP1 DIV PUSH20 0xFFFFFFFFFFFFFFFFFFFFFFFFFFFFFFFFFFFFFFFF AND PUSH20 0xFFFFFFFFFFFFFFFFFFFFFFFFFFFFFFFFFFFFFFFF AND CALLER PUSH20 0xFFFFFFFFFFFFFFFFFFFFFFFFFFFFFFFFFFFFFFFF AND EQ PUSH2 0x306 JUMPI PUSH1 0x40 MLOAD PUSH32 0x8C379A000000000000000000000000000000000000000000000000000000000 DUP2 MSTORE PUSH1 0x4 ADD PUSH2 0x2FD SWAP1 PUSH2 0xBC3 JUMP JUMPDEST PUSH1 0x40 MLOAD DUP1 SWAP2 SUB SWAP1 REVERT JUMPDEST PUSH1 0x40 MLOAD DUP1 PUSH1 0x60 ADD PUSH1 0x40 MSTORE DUP1 PUSH1 0x2 SLOAD DUP2 MSTORE PUSH1 0x20 ADD PUSH1 0x1 ISZERO ISZERO DUP2 MSTORE PUSH1 0x20 ADD DUP4 DUP2 MSTORE POP PUSH1 0x0 DUP1 PUSH1 0x2 SLOAD DUP2 MSTORE PUSH1 0x20 ADD SWAP1 DUP2 MSTORE PUSH1 0x20 ADD PUSH1 0x0 KECCAK256 PUSH1 0x0 DUP3 ADD MLOAD DUP2 PUSH1 0x0 ADD SSTORE PUSH1 0x20 DUP3 ADD MLOAD DUP2 PUSH1 0x1 ADD PUSH1 0x0 PUSH2 0x100 EXP DUP2 SLOAD DUP2 PUSH1 0xFF MUL NOT AND SWAP1 DUP4 ISZERO ISZERO MUL OR SWAP1 SSTORE POP PUSH1 0x40 DUP3 ADD MLOAD DUP2 PUSH1 0x2 ADD SSTORE SWAP1 POP POP PUSH32 0xF75D109F18E4F7BD4BA898340A13E16A7B3AD2860A84E35165F3564FBD642A8B PUSH1 0x2 SLOAD DUP4 PUSH1 0x40 MLOAD PUSH2 0x3A4 SWAP3 SWAP2 SWAP1 PUSH2 0xBE3 JUMP JUMPDEST PUSH1 0x40 MLOAD DUP1 SWAP2 SUB SWAP1 LOG1 PUSH1 0x2 PUSH1 0x0 DUP2 SLOAD DUP1 SWAP3 SWAP2 SWAP1 PUSH2 0x3BF SWAP1 PUSH2 0xC3B JUMP JUMPDEST SWAP2 SWAP1 POP SSTORE POP PUSH1 0x1 PUSH1 0x2 SLOAD PUSH2 0x3D3 SWAP2 SWAP1 PUSH2 0xC83 JUMP JUMPDEST SWAP1 POP SWAP2 SWAP1 POP JUMP JUMPDEST PUSH1 0x2 SLOAD DUP2 JUMP JUMPDEST PUSH1 0x2 SLOAD DUP3 LT PUSH2 0x424 JUMPI PUSH1 0x40 MLOAD PUSH32 0x8C379A000000000000000000000000000000000000000000000000000000000 DUP2 MSTORE PUSH1 0x4 ADD PUSH2 0x41B SWAP1 PUSH2 0xD03 JUMP JUMPDEST PUSH1 0x40 MLOAD DUP1 SWAP2 SUB SWAP1 REVERT JUMPDEST PUSH1 0x0 DUP1 DUP4 DUP2 MSTORE PUSH1 0x20 ADD SWAP1 DUP2 MSTORE PUSH1 0x20 ADD PUSH1 0x0 KECCAK256 PUSH1 0x1 ADD PUSH1 0x0 SWAP1 SLOAD SWAP1 PUSH2 0x100 EXP SWAP1 DIV PUSH1 0xFF AND PUSH2 0x486 JUMPI PUSH1 0x40 MLOAD PUSH32 0x8C379A000000000000000000000000000000000000000000000000000000000 DUP2 MSTORE PUSH1 0x4 ADD PUSH2 0x47D SWAP1 PUSH2 0xD6F JUMP JUMPDEST PUSH1 0x40 MLOAD DUP1 SWAP2 SUB SWAP1 REVERT JUMPDEST PUSH1 0x0 DUP2 PUSH1 0x0 DUP1 DUP6 DUP2 MSTORE PUSH1 0x20 ADD SWAP1 DUP2 MSTORE PUSH1 0x20 ADD PUSH1 0x0 KECCAK256 PUSH1 0x2 ADD SLOAD PUSH2 0x4A9 SWAP2 SWAP1 PUSH2 0xD8F JUMP JUMPDEST SWAP1 POP DUP1 CALLVALUE LT ISZERO PUSH2 0x4EE JUMPI PUSH1 0x40 MLOAD PUSH32 0x8C379A000000000000000000000000000000000000000000000000000000000 DUP2 MSTORE PUSH1 0x4 ADD PUSH2 0x4E5 SWAP1 PUSH2 0xE1D JUMP JUMPDEST PUSH1 0x40 MLOAD DUP1 SWAP2 SUB SWAP1 REVERT JUMPDEST PUSH1 0x40 MLOAD DUP1 PUSH1 0x80 ADD PUSH1 0x40 MSTORE DUP1 DUP5 DUP2 MSTORE PUSH1 0x20 ADD CALLER PUSH20 0xFFFFFFFFFFFFFFFFFFFFFFFFFFFFFFFFFFFFFFFF AND DUP2 MSTORE PUSH1 0x20 ADD TIMESTAMP DUP2 MSTORE PUSH1 0x20 ADD PUSH2 0xE10 DUP5 PUSH2 0x52F SWAP2 SWAP1 PUSH2 0xD8F JUMP JUMPDEST TIMESTAMP PUSH2 0x53A SWAP2 SWAP1 PUSH2 0xE3D JUMP JUMPDEST DUP2 MSTORE POP PUSH1 0x1 PUSH1 0x0 PUSH1 0x3 SLOAD DUP2 MSTORE PUSH1 0x20 ADD SWAP1 DUP2 MSTORE PUSH1 0x20 ADD PUSH1 0x0 KECCAK256 PUSH1 0x0 DUP3 ADD MLOAD DUP2 PUSH1 0x0 ADD SSTORE PUSH1 0x20 DUP3 ADD MLOAD DUP2 PUSH1 0x1 ADD PUSH1 0x0 PUSH2 0x100 EXP DUP2 SLOAD DUP2 PUSH20 0xFFFFFFFFFFFFFFFFFFFFFFFFFFFFFFFFFFFFFFFF MUL NOT AND SWAP1 DUP4 PUSH20 0xFFFFFFFFFFFFFFFFFFFFFFFFFFFFFFFFFFFFFFFF AND MUL OR SWAP1 SSTORE POP PUSH1 0x40 DUP3 ADD MLOAD DUP2 PUSH1 0x2 ADD SSTORE PUSH1 0x60 DUP3 ADD MLOAD DUP2 PUSH1 0x3 ADD SSTORE SWAP1 POP POP PUSH1 0x0 DUP1 PUSH1 0x0 DUP6 DUP2 MSTORE PUSH1 0x20 ADD SWAP1 DUP2 MSTORE PUSH1 0x20 ADD PUSH1 0x0 KECCAK256 PUSH1 0x1 ADD PUSH1 0x0 PUSH2 0x100 EXP DUP2 SLOAD DUP2 PUSH1 0xFF MUL NOT AND SWAP1 DUP4 ISZERO ISZERO MUL OR SWAP1 SSTORE POP PUSH32 0x72ECD7F7851D99362881875AB1BE61B520CAFD001460EE107307408AA0FFBC58 PUSH1 0x3 SLOAD DUP5 CALLER TIMESTAMP PUSH2 0xE10 DUP8 PUSH2 0x61D SWAP2 SWAP1 PUSH2 0xD8F JUMP JUMPDEST TIMESTAMP PUSH2 0x628 SWAP2 SWAP1 PUSH2 0xE3D JUMP JUMPDEST PUSH1 0x40 MLOAD PUSH2 0x639 SWAP6 SWAP5 SWAP4 SWAP3 SWAP2 SWAP1 PUSH2 0xE71 JUMP JUMPDEST PUSH1 0x40 MLOAD DUP1 SWAP2 SUB SWAP1 LOG1 PUSH1 0x3 PUSH1 0x0 DUP2 SLOAD DUP1 SWAP3 SWAP2 SWAP1 PUSH2 0x654 SWAP1 PUSH2 0xC3B JUMP JUMPDEST SWAP2 SWAP1 POP SSTORE POP DUP1 CALLVALUE GT ISZERO PUSH2 0x6B4 JUMPI CALLER PUSH20 0xFFFFFFFFFFFFFFFFFFFFFFFFFFFFFFFFFFFFFFFF AND PUSH2 0x8FC DUP3 CALLVALUE PUSH2 0x687 SWAP2 SWAP1 PUSH2 0xC83 JUMP JUMPDEST SWAP1 DUP2 ISZERO MUL SWAP1 PUSH1 0x40 MLOAD PUSH1 0x0 PUSH1 0x40 MLOAD DUP1 DUP4 SUB DUP2 DUP6 DUP9 DUP9 CALL SWAP4 POP POP POP POP ISZERO DUP1 ISZERO PUSH2 0x6B2 JUMPI RETURNDATASIZE PUSH1 0x0 DUP1 RETURNDATACOPY RETURNDATASIZE PUSH1 0x0 REVERT JUMPDEST POP JUMPDEST POP POP POP JUMP JUMPDEST PUSH1 0x4 PUSH1 0x0 SWAP1 SLOAD SWAP1 PUSH2 0x100 EXP SWAP1 DIV PUSH20 0xFFFFFFFFFFFFFFFFFFFFFFFFFFFFFFFFFFFFFFFF AND DUP2 JUMP JUMPDEST PUSH1 0x0 DUP1 JUMPDEST PUSH1 0x3 SLOAD DUP2 LT ISZERO PUSH2 0x7F6 JUMPI PUSH1 0x0 PUSH1 0x1 PUSH1 0x0 DUP4 DUP2 MSTORE PUSH1 0x20 ADD SWAP1 DUP2 MSTORE PUSH1 0x20 ADD PUSH1 0x0 KECCAK256 SWAP1 POP DUP1 PUSH1 0x3 ADD SLOAD TIMESTAMP LT PUSH2 0x7E2 JUMPI PUSH1 0x0 DUP2 PUSH1 0x0 ADD SLOAD SWAP1 POP PUSH1 0x1 PUSH1 0x0 DUP1 DUP4 DUP2 MSTORE PUSH1 0x20 ADD SWAP1 DUP2 MSTORE PUSH1 0x20 ADD PUSH1 0x0 KECCAK256 PUSH1 0x1 ADD PUSH1 0x0 PUSH2 0x100 EXP DUP2 SLOAD DUP2 PUSH1 0xFF MUL NOT AND SWAP1 DUP4 ISZERO ISZERO MUL OR SWAP1 SSTORE POP PUSH32 0x81A9339E192F17A2544892F6F54B4B2C4D16184D3AC5CBCD45146FE360D753AF DUP4 PUSH1 0x40 MLOAD PUSH2 0x775 SWAP2 SWAP1 PUSH2 0xA78 JUMP JUMPDEST PUSH1 0x40 MLOAD DUP1 SWAP2 SUB SWAP1 LOG1 PUSH1 0x1 PUSH1 0x0 DUP5 DUP2 MSTORE PUSH1 0x20 ADD SWAP1 DUP2 MSTORE PUSH1 0x20 ADD PUSH1 0x0 KECCAK256 PUSH1 0x0 DUP1 DUP3 ADD PUSH1 0x0 SWAP1 SSTORE PUSH1 0x1 DUP3 ADD PUSH1 0x0 PUSH2 0x100 EXP DUP2 SLOAD SWAP1 PUSH20 0xFFFFFFFFFFFFFFFFFFFFFFFFFFFFFFFFFFFFFFFF MUL NOT AND SWAP1 SSTORE PUSH1 0x2 DUP3 ADD PUSH1 0x0 SWAP1 SSTORE PUSH1 0x3 DUP3 ADD PUSH1 0x0 SWAP1 SSTORE POP POP DUP4 DUP1 PUSH2 0x7DD SWAP1 PUSH2 0xC3B JUMP JUMPDEST SWAP5 POP POP POP JUMPDEST POP DUP1 DUP1 PUSH2 0x7EE SWAP1 PUSH2 0xC3B JUMP JUMPDEST SWAP2 POP POP PUSH2 0x6E3 JUMP JUMPDEST POP DUP1 PUSH1 0x3 PUSH1 0x0 DUP3 DUP3 SLOAD PUSH2 0x809 SWAP2 SWAP1 PUSH2 0xC83 JUMP JUMPDEST SWAP3 POP POP DUP2 SWAP1 SSTORE POP POP JUMP JUMPDEST PUSH1 0x4 PUSH1 0x0 SWAP1 SLOAD SWAP1 PUSH2 0x100 EXP SWAP1 DIV PUSH20 0xFFFFFFFFFFFFFFFFFFFFFFFFFFFFFFFFFFFFFFFF AND PUSH20 0xFFFFFFFFFFFFFFFFFFFFFFFFFFFFFFFFFFFFFFFF AND CALLER PUSH20 0xFFFFFFFFFFFFFFFFFFFFFFFFFFFFFFFFFFFFFFFF AND EQ PUSH2 0x8A3 JUMPI PUSH1 0x40 MLOAD PUSH32 0x8C379A000000000000000000000000000000000000000000000000000000000 DUP2 MSTORE PUSH1 0x4 ADD PUSH2 0x89A SWAP1 PUSH2 0xBC3 JUMP JUMPDEST PUSH1 0x40 MLOAD DUP1 SWAP2 SUB SWAP1 REVERT JUMPDEST PUSH1 0x2 SLOAD DUP3 LT PUSH2 0x8E7 JUMPI PUSH1 0x40 MLOAD PUSH32 0x8C379A000000000000000000000000000000000000000000000000000000000 DUP2 MSTORE PUSH1 0x4 ADD PUSH2 0x8DE SWAP1 PUSH2 0xD03 JUMP JUMPDEST PUSH1 0x40 MLOAD DUP1 SWAP2 SUB SWAP1 REVERT JUMPDEST DUP1 PUSH1 0x0 DUP1 DUP5 DUP2 MSTORE PUSH1 0x20 ADD SWAP1 DUP2 MSTORE PUSH1 0x20 ADD PUSH1 0x0 KECCAK256 PUSH1 0x2 ADD DUP2 SWAP1 SSTORE POP PUSH32 0xDA4E74BBF57AAE4D09379D2FFDB6E596F1760A1CD5623421E5F1DD6E05AFC655 DUP3 DUP3 PUSH1 0x40 MLOAD PUSH2 0x932 SWAP3 SWAP2 SWAP1 PUSH2 0xBE3 JUMP JUMPDEST PUSH1 0x40 MLOAD DUP1 SWAP2 SUB SWAP1 LOG1 POP POP JUMP JUMPDEST PUSH1 0x3 SLOAD DUP2 JUMP JUMPDEST PUSH1 0x0 PUSH1 0x20 MSTORE DUP1 PUSH1 0x0 MSTORE PUSH1 0x40 PUSH1 0x0 KECCAK256 PUSH1 0x0 SWAP2 POP SWAP1 POP DUP1 PUSH1 0x0 ADD SLOAD SWAP1 DUP1 PUSH1 0x1 ADD PUSH1 0x0 SWAP1 SLOAD SWAP1 PUSH2 0x100 EXP SWAP1 DIV PUSH1 0xFF AND SWAP1 DUP1 PUSH1 0x2 ADD SLOAD SWAP1 POP DUP4 JUMP JUMPDEST PUSH1 0x0 DUP1 REVERT JUMPDEST PUSH1 0x0 DUP2 SWAP1 POP SWAP2 SWAP1 POP JUMP JUMPDEST PUSH2 0x993 DUP2 PUSH2 0x980 JUMP JUMPDEST DUP2 EQ PUSH2 0x99E JUMPI PUSH1 0x0 DUP1 REVERT JUMPDEST POP JUMP JUMPDEST PUSH1 0x0 DUP2 CALLDATALOAD SWAP1 POP PUSH2 0x9B0 DUP2 PUSH2 0x98A JUMP JUMPDEST SWAP3 SWAP2 POP POP JUMP JUMPDEST PUSH1 0x0 PUSH1 0x20 DUP3 DUP5 SUB SLT ISZERO PUSH2 0x9CC JUMPI PUSH2 0x9CB PUSH2 0x97B JUMP JUMPDEST JUMPDEST PUSH1 0x0 PUSH2 0x9DA DUP5 DUP3 DUP6 ADD PUSH2 0x9A1 JUMP JUMPDEST SWAP2 POP POP SWAP3 SWAP2 POP POP JUMP JUMPDEST PUSH2 0x9EC DUP2 PUSH2 0x980 JUMP JUMPDEST DUP3 MSTORE POP POP JUMP JUMPDEST PUSH1 0x0 PUSH20 0xFFFFFFFFFFFFFFFFFFFFFFFFFFFFFFFFFFFFFFFF DUP3 AND SWAP1 POP SWAP2 SWAP1 POP JUMP JUMPDEST PUSH1 0x0 PUSH2 0xA1D DUP3 PUSH2 0x9F2 JUMP JUMPDEST SWAP1 POP SWAP2 SWAP1 POP JUMP JUMPDEST PUSH2 0xA2D DUP2 PUSH2 0xA12 JUMP JUMPDEST DUP3 MSTORE POP POP JUMP JUMPDEST PUSH1 0x0 PUSH1 0x80 DUP3 ADD SWAP1 POP PUSH2 0xA48 PUSH1 0x0 DUP4 ADD DUP8 PUSH2 0x9E3 JUMP JUMPDEST PUSH2 0xA55 PUSH1 0x20 DUP4 ADD DUP7 PUSH2 0xA24 JUMP JUMPDEST PUSH2 0xA62 PUSH1 0x40 DUP4 ADD DUP6 PUSH2 0x9E3 JUMP JUMPDEST PUSH2 0xA6F PUSH1 0x60 DUP4 ADD DUP5 PUSH2 0x9E3 JUMP JUMPDEST SWAP6 SWAP5 POP POP POP POP POP JUMP JUMPDEST PUSH1 0x0 PUSH1 0x20 DUP3 ADD SWAP1 POP PUSH2 0xA8D PUSH1 0x0 DUP4 ADD DUP5 PUSH2 0x9E3 JUMP JUMPDEST SWAP3 SWAP2 POP POP JUMP JUMPDEST PUSH1 0x0 DUP1 PUSH1 0x40 DUP4 DUP6 SUB SLT ISZERO PUSH2 0xAAA JUMPI PUSH2 0xAA9 PUSH2 0x97B JUMP JUMPDEST JUMPDEST PUSH1 0x0 PUSH2 0xAB8 DUP6 DUP3 DUP7 ADD PUSH2 0x9A1 JUMP JUMPDEST SWAP3 POP POP PUSH1 0x20 PUSH2 0xAC9 DUP6 DUP3 DUP7 ADD PUSH2 0x9A1 JUMP JUMPDEST SWAP2 POP POP SWAP3 POP SWAP3 SWAP1 POP JUMP JUMPDEST PUSH1 0x0 PUSH1 0x20 DUP3 ADD SWAP1 POP PUSH2 0xAE8 PUSH1 0x0 DUP4 ADD DUP5 PUSH2 0xA24 JUMP JUMPDEST SWAP3 SWAP2 POP POP JUMP JUMPDEST PUSH1 0x0 DUP2 ISZERO ISZERO SWAP1 POP SWAP2 SWAP1 POP JUMP JUMPDEST PUSH2 0xB03 DUP2 PUSH2 0xAEE JUMP JUMPDEST DUP3 MSTORE POP POP JUMP JUMPDEST PUSH1 0x0 PUSH1 0x60 DUP3 ADD SWAP1 POP PUSH2 0xB1E PUSH1 0x0 DUP4 ADD DUP7 PUSH2 0x9E3 JUMP JUMPDEST PUSH2 0xB2B PUSH1 0x20 DUP4 ADD DUP6 PUSH2 0xAFA JUMP JUMPDEST PUSH2 0xB38 PUSH1 0x40 DUP4 ADD DUP5 PUSH2 0x9E3 JUMP JUMPDEST SWAP5 SWAP4 POP POP POP POP JUMP JUMPDEST PUSH1 0x0 DUP3 DUP3 MSTORE PUSH1 0x20 DUP3 ADD SWAP1 POP SWAP3 SWAP2 POP POP JUMP JUMPDEST PUSH32 0x4F6E6C7920616E206F776E65722063616E206163636573732074686973206675 PUSH1 0x0 DUP3 ADD MSTORE PUSH32 0x6E6374696F6E0000000000000000000000000000000000000000000000000000 PUSH1 0x20 DUP3 ADD MSTORE POP JUMP JUMPDEST PUSH1 0x0 PUSH2 0xBAD PUSH1 0x26 DUP4 PUSH2 0xB40 JUMP JUMPDEST SWAP2 POP PUSH2 0xBB8 DUP3 PUSH2 0xB51 JUMP JUMPDEST PUSH1 0x40 DUP3 ADD SWAP1 POP SWAP2 SWAP1 POP JUMP JUMPDEST PUSH1 0x0 PUSH1 0x20 DUP3 ADD SWAP1 POP DUP2 DUP2 SUB PUSH1 0x0 DUP4 ADD MSTORE PUSH2 0xBDC DUP2 PUSH2 0xBA0 JUMP JUMPDEST SWAP1 POP SWAP2 SWAP1 POP JUMP JUMPDEST PUSH1 0x0 PUSH1 0x40 DUP3 ADD SWAP1 POP PUSH2 0xBF8 PUSH1 0x0 DUP4 ADD DUP6 PUSH2 0x9E3 JUMP JUMPDEST PUSH2 0xC05 PUSH1 0x20 DUP4 ADD DUP5 PUSH2 0x9E3 JUMP JUMPDEST SWAP4 SWAP3 POP POP POP JUMP JUMPDEST PUSH32 0x4E487B7100000000000000000000000000000000000000000000000000000000 PUSH1 0x0 MSTORE PUSH1 0x11 PUSH1 0x4 MSTORE PUSH1 0x24 PUSH1 0x0 REVERT JUMPDEST PUSH1 0x0 PUSH2 0xC46 DUP3 PUSH2 0x980 JUMP JUMPDEST SWAP2 POP PUSH32 0xFFFFFFFFFFFFFFFFFFFFFFFFFFFFFFFFFFFFFFFFFFFFFFFFFFFFFFFFFFFFFFFF DUP3 SUB PUSH2 0xC78 JUMPI PUSH2 0xC77 PUSH2 0xC0C JUMP JUMPDEST JUMPDEST PUSH1 0x1 DUP3 ADD SWAP1 POP SWAP2 SWAP1 POP JUMP JUMPDEST PUSH1 0x0 PUSH2 0xC8E DUP3 PUSH2 0x980 JUMP JUMPDEST SWAP2 POP PUSH2 0xC99 DUP4 PUSH2 0x980 JUMP JUMPDEST SWAP3 POP DUP3 DUP3 SUB SWAP1 POP DUP2 DUP2 GT ISZERO PUSH2 0xCB1 JUMPI PUSH2 0xCB0 PUSH2 0xC0C JUMP JUMPDEST JUMPDEST SWAP3 SWAP2 POP POP JUMP JUMPDEST PUSH32 0x496E76616C6964207061726B696E672073706F74204944000000000000000000 PUSH1 0x0 DUP3 ADD MSTORE POP JUMP JUMPDEST PUSH1 0x0 PUSH2 0xCED PUSH1 0x17 DUP4 PUSH2 0xB40 JUMP JUMPDEST SWAP2 POP PUSH2 0xCF8 DUP3 PUSH2 0xCB7 JUMP JUMPDEST PUSH1 0x20 DUP3 ADD SWAP1 POP SWAP2 SWAP1 POP JUMP JUMPDEST PUSH1 0x0 PUSH1 0x20 DUP3 ADD SWAP1 POP DUP2 DUP2 SUB PUSH1 0x0 DUP4 ADD MSTORE PUSH2 0xD1C DUP2 PUSH2 0xCE0 JUMP JUMPDEST SWAP1 POP SWAP2 SWAP1 POP JUMP JUMPDEST PUSH32 0x5061726B696E672073706F74206973206E6F7420617661696C61626C65000000 PUSH1 0x0 DUP3 ADD MSTORE POP JUMP JUMPDEST PUSH1 0x0 PUSH2 0xD59 PUSH1 0x1D DUP4 PUSH2 0xB40 JUMP JUMPDEST SWAP2 POP PUSH2 0xD64 DUP3 PUSH2 0xD23 JUMP JUMPDEST PUSH1 0x20 DUP3 ADD SWAP1 POP SWAP2 SWAP1 POP JUMP JUMPDEST PUSH1 0x0 PUSH1 0x20 DUP3 ADD SWAP1 POP DUP2 DUP2 SUB PUSH1 0x0 DUP4 ADD MSTORE PUSH2 0xD88 DUP2 PUSH2 0xD4C JUMP JUMPDEST SWAP1 POP SWAP2 SWAP1 POP JUMP JUMPDEST PUSH1 0x0 PUSH2 0xD9A DUP3 PUSH2 0x980 JUMP JUMPDEST SWAP2 POP PUSH2 0xDA5 DUP4 PUSH2 0x980 JUMP JUMPDEST SWAP3 POP DUP3 DUP3 MUL PUSH2 0xDB3 DUP2 PUSH2 0x980 JUMP JUMPDEST SWAP2 POP DUP3 DUP3 DIV DUP5 EQ DUP4 ISZERO OR PUSH2 0xDCA JUMPI PUSH2 0xDC9 PUSH2 0xC0C JUMP JUMPDEST JUMPDEST POP SWAP3 SWAP2 POP POP JUMP JUMPDEST PUSH32 0x496E73756666696369656E742066756E64730000000000000000000000000000 PUSH1 0x0 DUP3 ADD MSTORE POP JUMP JUMPDEST PUSH1 0x0 PUSH2 0xE07 PUSH1 0x12 DUP4 PUSH2 0xB40 JUMP JUMPDEST SWAP2 POP PUSH2 0xE12 DUP3 PUSH2 0xDD1 JUMP JUMPDEST PUSH1 0x20 DUP3 ADD SWAP1 POP SWAP2 SWAP1 POP JUMP JUMPDEST PUSH1 0x0 PUSH1 0x20 DUP3 ADD SWAP1 POP DUP2 DUP2 SUB PUSH1 0x0 DUP4 ADD MSTORE PUSH2 0xE36 DUP2 PUSH2 0xDFA JUMP JUMPDEST SWAP1 POP SWAP2 SWAP1 POP JUMP JUMPDEST PUSH1 0x0 PUSH2 0xE48 DUP3 PUSH2 0x980 JUMP JUMPDEST SWAP2 POP PUSH2 0xE53 DUP4 PUSH2 0x980 JUMP JUMPDEST SWAP3 POP DUP3 DUP3 ADD SWAP1 POP DUP1 DUP3 GT ISZERO PUSH2 0xE6B JUMPI PUSH2 0xE6A PUSH2 0xC0C JUMP JUMPDEST JUMPDEST SWAP3 SWAP2 POP POP JUMP JUMPDEST PUSH1 0x0 PUSH1 0xA0 DUP3 ADD SWAP1 POP PUSH2 0xE86 PUSH1 0x0 DUP4 ADD DUP9 PUSH2 0x9E3 JUMP JUMPDEST PUSH2 0xE93 PUSH1 0x20 DUP4 ADD DUP8 PUSH2 0x9E3 JUMP JUMPDEST PUSH2 0xEA0 PUSH1 0x40 DUP4 ADD DUP7 PUSH2 0xA24 JUMP JUMPDEST PUSH2 0xEAD PUSH1 0x60 DUP4 ADD DUP6 PUSH2 0x9E3 JUMP JUMPDEST PUSH2 0xEBA PUSH1 0x80 DUP4 ADD DUP5 PUSH2 0x9E3 JUMP JUMPDEST SWAP7 SWAP6 POP POP POP POP POP POP JUMP INVALID LOG2 PUSH5 0x6970667358 0x22 SLT KECCAK256 DUP15 EXP SWAP14 0x2A CALL JUMPDEST 0xD7 DUP8 0xC5 EXTCODEHASH 0xAF PUSH14 0x58D28BBA4C20769E48254B53EF9C 0xD4 PUSH28 0xCF5BC46D64736F6C6343000812003300000000000000000000000000 "
				},
				"gasEstimates": {
					"creation": {
						"codeDepositCost": "766800",
						"executionCost": "35077",
						"totalCost": "801877"
					},
					"external": {
						"addParkingSpot(uint256)": "infinite",
						"freeUpExpiredSpots()": "infinite",
						"owner()": "2514",
						"parkingSpots(uint256)": "infinite",
						"parkingSpotsCount()": "2474",
						"reservations(uint256)": "infinite",
						"reservationsCount()": "2495",
						"reserveSpot(uint256,uint256)": "infinite",
						"updateParkingSpot(uint256,uint256)": "infinite"
					}
				},
				"methodIdentifiers": {
					"addParkingSpot(uint256)": "182d8de5",
					"freeUpExpiredSpots()": "a5a48e84",
					"owner()": "8da5cb5b",
					"parkingSpots(uint256)": "f5defcd3",
					"parkingSpotsCount()": "658db3e5",
					"reservations(uint256)": "067cf832",
					"reservationsCount()": "c4d1b347",
					"reserveSpot(uint256,uint256)": "868def04",
					"updateParkingSpot(uint256,uint256)": "c0d8774b"
				}
			},
			"storageLayout": {
				"storage": [
					{
						"astId": 22,
						"contract": "SmartParking.sol:SmartParking",
						"label": "parkingSpots",
						"offset": 0,
						"slot": "0",
						"type": "t_mapping(t_uint256,t_struct(ParkingSpot)8_storage)"
					},
					{
						"astId": 27,
						"contract": "SmartParking.sol:SmartParking",
						"label": "reservations",
						"offset": 0,
						"slot": "1",
						"type": "t_mapping(t_uint256,t_struct(Reservation)17_storage)"
					},
					{
						"astId": 30,
						"contract": "SmartParking.sol:SmartParking",
						"label": "parkingSpotsCount",
						"offset": 0,
						"slot": "2",
						"type": "t_uint256"
					},
					{
						"astId": 33,
						"contract": "SmartParking.sol:SmartParking",
						"label": "reservationsCount",
						"offset": 0,
						"slot": "3",
						"type": "t_uint256"
					},
					{
						"astId": 35,
						"contract": "SmartParking.sol:SmartParking",
						"label": "owner",
						"offset": 0,
						"slot": "4",
						"type": "t_address"
					}
				],
				"types": {
					"t_address": {
						"encoding": "inplace",
						"label": "address",
						"numberOfBytes": "20"
					},
					"t_bool": {
						"encoding": "inplace",
						"label": "bool",
						"numberOfBytes": "1"
					},
					"t_mapping(t_uint256,t_struct(ParkingSpot)8_storage)": {
						"encoding": "mapping",
						"key": "t_uint256",
						"label": "mapping(uint256 => struct SmartParking.ParkingSpot)",
						"numberOfBytes": "32",
						"value": "t_struct(ParkingSpot)8_storage"
					},
					"t_mapping(t_uint256,t_struct(Reservation)17_storage)": {
						"encoding": "mapping",
						"key": "t_uint256",
						"label": "mapping(uint256 => struct SmartParking.Reservation)",
						"numberOfBytes": "32",
						"value": "t_struct(Reservation)17_storage"
					},
					"t_struct(ParkingSpot)8_storage": {
						"encoding": "inplace",
						"label": "struct SmartParking.ParkingSpot",
						"members": [
							{
								"astId": 3,
								"contract": "SmartParking.sol:SmartParking",
								"label": "id",
								"offset": 0,
								"slot": "0",
								"type": "t_uint256"
							},
							{
								"astId": 5,
								"contract": "SmartParking.sol:SmartParking",
								"label": "available",
								"offset": 0,
								"slot": "1",
								"type": "t_bool"
							},
							{
								"astId": 7,
								"contract": "SmartParking.sol:SmartParking",
								"label": "hourlyRate",
								"offset": 0,
								"slot": "2",
								"type": "t_uint256"
							}
						],
						"numberOfBytes": "96"
					},
					"t_struct(Reservation)17_storage": {
						"encoding": "inplace",
						"label": "struct SmartParking.Reservation",
						"members": [
							{
								"astId": 10,
								"contract": "SmartParking.sol:SmartParking",
								"label": "parkingSpotId",
								"offset": 0,
								"slot": "0",
								"type": "t_uint256"
							},
							{
								"astId": 12,
								"contract": "SmartParking.sol:SmartParking",
								"label": "user",
								"offset": 0,
								"slot": "1",
								"type": "t_address"
							},
							{
								"astId": 14,
								"contract": "SmartParking.sol:SmartParking",
								"label": "startTime",
								"offset": 0,
								"slot": "2",
								"type": "t_uint256"
							},
							{
								"astId": 16,
								"contract": "SmartParking.sol:SmartParking",
								"label": "endTime",
								"offset": 0,
								"slot": "3",
								"type": "t_uint256"
							}
						],
						"numberOfBytes": "128"
					},
					"t_uint256": {
						"encoding": "inplace",
						"label": "uint256",
						"numberOfBytes": "32"
					}
				}
			},
			"userdoc": {
				"kind": "user",
				"methods": {},
				"version": 1
			}
		}
	}
}