{
	"SmartParking.sol": {
		"SmartParking": {
			"abi": [
				{
					"inputs": [],
					"stateMutability": "nonpayable",
					"type": "constructor"
				},
				{
					"anonymous": false,
					"inputs": [
						{
							"indexed": false,
							"internalType": "uint256",
							"name": "id",
							"type": "uint256"
						},
						{
							"indexed": false,
							"internalType": "uint256",
							"name": "hourlyRate",
							"type": "uint256"
						}
					],
					"name": "ParkingSpotAdded",
					"type": "event"
				},
				{
					"anonymous": false,
					"inputs": [
						{
							"indexed": false,
							"internalType": "uint256",
							"name": "id",
							"type": "uint256"
						},
						{
							"indexed": false,
							"internalType": "uint256",
							"name": "hourlyRate",
							"type": "uint256"
						}
					],
					"name": "ParkingSpotUpdated",
					"type": "event"
				},
				{
					"anonymous": false,
					"inputs": [
						{
							"indexed": false,
							"internalType": "uint256",
							"name": "reservationId",
							"type": "uint256"
						}
					],
					"name": "ReservationCanceled",
					"type": "event"
				},
				{
					"anonymous": false,
					"inputs": [
						{
							"indexed": false,
							"internalType": "uint256",
							"name": "reservationId",
							"type": "uint256"
						},
						{
							"indexed": false,
							"internalType": "uint256",
							"name": "parkingSpotId",
							"type": "uint256"
						},
						{
							"indexed": false,
							"internalType": "address",
							"name": "user",
							"type": "address"
						},
						{
							"indexed": false,
							"internalType": "uint256",
							"name": "startTime",
							"type": "uint256"
						},
						{
							"indexed": false,
							"internalType": "uint256",
							"name": "endTime",
							"type": "uint256"
						}
					],
					"name": "ReservationMade",
					"type": "event"
				},
				{
					"inputs": [
						{
							"internalType": "uint256",
							"name": "hourlyRate",
							"type": "uint256"
						}
					],
					"name": "addParkingSpot",
					"outputs": [
						{
							"internalType": "uint256",
							"name": "",
							"type": "uint256"
						}
					],
					"stateMutability": "nonpayable",
					"type": "function"
				},
				{
					"inputs": [
						{
							"internalType": "uint256",
							"name": "reservationId",
							"type": "uint256"
						}
					],
					"name": "cancelReservation",
					"outputs": [],
					"stateMutability": "nonpayable",
					"type": "function"
				},
				{
					"inputs": [],
					"name": "owner",
					"outputs": [
						{
							"internalType": "address",
							"name": "",
							"type": "address"
						}
					],
					"stateMutability": "view",
					"type": "function"
				},
				{
					"inputs": [
						{
							"internalType": "uint256",
							"name": "",
							"type": "uint256"
						}
					],
					"name": "parkingSpots",
					"outputs": [
						{
							"internalType": "uint256",
							"name": "id",
							"type": "uint256"
						},
						{
							"internalType": "bool",
							"name": "available",
							"type": "bool"
						},
						{
							"internalType": "uint256",
							"name": "hourlyRate",
							"type": "uint256"
						}
					],
					"stateMutability": "view",
					"type": "function"
				},
				{
					"inputs": [],
					"name": "parkingSpotsCount",
					"outputs": [
						{
							"internalType": "uint256",
							"name": "",
							"type": "uint256"
						}
					],
					"stateMutability": "view",
					"type": "function"
				},
				{
					"inputs": [
						{
							"internalType": "uint256",
							"name": "",
							"type": "uint256"
						}
					],
					"name": "reservations",
					"outputs": [
						{
							"internalType": "uint256",
							"name": "parkingSpotId",
							"type": "uint256"
						},
						{
							"internalType": "address",
							"name": "user",
							"type": "address"
						},
						{
							"internalType": "uint256",
							"name": "startTime",
							"type": "uint256"
						},
						{
							"internalType": "uint256",
							"name": "endTime",
							"type": "uint256"
						}
					],
					"stateMutability": "view",
					"type": "function"
				},
				{
					"inputs": [],
					"name": "reservationsCount",
					"outputs": [
						{
							"internalType": "uint256",
							"name": "",
							"type": "uint256"
						}
					],
					"stateMutability": "view",
					"type": "function"
				},
				{
					"inputs": [
						{
							"internalType": "uint256",
							"name": "parkingSpotId",
							"type": "uint256"
						},
						{
							"internalType": "uint256",
							"name": "numberOfHours",
							"type": "uint256"
						}
					],
					"name": "reserveSpot",
					"outputs": [],
					"stateMutability": "payable",
					"type": "function"
				},
				{
					"inputs": [
						{
							"internalType": "uint256",
							"name": "id",
							"type": "uint256"
						},
						{
							"internalType": "uint256",
							"name": "hourlyRate",
							"type": "uint256"
						}
					],
					"name": "updateParkingSpot",
					"outputs": [],
					"stateMutability": "nonpayable",
					"type": "function"
				}
			],
			"devdoc": {
				"kind": "dev",
				"methods": {},
				"version": 1
			},
			"evm": {
				"assembly": "    /* \"SmartParking.sol\":60:3146  contract SmartParking {... */\n  mstore(0x40, 0x80)\n    /* \"SmartParking.sol\":472:473  0 */\n  0x00\n    /* \"SmartParking.sol\":440:473  uint public parkingSpotsCount = 0 */\n  0x02\n  sstore\n    /* \"SmartParking.sol\":512:513  0 */\n  0x00\n    /* \"SmartParking.sol\":480:513  uint public reservationsCount = 0 */\n  0x03\n  sstore\n    /* \"SmartParking.sol\":549:600  constructor() {... */\n  callvalue\n  dup1\n  iszero\n  tag_1\n  jumpi\n  0x00\n  dup1\n  revert\ntag_1:\n  pop\n    /* \"SmartParking.sol\":582:592  msg.sender */\n  caller\n    /* \"SmartParking.sol\":574:579  owner */\n  0x04\n  0x00\n    /* \"SmartParking.sol\":574:592  owner = msg.sender */\n  0x0100\n  exp\n  dup2\n  sload\n  dup2\n  0xffffffffffffffffffffffffffffffffffffffff\n  mul\n  not\n  and\n  swap1\n  dup4\n  0xffffffffffffffffffffffffffffffffffffffff\n  and\n  mul\n  or\n  swap1\n  sstore\n  pop\n    /* \"SmartParking.sol\":60:3146  contract SmartParking {... */\n  dataSize(sub_0)\n  dup1\n  dataOffset(sub_0)\n  0x00\n  codecopy\n  0x00\n  return\nstop\n\nsub_0: assembly {\n        /* \"SmartParking.sol\":60:3146  contract SmartParking {... */\n      mstore(0x40, 0x80)\n      jumpi(tag_1, lt(calldatasize, 0x04))\n      shr(0xe0, calldataload(0x00))\n      dup1\n      0x8da5cb5b\n      gt\n      tag_11\n      jumpi\n      dup1\n      0x8da5cb5b\n      eq\n      tag_6\n      jumpi\n      dup1\n      0xae5e6cf4\n      eq\n      tag_7\n      jumpi\n      dup1\n      0xc0d8774b\n      eq\n      tag_8\n      jumpi\n      dup1\n      0xc4d1b347\n      eq\n      tag_9\n      jumpi\n      dup1\n      0xf5defcd3\n      eq\n      tag_10\n      jumpi\n      jump(tag_1)\n    tag_11:\n      dup1\n      0x067cf832\n      eq\n      tag_2\n      jumpi\n      dup1\n      0x182d8de5\n      eq\n      tag_3\n      jumpi\n      dup1\n      0x658db3e5\n      eq\n      tag_4\n      jumpi\n      dup1\n      0x868def04\n      eq\n      tag_5\n      jumpi\n    tag_1:\n      0x00\n      dup1\n      revert\n        /* \"SmartParking.sol\":385:433  mapping(uint => Reservation) public reservations */\n    tag_2:\n      callvalue\n      dup1\n      iszero\n      tag_12\n      jumpi\n      0x00\n      dup1\n      revert\n    tag_12:\n      pop\n      tag_13\n      0x04\n      dup1\n      calldatasize\n      sub\n      dup2\n      add\n      swap1\n      tag_14\n      swap2\n      swap1\n      tag_15\n      jump\t// in\n    tag_14:\n      tag_16\n      jump\t// in\n    tag_13:\n      mload(0x40)\n      tag_17\n      swap5\n      swap4\n      swap3\n      swap2\n      swap1\n      tag_18\n      jump\t// in\n    tag_17:\n      mload(0x40)\n      dup1\n      swap2\n      sub\n      swap1\n      return\n        /* \"SmartParking.sol\":886:1263  function addParkingSpot(uint hourlyRate) public returns (uint) {... */\n    tag_3:\n      callvalue\n      dup1\n      iszero\n      tag_19\n      jumpi\n      0x00\n      dup1\n      revert\n    tag_19:\n      pop\n      tag_20\n      0x04\n      dup1\n      calldatasize\n      sub\n      dup2\n      add\n      swap1\n      tag_21\n      swap2\n      swap1\n      tag_15\n      jump\t// in\n    tag_21:\n      tag_22\n      jump\t// in\n    tag_20:\n      mload(0x40)\n      tag_23\n      swap2\n      swap1\n      tag_24\n      jump\t// in\n    tag_23:\n      mload(0x40)\n      dup1\n      swap2\n      sub\n      swap1\n      return\n        /* \"SmartParking.sol\":440:473  uint public parkingSpotsCount = 0 */\n    tag_4:\n      callvalue\n      dup1\n      iszero\n      tag_25\n      jumpi\n      0x00\n      dup1\n      revert\n    tag_25:\n      pop\n      tag_26\n      tag_27\n      jump\t// in\n    tag_26:\n      mload(0x40)\n      tag_28\n      swap2\n      swap1\n      tag_24\n      jump\t// in\n    tag_28:\n      mload(0x40)\n      dup1\n      swap2\n      sub\n      swap1\n      return\n        /* \"SmartParking.sol\":1598:2455  function reserveSpot(uint parkingSpotId, uint numberOfHours) public payable {... */\n    tag_5:\n      tag_29\n      0x04\n      dup1\n      calldatasize\n      sub\n      dup2\n      add\n      swap1\n      tag_30\n      swap2\n      swap1\n      tag_31\n      jump\t// in\n    tag_30:\n      tag_32\n      jump\t// in\n    tag_29:\n      stop\n        /* \"SmartParking.sol\":520:540  address public owner */\n    tag_6:\n      callvalue\n      dup1\n      iszero\n      tag_33\n      jumpi\n      0x00\n      dup1\n      revert\n    tag_33:\n      pop\n      tag_34\n      tag_35\n      jump\t// in\n    tag_34:\n      mload(0x40)\n      tag_36\n      swap2\n      swap1\n      tag_37\n      jump\t// in\n    tag_36:\n      mload(0x40)\n      dup1\n      swap2\n      sub\n      swap1\n      return\n        /* \"SmartParking.sol\":2463:3141  function cancelReservation(uint reservationId) public {... */\n    tag_7:\n      callvalue\n      dup1\n      iszero\n      tag_38\n      jumpi\n      0x00\n      dup1\n      revert\n    tag_38:\n      pop\n      tag_39\n      0x04\n      dup1\n      calldatasize\n      sub\n      dup2\n      add\n      swap1\n      tag_40\n      swap2\n      swap1\n      tag_15\n      jump\t// in\n    tag_40:\n      tag_41\n      jump\t// in\n    tag_39:\n      stop\n        /* \"SmartParking.sol\":1271:1590  function updateParkingSpot(uint id, uint hourlyRate) public {... */\n    tag_8:\n      callvalue\n      dup1\n      iszero\n      tag_42\n      jumpi\n      0x00\n      dup1\n      revert\n    tag_42:\n      pop\n      tag_43\n      0x04\n      dup1\n      calldatasize\n      sub\n      dup2\n      add\n      swap1\n      tag_44\n      swap2\n      swap1\n      tag_31\n      jump\t// in\n    tag_44:\n      tag_45\n      jump\t// in\n    tag_43:\n      stop\n        /* \"SmartParking.sol\":480:513  uint public reservationsCount = 0 */\n    tag_9:\n      callvalue\n      dup1\n      iszero\n      tag_46\n      jumpi\n      0x00\n      dup1\n      revert\n    tag_46:\n      pop\n      tag_47\n      tag_48\n      jump\t// in\n    tag_47:\n      mload(0x40)\n      tag_49\n      swap2\n      swap1\n      tag_24\n      jump\t// in\n    tag_49:\n      mload(0x40)\n      dup1\n      swap2\n      sub\n      swap1\n      return\n        /* \"SmartParking.sol\":330:378  mapping(uint => ParkingSpot) public parkingSpots */\n    tag_10:\n      callvalue\n      dup1\n      iszero\n      tag_50\n      jumpi\n      0x00\n      dup1\n      revert\n    tag_50:\n      pop\n      tag_51\n      0x04\n      dup1\n      calldatasize\n      sub\n      dup2\n      add\n      swap1\n      tag_52\n      swap2\n      swap1\n      tag_15\n      jump\t// in\n    tag_52:\n      tag_53\n      jump\t// in\n    tag_51:\n      mload(0x40)\n      tag_54\n      swap4\n      swap3\n      swap2\n      swap1\n      tag_55\n      jump\t// in\n    tag_54:\n      mload(0x40)\n      dup1\n      swap2\n      sub\n      swap1\n      return\n        /* \"SmartParking.sol\":385:433  mapping(uint => Reservation) public reservations */\n    tag_16:\n      mstore(0x20, 0x01)\n      dup1\n      0x00\n      mstore\n      keccak256(0x00, 0x40)\n      0x00\n      swap2\n      pop\n      swap1\n      pop\n      dup1\n      0x00\n      add\n      sload\n      swap1\n      dup1\n      0x01\n      add\n      0x00\n      swap1\n      sload\n      swap1\n      0x0100\n      exp\n      swap1\n      div\n      0xffffffffffffffffffffffffffffffffffffffff\n      and\n      swap1\n      dup1\n      0x02\n      add\n      sload\n      swap1\n      dup1\n      0x03\n      add\n      sload\n      swap1\n      pop\n      dup5\n      jump\t// out\n        /* \"SmartParking.sol\":886:1263  function addParkingSpot(uint hourlyRate) public returns (uint) {... */\n    tag_22:\n        /* \"SmartParking.sol\":943:947  uint */\n      0x00\n        /* \"SmartParking.sol\":982:987  owner */\n      0x04\n      0x00\n      swap1\n      sload\n      swap1\n      0x0100\n      exp\n      swap1\n      div\n      0xffffffffffffffffffffffffffffffffffffffff\n      and\n        /* \"SmartParking.sol\":968:987  msg.sender == owner */\n      0xffffffffffffffffffffffffffffffffffffffff\n      and\n        /* \"SmartParking.sol\":968:978  msg.sender */\n      caller\n        /* \"SmartParking.sol\":968:987  msg.sender == owner */\n      0xffffffffffffffffffffffffffffffffffffffff\n      and\n      eq\n        /* \"SmartParking.sol\":960:1030  require(msg.sender == owner, \"Only an owner can access this function\") */\n      tag_57\n      jumpi\n      mload(0x40)\n      0x08c379a000000000000000000000000000000000000000000000000000000000\n      dup2\n      mstore\n      0x04\n      add\n      tag_58\n      swap1\n      tag_59\n      jump\t// in\n    tag_58:\n      mload(0x40)\n      dup1\n      swap2\n      sub\n      swap1\n      revert\n    tag_57:\n        /* \"SmartParking.sol\":1075:1123  ParkingSpot(parkingSpotsCount, true, hourlyRate) */\n      mload(0x40)\n      dup1\n      0x60\n      add\n      0x40\n      mstore\n      dup1\n        /* \"SmartParking.sol\":1087:1104  parkingSpotsCount */\n      sload(0x02)\n        /* \"SmartParking.sol\":1075:1123  ParkingSpot(parkingSpotsCount, true, hourlyRate) */\n      dup2\n      mstore\n      0x20\n      add\n        /* \"SmartParking.sol\":1106:1110  true */\n      0x01\n        /* \"SmartParking.sol\":1075:1123  ParkingSpot(parkingSpotsCount, true, hourlyRate) */\n      iszero\n      iszero\n      dup2\n      mstore\n      0x20\n      add\n        /* \"SmartParking.sol\":1112:1122  hourlyRate */\n      dup4\n        /* \"SmartParking.sol\":1075:1123  ParkingSpot(parkingSpotsCount, true, hourlyRate) */\n      dup2\n      mstore\n      pop\n        /* \"SmartParking.sol\":1041:1053  parkingSpots */\n      0x00\n        /* \"SmartParking.sol\":1041:1072  parkingSpots[parkingSpotsCount] */\n      dup1\n        /* \"SmartParking.sol\":1054:1071  parkingSpotsCount */\n      sload(0x02)\n        /* \"SmartParking.sol\":1041:1072  parkingSpots[parkingSpotsCount] */\n      dup2\n      mstore\n      0x20\n      add\n      swap1\n      dup2\n      mstore\n      0x20\n      add\n      0x00\n      keccak256\n        /* \"SmartParking.sol\":1041:1123  parkingSpots[parkingSpotsCount] = ParkingSpot(parkingSpotsCount, true, hourlyRate) */\n      0x00\n      dup3\n      add\n      mload\n      dup2\n      0x00\n      add\n      sstore\n      0x20\n      dup3\n      add\n      mload\n      dup2\n      0x01\n      add\n      exp(0x0100, 0x00)\n      dup2\n      sload\n      dup2\n      0xff\n      mul\n      not\n      and\n      swap1\n      dup4\n      iszero\n      iszero\n      mul\n      or\n      swap1\n      sstore\n      pop\n      0x40\n      dup3\n      add\n      mload\n      dup2\n      0x02\n      add\n      sstore\n      swap1\n      pop\n      pop\n        /* \"SmartParking.sol\":1139:1186  ParkingSpotAdded(parkingSpotsCount, hourlyRate) */\n      0xf75d109f18e4f7bd4ba898340a13e16a7b3ad2860a84e35165f3564fbd642a8b\n        /* \"SmartParking.sol\":1156:1173  parkingSpotsCount */\n      sload(0x02)\n        /* \"SmartParking.sol\":1175:1185  hourlyRate */\n      dup4\n        /* \"SmartParking.sol\":1139:1186  ParkingSpotAdded(parkingSpotsCount, hourlyRate) */\n      mload(0x40)\n      tag_60\n      swap3\n      swap2\n      swap1\n      tag_61\n      jump\t// in\n    tag_60:\n      mload(0x40)\n      dup1\n      swap2\n      sub\n      swap1\n      log1\n        /* \"SmartParking.sol\":1197:1214  parkingSpotsCount */\n      0x02\n      0x00\n        /* \"SmartParking.sol\":1197:1216  parkingSpotsCount++ */\n      dup2\n      sload\n      dup1\n      swap3\n      swap2\n      swap1\n      tag_62\n      swap1\n      tag_63\n      jump\t// in\n    tag_62:\n      swap2\n      swap1\n      pop\n      sstore\n      pop\n        /* \"SmartParking.sol\":1254:1255  1 */\n      0x01\n        /* \"SmartParking.sol\":1234:1251  parkingSpotsCount */\n      sload(0x02)\n        /* \"SmartParking.sol\":1234:1255  parkingSpotsCount - 1 */\n      tag_64\n      swap2\n      swap1\n      tag_65\n      jump\t// in\n    tag_64:\n        /* \"SmartParking.sol\":1227:1255  return parkingSpotsCount - 1 */\n      swap1\n      pop\n        /* \"SmartParking.sol\":886:1263  function addParkingSpot(uint hourlyRate) public returns (uint) {... */\n      swap2\n      swap1\n      pop\n      jump\t// out\n        /* \"SmartParking.sol\":440:473  uint public parkingSpotsCount = 0 */\n    tag_27:\n      sload(0x02)\n      dup2\n      jump\t// out\n        /* \"SmartParking.sol\":1598:2455  function reserveSpot(uint parkingSpotId, uint numberOfHours) public payable {... */\n    tag_32:\n        /* \"SmartParking.sol\":1709:1726  parkingSpotsCount */\n      sload(0x02)\n        /* \"SmartParking.sol\":1693:1706  parkingSpotId */\n      dup3\n        /* \"SmartParking.sol\":1693:1726  parkingSpotId < parkingSpotsCount */\n      lt\n        /* \"SmartParking.sol\":1685:1754  require(parkingSpotId < parkingSpotsCount, \"Invalid parking spot ID\") */\n      tag_67\n      jumpi\n      mload(0x40)\n      0x08c379a000000000000000000000000000000000000000000000000000000000\n      dup2\n      mstore\n      0x04\n      add\n      tag_68\n      swap1\n      tag_69\n      jump\t// in\n    tag_68:\n      mload(0x40)\n      dup1\n      swap2\n      sub\n      swap1\n      revert\n    tag_67:\n        /* \"SmartParking.sol\":1773:1785  parkingSpots */\n      0x00\n        /* \"SmartParking.sol\":1773:1800  parkingSpots[parkingSpotId] */\n      dup1\n        /* \"SmartParking.sol\":1786:1799  parkingSpotId */\n      dup4\n        /* \"SmartParking.sol\":1773:1800  parkingSpots[parkingSpotId] */\n      dup2\n      mstore\n      0x20\n      add\n      swap1\n      dup2\n      mstore\n      0x20\n      add\n      0x00\n      keccak256\n        /* \"SmartParking.sol\":1773:1810  parkingSpots[parkingSpotId].available */\n      0x01\n      add\n      0x00\n      swap1\n      sload\n      swap1\n      0x0100\n      exp\n      swap1\n      div\n      0xff\n      and\n        /* \"SmartParking.sol\":1765:1844  require(parkingSpots[parkingSpotId].available, \"Parking spot is not available\") */\n      tag_70\n      jumpi\n      mload(0x40)\n      0x08c379a000000000000000000000000000000000000000000000000000000000\n      dup2\n      mstore\n      0x04\n      add\n      tag_71\n      swap1\n      tag_72\n      jump\t// in\n    tag_71:\n      mload(0x40)\n      dup1\n      swap2\n      sub\n      swap1\n      revert\n    tag_70:\n        /* \"SmartParking.sol\":1857:1866  uint cost */\n      0x00\n        /* \"SmartParking.sol\":1910:1923  numberOfHours */\n      dup2\n        /* \"SmartParking.sol\":1869:1881  parkingSpots */\n      0x00\n        /* \"SmartParking.sol\":1869:1896  parkingSpots[parkingSpotId] */\n      dup1\n        /* \"SmartParking.sol\":1882:1895  parkingSpotId */\n      dup6\n        /* \"SmartParking.sol\":1869:1896  parkingSpots[parkingSpotId] */\n      dup2\n      mstore\n      0x20\n      add\n      swap1\n      dup2\n      mstore\n      0x20\n      add\n      0x00\n      keccak256\n        /* \"SmartParking.sol\":1869:1907  parkingSpots[parkingSpotId].hourlyRate */\n      0x02\n      add\n      sload\n        /* \"SmartParking.sol\":1869:1923  parkingSpots[parkingSpotId].hourlyRate * numberOfHours */\n      tag_73\n      swap2\n      swap1\n      tag_74\n      jump\t// in\n    tag_73:\n        /* \"SmartParking.sol\":1857:1923  uint cost = parkingSpots[parkingSpotId].hourlyRate * numberOfHours */\n      swap1\n      pop\n        /* \"SmartParking.sol\":1955:1959  cost */\n      dup1\n        /* \"SmartParking.sol\":1942:1951  msg.value */\n      callvalue\n        /* \"SmartParking.sol\":1942:1959  msg.value >= cost */\n      lt\n      iszero\n        /* \"SmartParking.sol\":1934:1982  require(msg.value >= cost, \"Insufficient funds\") */\n      tag_75\n      jumpi\n      mload(0x40)\n      0x08c379a000000000000000000000000000000000000000000000000000000000\n      dup2\n      mstore\n      0x04\n      add\n      tag_76\n      swap1\n      tag_77\n      jump\t// in\n    tag_76:\n      mload(0x40)\n      dup1\n      swap2\n      sub\n      swap1\n      revert\n    tag_75:\n        /* \"SmartParking.sol\":2029:2122  Reservation(parkingSpotId, msg.sender, block.timestamp, block.timestamp + numberOfHours*3600) */\n      mload(0x40)\n      dup1\n      0x80\n      add\n      0x40\n      mstore\n      dup1\n        /* \"SmartParking.sol\":2041:2054  parkingSpotId */\n      dup5\n        /* \"SmartParking.sol\":2029:2122  Reservation(parkingSpotId, msg.sender, block.timestamp, block.timestamp + numberOfHours*3600) */\n      dup2\n      mstore\n      0x20\n      add\n        /* \"SmartParking.sol\":2056:2066  msg.sender */\n      caller\n        /* \"SmartParking.sol\":2029:2122  Reservation(parkingSpotId, msg.sender, block.timestamp, block.timestamp + numberOfHours*3600) */\n      0xffffffffffffffffffffffffffffffffffffffff\n      and\n      dup2\n      mstore\n      0x20\n      add\n        /* \"SmartParking.sol\":2068:2083  block.timestamp */\n      timestamp\n        /* \"SmartParking.sol\":2029:2122  Reservation(parkingSpotId, msg.sender, block.timestamp, block.timestamp + numberOfHours*3600) */\n      dup2\n      mstore\n      0x20\n      add\n        /* \"SmartParking.sol\":2117:2121  3600 */\n      0x0e10\n        /* \"SmartParking.sol\":2103:2116  numberOfHours */\n      dup5\n        /* \"SmartParking.sol\":2103:2121  numberOfHours*3600 */\n      tag_78\n      swap2\n      swap1\n      tag_74\n      jump\t// in\n    tag_78:\n        /* \"SmartParking.sol\":2085:2100  block.timestamp */\n      timestamp\n        /* \"SmartParking.sol\":2085:2121  block.timestamp + numberOfHours*3600 */\n      tag_79\n      swap2\n      swap1\n      tag_80\n      jump\t// in\n    tag_79:\n        /* \"SmartParking.sol\":2029:2122  Reservation(parkingSpotId, msg.sender, block.timestamp, block.timestamp + numberOfHours*3600) */\n      dup2\n      mstore\n      pop\n        /* \"SmartParking.sol\":1995:2007  reservations */\n      0x01\n        /* \"SmartParking.sol\":1995:2026  reservations[reservationsCount] */\n      0x00\n        /* \"SmartParking.sol\":2008:2025  reservationsCount */\n      sload(0x03)\n        /* \"SmartParking.sol\":1995:2026  reservations[reservationsCount] */\n      dup2\n      mstore\n      0x20\n      add\n      swap1\n      dup2\n      mstore\n      0x20\n      add\n      0x00\n      keccak256\n        /* \"SmartParking.sol\":1995:2122  reservations[reservationsCount] = Reservation(parkingSpotId, msg.sender, block.timestamp, block.timestamp + numberOfHours*3600) */\n      0x00\n      dup3\n      add\n      mload\n      dup2\n      0x00\n      add\n      sstore\n      0x20\n      dup3\n      add\n      mload\n      dup2\n      0x01\n      add\n      exp(0x0100, 0x00)\n      dup2\n      sload\n      dup2\n      0xffffffffffffffffffffffffffffffffffffffff\n      mul\n      not\n      and\n      swap1\n      dup4\n      0xffffffffffffffffffffffffffffffffffffffff\n      and\n      mul\n      or\n      swap1\n      sstore\n      pop\n      0x40\n      dup3\n      add\n      mload\n      dup2\n      0x02\n      add\n      sstore\n      0x60\n      dup3\n      add\n      mload\n      dup2\n      0x03\n      add\n      sstore\n      swap1\n      pop\n      pop\n        /* \"SmartParking.sol\":2173:2178  false */\n      0x00\n        /* \"SmartParking.sol\":2133:2145  parkingSpots */\n      dup1\n        /* \"SmartParking.sol\":2133:2160  parkingSpots[parkingSpotId] */\n      0x00\n        /* \"SmartParking.sol\":2146:2159  parkingSpotId */\n      dup6\n        /* \"SmartParking.sol\":2133:2160  parkingSpots[parkingSpotId] */\n      dup2\n      mstore\n      0x20\n      add\n      swap1\n      dup2\n      mstore\n      0x20\n      add\n      0x00\n      keccak256\n        /* \"SmartParking.sol\":2133:2170  parkingSpots[parkingSpotId].available */\n      0x01\n      add\n      0x00\n        /* \"SmartParking.sol\":2133:2178  parkingSpots[parkingSpotId].available = false */\n      0x0100\n      exp\n      dup2\n      sload\n      dup2\n      0xff\n      mul\n      not\n      and\n      swap1\n      dup4\n      iszero\n      iszero\n      mul\n      or\n      swap1\n      sstore\n      pop\n        /* \"SmartParking.sol\":2194:2310  ReservationMade(reservationsCount, parkingSpotId, msg.sender, block.timestamp, block.timestamp + numberOfHours*3600) */\n      0x72ecd7f7851d99362881875ab1be61b520cafd001460ee107307408aa0ffbc58\n        /* \"SmartParking.sol\":2210:2227  reservationsCount */\n      sload(0x03)\n        /* \"SmartParking.sol\":2229:2242  parkingSpotId */\n      dup5\n        /* \"SmartParking.sol\":2244:2254  msg.sender */\n      caller\n        /* \"SmartParking.sol\":2256:2271  block.timestamp */\n      timestamp\n        /* \"SmartParking.sol\":2305:2309  3600 */\n      0x0e10\n        /* \"SmartParking.sol\":2291:2304  numberOfHours */\n      dup8\n        /* \"SmartParking.sol\":2291:2309  numberOfHours*3600 */\n      tag_81\n      swap2\n      swap1\n      tag_74\n      jump\t// in\n    tag_81:\n        /* \"SmartParking.sol\":2273:2288  block.timestamp */\n      timestamp\n        /* \"SmartParking.sol\":2273:2309  block.timestamp + numberOfHours*3600 */\n      tag_82\n      swap2\n      swap1\n      tag_80\n      jump\t// in\n    tag_82:\n        /* \"SmartParking.sol\":2194:2310  ReservationMade(reservationsCount, parkingSpotId, msg.sender, block.timestamp, block.timestamp + numberOfHours*3600) */\n      mload(0x40)\n      tag_83\n      swap6\n      swap5\n      swap4\n      swap3\n      swap2\n      swap1\n      tag_84\n      jump\t// in\n    tag_83:\n      mload(0x40)\n      dup1\n      swap2\n      sub\n      swap1\n      log1\n        /* \"SmartParking.sol\":2321:2338  reservationsCount */\n      0x03\n      0x00\n        /* \"SmartParking.sol\":2321:2340  reservationsCount++ */\n      dup2\n      sload\n      dup1\n      swap3\n      swap2\n      swap1\n      tag_85\n      swap1\n      tag_63\n      jump\t// in\n    tag_85:\n      swap2\n      swap1\n      pop\n      sstore\n      pop\n        /* \"SmartParking.sol\":2369:2373  cost */\n      dup1\n        /* \"SmartParking.sol\":2357:2366  msg.value */\n      callvalue\n        /* \"SmartParking.sol\":2357:2373  msg.value > cost */\n      gt\n        /* \"SmartParking.sol\":2353:2448  if (msg.value > cost) {... */\n      iszero\n      tag_86\n      jumpi\n        /* \"SmartParking.sol\":2398:2408  msg.sender */\n      caller\n        /* \"SmartParking.sol\":2390:2418  payable(msg.sender).transfer */\n      0xffffffffffffffffffffffffffffffffffffffff\n      and\n        /* \"SmartParking.sol\":2390:2436  payable(msg.sender).transfer(msg.value - cost) */\n      0x08fc\n        /* \"SmartParking.sol\":2431:2435  cost */\n      dup3\n        /* \"SmartParking.sol\":2419:2428  msg.value */\n      callvalue\n        /* \"SmartParking.sol\":2419:2435  msg.value - cost */\n      tag_87\n      swap2\n      swap1\n      tag_65\n      jump\t// in\n    tag_87:\n        /* \"SmartParking.sol\":2390:2436  payable(msg.sender).transfer(msg.value - cost) */\n      swap1\n      dup2\n      iszero\n      mul\n      swap1\n      mload(0x40)\n      0x00\n      mload(0x40)\n      dup1\n      dup4\n      sub\n      dup2\n      dup6\n      dup9\n      dup9\n      call\n      swap4\n      pop\n      pop\n      pop\n      pop\n      iszero\n      dup1\n      iszero\n      tag_89\n      jumpi\n      returndatasize\n      0x00\n      dup1\n      returndatacopy\n      revert(0x00, returndatasize)\n    tag_89:\n      pop\n        /* \"SmartParking.sol\":2353:2448  if (msg.value > cost) {... */\n    tag_86:\n        /* \"SmartParking.sol\":1674:2455  {... */\n      pop\n        /* \"SmartParking.sol\":1598:2455  function reserveSpot(uint parkingSpotId, uint numberOfHours) public payable {... */\n      pop\n      pop\n      jump\t// out\n        /* \"SmartParking.sol\":520:540  address public owner */\n    tag_35:\n      0x04\n      0x00\n      swap1\n      sload\n      swap1\n      0x0100\n      exp\n      swap1\n      div\n      0xffffffffffffffffffffffffffffffffffffffff\n      and\n      dup2\n      jump\t// out\n        /* \"SmartParking.sol\":2463:3141  function cancelReservation(uint reservationId) public {... */\n    tag_41:\n        /* \"SmartParking.sol\":2552:2569  reservationsCount */\n      sload(0x03)\n        /* \"SmartParking.sol\":2536:2549  reservationId */\n      dup2\n        /* \"SmartParking.sol\":2536:2569  reservationId < reservationsCount */\n      lt\n        /* \"SmartParking.sol\":2528:2596  require(reservationId < reservationsCount, \"Invalid reservation ID\") */\n      tag_91\n      jumpi\n      mload(0x40)\n      0x08c379a000000000000000000000000000000000000000000000000000000000\n      dup2\n      mstore\n      0x04\n      add\n      tag_92\n      swap1\n      tag_93\n      jump\t// in\n    tag_92:\n      mload(0x40)\n      dup1\n      swap2\n      sub\n      swap1\n      revert\n    tag_91:\n        /* \"SmartParking.sol\":2607:2638  Reservation storage reservation */\n      0x00\n        /* \"SmartParking.sol\":2641:2653  reservations */\n      0x01\n        /* \"SmartParking.sol\":2641:2668  reservations[reservationId] */\n      0x00\n        /* \"SmartParking.sol\":2654:2667  reservationId */\n      dup4\n        /* \"SmartParking.sol\":2641:2668  reservations[reservationId] */\n      dup2\n      mstore\n      0x20\n      add\n      swap1\n      dup2\n      mstore\n      0x20\n      add\n      0x00\n      keccak256\n        /* \"SmartParking.sol\":2607:2668  Reservation storage reservation = reservations[reservationId] */\n      swap1\n      pop\n        /* \"SmartParking.sol\":2707:2717  msg.sender */\n      caller\n        /* \"SmartParking.sol\":2687:2717  reservation.user == msg.sender */\n      0xffffffffffffffffffffffffffffffffffffffff\n      and\n        /* \"SmartParking.sol\":2687:2698  reservation */\n      dup2\n        /* \"SmartParking.sol\":2687:2703  reservation.user */\n      0x01\n      add\n      0x00\n      swap1\n      sload\n      swap1\n      0x0100\n      exp\n      swap1\n      div\n      0xffffffffffffffffffffffffffffffffffffffff\n      and\n        /* \"SmartParking.sol\":2687:2717  reservation.user == msg.sender */\n      0xffffffffffffffffffffffffffffffffffffffff\n      and\n      eq\n        /* \"SmartParking.sol\":2679:2758  require(reservation.user == msg.sender, \"Not authorized to cancel reservation\") */\n      tag_94\n      jumpi\n      mload(0x40)\n      0x08c379a000000000000000000000000000000000000000000000000000000000\n      dup2\n      mstore\n      0x04\n      add\n      tag_95\n      swap1\n      tag_96\n      jump\t// in\n    tag_95:\n      mload(0x40)\n      dup1\n      swap2\n      sub\n      swap1\n      revert\n    tag_94:\n        /* \"SmartParking.sol\":2823:2827  true */\n      0x01\n        /* \"SmartParking.sol\":2771:2783  parkingSpots */\n      0x00\n        /* \"SmartParking.sol\":2771:2810  parkingSpots[reservation.parkingSpotId] */\n      dup1\n        /* \"SmartParking.sol\":2784:2795  reservation */\n      dup4\n        /* \"SmartParking.sol\":2784:2809  reservation.parkingSpotId */\n      0x00\n      add\n      sload\n        /* \"SmartParking.sol\":2771:2810  parkingSpots[reservation.parkingSpotId] */\n      dup2\n      mstore\n      0x20\n      add\n      swap1\n      dup2\n      mstore\n      0x20\n      add\n      0x00\n      keccak256\n        /* \"SmartParking.sol\":2771:2820  parkingSpots[reservation.parkingSpotId].available */\n      0x01\n      add\n      0x00\n        /* \"SmartParking.sol\":2771:2827  parkingSpots[reservation.parkingSpotId].available = true */\n      0x0100\n      exp\n      dup2\n      sload\n      dup2\n      0xff\n      mul\n      not\n      and\n      swap1\n      dup4\n      iszero\n      iszero\n      mul\n      or\n      swap1\n      sstore\n      pop\n        /* \"SmartParking.sol\":2843:2877  ReservationCanceled(reservationId) */\n      0x81a9339e192f17a2544892f6f54b4b2c4d16184d3ac5cbcd45146fe360d753af\n        /* \"SmartParking.sol\":2863:2876  reservationId */\n      dup3\n        /* \"SmartParking.sol\":2843:2877  ReservationCanceled(reservationId) */\n      mload(0x40)\n      tag_97\n      swap2\n      swap1\n      tag_24\n      jump\t// in\n    tag_97:\n      mload(0x40)\n      dup1\n      swap2\n      sub\n      swap1\n      log1\n        /* \"SmartParking.sol\":2895:2907  reservations */\n      0x01\n        /* \"SmartParking.sol\":2895:2922  reservations[reservationId] */\n      0x00\n        /* \"SmartParking.sol\":2908:2921  reservationId */\n      dup4\n        /* \"SmartParking.sol\":2895:2922  reservations[reservationId] */\n      dup2\n      mstore\n      0x20\n      add\n      swap1\n      dup2\n      mstore\n      0x20\n      add\n      0x00\n      keccak256\n      0x00\n        /* \"SmartParking.sol\":2888:2922  delete reservations[reservationId] */\n      dup1\n      dup3\n      add\n      0x00\n      swap1\n      sstore\n      0x01\n      dup3\n      add\n      exp(0x0100, 0x00)\n      dup2\n      sload\n      swap1\n      0xffffffffffffffffffffffffffffffffffffffff\n      mul\n      not\n      and\n      swap1\n      sstore\n      0x02\n      dup3\n      add\n      0x00\n      swap1\n      sstore\n      0x03\n      dup3\n      add\n      0x00\n      swap1\n      sstore\n      pop\n      pop\n        /* \"SmartParking.sol\":2933:2950  reservationsCount */\n      0x03\n      0x00\n        /* \"SmartParking.sol\":2933:2952  reservationsCount-- */\n      dup2\n      sload\n      dup1\n      swap3\n      swap2\n      swap1\n      tag_98\n      swap1\n      tag_99\n      jump\t// in\n    tag_98:\n      swap2\n      swap1\n      pop\n      sstore\n      pop\n        /* \"SmartParking.sol\":2965:2976  uint refund */\n      0x00\n        /* \"SmartParking.sol\":3081:3085  3600 */\n      0x0e10\n        /* \"SmartParking.sol\":3056:3067  reservation */\n      dup3\n        /* \"SmartParking.sol\":3056:3077  reservation.startTime */\n      0x02\n      add\n      sload\n        /* \"SmartParking.sol\":3034:3045  reservation */\n      dup4\n        /* \"SmartParking.sol\":3034:3053  reservation.endTime */\n      0x03\n      add\n      sload\n        /* \"SmartParking.sol\":3034:3077  reservation.endTime - reservation.startTime */\n      tag_100\n      swap2\n      swap1\n      tag_65\n      jump\t// in\n    tag_100:\n        /* \"SmartParking.sol\":3033:3085  (reservation.endTime - reservation.startTime) / 3600 */\n      tag_101\n      swap2\n      swap1\n      tag_102\n      jump\t// in\n    tag_101:\n        /* \"SmartParking.sol\":2979:2991  parkingSpots */\n      0x00\n        /* \"SmartParking.sol\":2979:3018  parkingSpots[reservation.parkingSpotId] */\n      dup1\n        /* \"SmartParking.sol\":2992:3003  reservation */\n      dup5\n        /* \"SmartParking.sol\":2992:3017  reservation.parkingSpotId */\n      0x00\n      add\n      sload\n        /* \"SmartParking.sol\":2979:3018  parkingSpots[reservation.parkingSpotId] */\n      dup2\n      mstore\n      0x20\n      add\n      swap1\n      dup2\n      mstore\n      0x20\n      add\n      0x00\n      keccak256\n        /* \"SmartParking.sol\":2979:3029  parkingSpots[reservation.parkingSpotId].hourlyRate */\n      0x02\n      add\n      sload\n        /* \"SmartParking.sol\":2979:3086  parkingSpots[reservation.parkingSpotId].hourlyRate * ((reservation.endTime - reservation.startTime) / 3600) */\n      tag_103\n      swap2\n      swap1\n      tag_74\n      jump\t// in\n    tag_103:\n        /* \"SmartParking.sol\":2965:3086  uint refund = parkingSpots[reservation.parkingSpotId].hourlyRate * ((reservation.endTime - reservation.startTime) / 3600) */\n      swap1\n      pop\n        /* \"SmartParking.sol\":3105:3115  msg.sender */\n      caller\n        /* \"SmartParking.sol\":3097:3125  payable(msg.sender).transfer */\n      0xffffffffffffffffffffffffffffffffffffffff\n      and\n        /* \"SmartParking.sol\":3097:3133  payable(msg.sender).transfer(refund) */\n      0x08fc\n        /* \"SmartParking.sol\":3126:3132  refund */\n      dup3\n        /* \"SmartParking.sol\":3097:3133  payable(msg.sender).transfer(refund) */\n      swap1\n      dup2\n      iszero\n      mul\n      swap1\n      mload(0x40)\n      0x00\n      mload(0x40)\n      dup1\n      dup4\n      sub\n      dup2\n      dup6\n      dup9\n      dup9\n      call\n      swap4\n      pop\n      pop\n      pop\n      pop\n      iszero\n      dup1\n      iszero\n      tag_105\n      jumpi\n      returndatasize\n      0x00\n      dup1\n      returndatacopy\n      revert(0x00, returndatasize)\n    tag_105:\n      pop\n        /* \"SmartParking.sol\":2517:3141  {... */\n      pop\n      pop\n        /* \"SmartParking.sol\":2463:3141  function cancelReservation(uint reservationId) public {... */\n      pop\n      jump\t// out\n        /* \"SmartParking.sol\":1271:1590  function updateParkingSpot(uint id, uint hourlyRate) public {... */\n    tag_45:\n        /* \"SmartParking.sol\":1364:1369  owner */\n      0x04\n      0x00\n      swap1\n      sload\n      swap1\n      0x0100\n      exp\n      swap1\n      div\n      0xffffffffffffffffffffffffffffffffffffffff\n      and\n        /* \"SmartParking.sol\":1350:1369  msg.sender == owner */\n      0xffffffffffffffffffffffffffffffffffffffff\n      and\n        /* \"SmartParking.sol\":1350:1360  msg.sender */\n      caller\n        /* \"SmartParking.sol\":1350:1369  msg.sender == owner */\n      0xffffffffffffffffffffffffffffffffffffffff\n      and\n      eq\n        /* \"SmartParking.sol\":1342:1412  require(msg.sender == owner, \"Only an owner can access this function\") */\n      tag_107\n      jumpi\n      mload(0x40)\n      0x08c379a000000000000000000000000000000000000000000000000000000000\n      dup2\n      mstore\n      0x04\n      add\n      tag_108\n      swap1\n      tag_59\n      jump\t// in\n    tag_108:\n      mload(0x40)\n      dup1\n      swap2\n      sub\n      swap1\n      revert\n    tag_107:\n        /* \"SmartParking.sol\":1436:1453  parkingSpotsCount */\n      sload(0x02)\n        /* \"SmartParking.sol\":1431:1433  id */\n      dup3\n        /* \"SmartParking.sol\":1431:1453  id < parkingSpotsCount */\n      lt\n        /* \"SmartParking.sol\":1423:1481  require(id < parkingSpotsCount, \"Invalid parking spot ID\") */\n      tag_109\n      jumpi\n      mload(0x40)\n      0x08c379a000000000000000000000000000000000000000000000000000000000\n      dup2\n      mstore\n      0x04\n      add\n      tag_110\n      swap1\n      tag_69\n      jump\t// in\n    tag_110:\n      mload(0x40)\n      dup1\n      swap2\n      sub\n      swap1\n      revert\n    tag_109:\n        /* \"SmartParking.sol\":1522:1532  hourlyRate */\n      dup1\n        /* \"SmartParking.sol\":1492:1504  parkingSpots */\n      0x00\n        /* \"SmartParking.sol\":1492:1508  parkingSpots[id] */\n      dup1\n        /* \"SmartParking.sol\":1505:1507  id */\n      dup5\n        /* \"SmartParking.sol\":1492:1508  parkingSpots[id] */\n      dup2\n      mstore\n      0x20\n      add\n      swap1\n      dup2\n      mstore\n      0x20\n      add\n      0x00\n      keccak256\n        /* \"SmartParking.sol\":1492:1519  parkingSpots[id].hourlyRate */\n      0x02\n      add\n        /* \"SmartParking.sol\":1492:1532  parkingSpots[id].hourlyRate = hourlyRate */\n      dup2\n      swap1\n      sstore\n      pop\n        /* \"SmartParking.sol\":1548:1582  ParkingSpotUpdated(id, hourlyRate) */\n      0xda4e74bbf57aae4d09379d2ffdb6e596f1760a1cd5623421e5f1dd6e05afc655\n        /* \"SmartParking.sol\":1567:1569  id */\n      dup3\n        /* \"SmartParking.sol\":1571:1581  hourlyRate */\n      dup3\n        /* \"SmartParking.sol\":1548:1582  ParkingSpotUpdated(id, hourlyRate) */\n      mload(0x40)\n      tag_111\n      swap3\n      swap2\n      swap1\n      tag_61\n      jump\t// in\n    tag_111:\n      mload(0x40)\n      dup1\n      swap2\n      sub\n      swap1\n      log1\n        /* \"SmartParking.sol\":1271:1590  function updateParkingSpot(uint id, uint hourlyRate) public {... */\n      pop\n      pop\n      jump\t// out\n        /* \"SmartParking.sol\":480:513  uint public reservationsCount = 0 */\n    tag_48:\n      sload(0x03)\n      dup2\n      jump\t// out\n        /* \"SmartParking.sol\":330:378  mapping(uint => ParkingSpot) public parkingSpots */\n    tag_53:\n      mstore(0x20, 0x00)\n      dup1\n      0x00\n      mstore\n      keccak256(0x00, 0x40)\n      0x00\n      swap2\n      pop\n      swap1\n      pop\n      dup1\n      0x00\n      add\n      sload\n      swap1\n      dup1\n      0x01\n      add\n      0x00\n      swap1\n      sload\n      swap1\n      0x0100\n      exp\n      swap1\n      div\n      0xff\n      and\n      swap1\n      dup1\n      0x02\n      add\n      sload\n      swap1\n      pop\n      dup4\n      jump\t// out\n        /* \"#utility.yul\":88:205   */\n    tag_113:\n        /* \"#utility.yul\":197:198   */\n      0x00\n        /* \"#utility.yul\":194:195   */\n      dup1\n        /* \"#utility.yul\":187:199   */\n      revert\n        /* \"#utility.yul\":334:411   */\n    tag_115:\n        /* \"#utility.yul\":371:378   */\n      0x00\n        /* \"#utility.yul\":400:405   */\n      dup2\n        /* \"#utility.yul\":389:405   */\n      swap1\n      pop\n        /* \"#utility.yul\":334:411   */\n      swap2\n      swap1\n      pop\n      jump\t// out\n        /* \"#utility.yul\":417:539   */\n    tag_116:\n        /* \"#utility.yul\":490:514   */\n      tag_145\n        /* \"#utility.yul\":508:513   */\n      dup2\n        /* \"#utility.yul\":490:514   */\n      tag_115\n      jump\t// in\n    tag_145:\n        /* \"#utility.yul\":483:488   */\n      dup2\n        /* \"#utility.yul\":480:515   */\n      eq\n        /* \"#utility.yul\":470:533   */\n      tag_146\n      jumpi\n        /* \"#utility.yul\":529:530   */\n      0x00\n        /* \"#utility.yul\":526:527   */\n      dup1\n        /* \"#utility.yul\":519:531   */\n      revert\n        /* \"#utility.yul\":470:533   */\n    tag_146:\n        /* \"#utility.yul\":417:539   */\n      pop\n      jump\t// out\n        /* \"#utility.yul\":545:684   */\n    tag_117:\n        /* \"#utility.yul\":591:596   */\n      0x00\n        /* \"#utility.yul\":629:635   */\n      dup2\n        /* \"#utility.yul\":616:636   */\n      calldataload\n        /* \"#utility.yul\":607:636   */\n      swap1\n      pop\n        /* \"#utility.yul\":645:678   */\n      tag_148\n        /* \"#utility.yul\":672:677   */\n      dup2\n        /* \"#utility.yul\":645:678   */\n      tag_116\n      jump\t// in\n    tag_148:\n        /* \"#utility.yul\":545:684   */\n      swap3\n      swap2\n      pop\n      pop\n      jump\t// out\n        /* \"#utility.yul\":690:1019   */\n    tag_15:\n        /* \"#utility.yul\":749:755   */\n      0x00\n        /* \"#utility.yul\":798:800   */\n      0x20\n        /* \"#utility.yul\":786:795   */\n      dup3\n        /* \"#utility.yul\":777:784   */\n      dup5\n        /* \"#utility.yul\":773:796   */\n      sub\n        /* \"#utility.yul\":769:801   */\n      slt\n        /* \"#utility.yul\":766:885   */\n      iszero\n      tag_150\n      jumpi\n        /* \"#utility.yul\":804:883   */\n      tag_151\n      tag_113\n      jump\t// in\n    tag_151:\n        /* \"#utility.yul\":766:885   */\n    tag_150:\n        /* \"#utility.yul\":924:925   */\n      0x00\n        /* \"#utility.yul\":949:1002   */\n      tag_152\n        /* \"#utility.yul\":994:1001   */\n      dup5\n        /* \"#utility.yul\":985:991   */\n      dup3\n        /* \"#utility.yul\":974:983   */\n      dup6\n        /* \"#utility.yul\":970:992   */\n      add\n        /* \"#utility.yul\":949:1002   */\n      tag_117\n      jump\t// in\n    tag_152:\n        /* \"#utility.yul\":939:1002   */\n      swap2\n      pop\n        /* \"#utility.yul\":895:1012   */\n      pop\n        /* \"#utility.yul\":690:1019   */\n      swap3\n      swap2\n      pop\n      pop\n      jump\t// out\n        /* \"#utility.yul\":1025:1143   */\n    tag_118:\n        /* \"#utility.yul\":1112:1136   */\n      tag_154\n        /* \"#utility.yul\":1130:1135   */\n      dup2\n        /* \"#utility.yul\":1112:1136   */\n      tag_115\n      jump\t// in\n    tag_154:\n        /* \"#utility.yul\":1107:1110   */\n      dup3\n        /* \"#utility.yul\":1100:1137   */\n      mstore\n        /* \"#utility.yul\":1025:1143   */\n      pop\n      pop\n      jump\t// out\n        /* \"#utility.yul\":1149:1275   */\n    tag_119:\n        /* \"#utility.yul\":1186:1193   */\n      0x00\n        /* \"#utility.yul\":1226:1268   */\n      0xffffffffffffffffffffffffffffffffffffffff\n        /* \"#utility.yul\":1219:1224   */\n      dup3\n        /* \"#utility.yul\":1215:1269   */\n      and\n        /* \"#utility.yul\":1204:1269   */\n      swap1\n      pop\n        /* \"#utility.yul\":1149:1275   */\n      swap2\n      swap1\n      pop\n      jump\t// out\n        /* \"#utility.yul\":1281:1377   */\n    tag_120:\n        /* \"#utility.yul\":1318:1325   */\n      0x00\n        /* \"#utility.yul\":1347:1371   */\n      tag_157\n        /* \"#utility.yul\":1365:1370   */\n      dup3\n        /* \"#utility.yul\":1347:1371   */\n      tag_119\n      jump\t// in\n    tag_157:\n        /* \"#utility.yul\":1336:1371   */\n      swap1\n      pop\n        /* \"#utility.yul\":1281:1377   */\n      swap2\n      swap1\n      pop\n      jump\t// out\n        /* \"#utility.yul\":1383:1501   */\n    tag_121:\n        /* \"#utility.yul\":1470:1494   */\n      tag_159\n        /* \"#utility.yul\":1488:1493   */\n      dup2\n        /* \"#utility.yul\":1470:1494   */\n      tag_120\n      jump\t// in\n    tag_159:\n        /* \"#utility.yul\":1465:1468   */\n      dup3\n        /* \"#utility.yul\":1458:1495   */\n      mstore\n        /* \"#utility.yul\":1383:1501   */\n      pop\n      pop\n      jump\t// out\n        /* \"#utility.yul\":1507:2060   */\n    tag_18:\n        /* \"#utility.yul\":1684:1688   */\n      0x00\n        /* \"#utility.yul\":1722:1725   */\n      0x80\n        /* \"#utility.yul\":1711:1720   */\n      dup3\n        /* \"#utility.yul\":1707:1726   */\n      add\n        /* \"#utility.yul\":1699:1726   */\n      swap1\n      pop\n        /* \"#utility.yul\":1736:1807   */\n      tag_161\n        /* \"#utility.yul\":1804:1805   */\n      0x00\n        /* \"#utility.yul\":1793:1802   */\n      dup4\n        /* \"#utility.yul\":1789:1806   */\n      add\n        /* \"#utility.yul\":1780:1786   */\n      dup8\n        /* \"#utility.yul\":1736:1807   */\n      tag_118\n      jump\t// in\n    tag_161:\n        /* \"#utility.yul\":1817:1889   */\n      tag_162\n        /* \"#utility.yul\":1885:1887   */\n      0x20\n        /* \"#utility.yul\":1874:1883   */\n      dup4\n        /* \"#utility.yul\":1870:1888   */\n      add\n        /* \"#utility.yul\":1861:1867   */\n      dup7\n        /* \"#utility.yul\":1817:1889   */\n      tag_121\n      jump\t// in\n    tag_162:\n        /* \"#utility.yul\":1899:1971   */\n      tag_163\n        /* \"#utility.yul\":1967:1969   */\n      0x40\n        /* \"#utility.yul\":1956:1965   */\n      dup4\n        /* \"#utility.yul\":1952:1970   */\n      add\n        /* \"#utility.yul\":1943:1949   */\n      dup6\n        /* \"#utility.yul\":1899:1971   */\n      tag_118\n      jump\t// in\n    tag_163:\n        /* \"#utility.yul\":1981:2053   */\n      tag_164\n        /* \"#utility.yul\":2049:2051   */\n      0x60\n        /* \"#utility.yul\":2038:2047   */\n      dup4\n        /* \"#utility.yul\":2034:2052   */\n      add\n        /* \"#utility.yul\":2025:2031   */\n      dup5\n        /* \"#utility.yul\":1981:2053   */\n      tag_118\n      jump\t// in\n    tag_164:\n        /* \"#utility.yul\":1507:2060   */\n      swap6\n      swap5\n      pop\n      pop\n      pop\n      pop\n      pop\n      jump\t// out\n        /* \"#utility.yul\":2066:2288   */\n    tag_24:\n        /* \"#utility.yul\":2159:2163   */\n      0x00\n        /* \"#utility.yul\":2197:2199   */\n      0x20\n        /* \"#utility.yul\":2186:2195   */\n      dup3\n        /* \"#utility.yul\":2182:2200   */\n      add\n        /* \"#utility.yul\":2174:2200   */\n      swap1\n      pop\n        /* \"#utility.yul\":2210:2281   */\n      tag_166\n        /* \"#utility.yul\":2278:2279   */\n      0x00\n        /* \"#utility.yul\":2267:2276   */\n      dup4\n        /* \"#utility.yul\":2263:2280   */\n      add\n        /* \"#utility.yul\":2254:2260   */\n      dup5\n        /* \"#utility.yul\":2210:2281   */\n      tag_118\n      jump\t// in\n    tag_166:\n        /* \"#utility.yul\":2066:2288   */\n      swap3\n      swap2\n      pop\n      pop\n      jump\t// out\n        /* \"#utility.yul\":2294:2768   */\n    tag_31:\n        /* \"#utility.yul\":2362:2368   */\n      0x00\n        /* \"#utility.yul\":2370:2376   */\n      dup1\n        /* \"#utility.yul\":2419:2421   */\n      0x40\n        /* \"#utility.yul\":2407:2416   */\n      dup4\n        /* \"#utility.yul\":2398:2405   */\n      dup6\n        /* \"#utility.yul\":2394:2417   */\n      sub\n        /* \"#utility.yul\":2390:2422   */\n      slt\n        /* \"#utility.yul\":2387:2506   */\n      iszero\n      tag_168\n      jumpi\n        /* \"#utility.yul\":2425:2504   */\n      tag_169\n      tag_113\n      jump\t// in\n    tag_169:\n        /* \"#utility.yul\":2387:2506   */\n    tag_168:\n        /* \"#utility.yul\":2545:2546   */\n      0x00\n        /* \"#utility.yul\":2570:2623   */\n      tag_170\n        /* \"#utility.yul\":2615:2622   */\n      dup6\n        /* \"#utility.yul\":2606:2612   */\n      dup3\n        /* \"#utility.yul\":2595:2604   */\n      dup7\n        /* \"#utility.yul\":2591:2613   */\n      add\n        /* \"#utility.yul\":2570:2623   */\n      tag_117\n      jump\t// in\n    tag_170:\n        /* \"#utility.yul\":2560:2623   */\n      swap3\n      pop\n        /* \"#utility.yul\":2516:2633   */\n      pop\n        /* \"#utility.yul\":2672:2674   */\n      0x20\n        /* \"#utility.yul\":2698:2751   */\n      tag_171\n        /* \"#utility.yul\":2743:2750   */\n      dup6\n        /* \"#utility.yul\":2734:2740   */\n      dup3\n        /* \"#utility.yul\":2723:2732   */\n      dup7\n        /* \"#utility.yul\":2719:2741   */\n      add\n        /* \"#utility.yul\":2698:2751   */\n      tag_117\n      jump\t// in\n    tag_171:\n        /* \"#utility.yul\":2688:2751   */\n      swap2\n      pop\n        /* \"#utility.yul\":2643:2761   */\n      pop\n        /* \"#utility.yul\":2294:2768   */\n      swap3\n      pop\n      swap3\n      swap1\n      pop\n      jump\t// out\n        /* \"#utility.yul\":2774:2996   */\n    tag_37:\n        /* \"#utility.yul\":2867:2871   */\n      0x00\n        /* \"#utility.yul\":2905:2907   */\n      0x20\n        /* \"#utility.yul\":2894:2903   */\n      dup3\n        /* \"#utility.yul\":2890:2908   */\n      add\n        /* \"#utility.yul\":2882:2908   */\n      swap1\n      pop\n        /* \"#utility.yul\":2918:2989   */\n      tag_173\n        /* \"#utility.yul\":2986:2987   */\n      0x00\n        /* \"#utility.yul\":2975:2984   */\n      dup4\n        /* \"#utility.yul\":2971:2988   */\n      add\n        /* \"#utility.yul\":2962:2968   */\n      dup5\n        /* \"#utility.yul\":2918:2989   */\n      tag_121\n      jump\t// in\n    tag_173:\n        /* \"#utility.yul\":2774:2996   */\n      swap3\n      swap2\n      pop\n      pop\n      jump\t// out\n        /* \"#utility.yul\":3002:3092   */\n    tag_122:\n        /* \"#utility.yul\":3036:3043   */\n      0x00\n        /* \"#utility.yul\":3079:3084   */\n      dup2\n        /* \"#utility.yul\":3072:3085   */\n      iszero\n        /* \"#utility.yul\":3065:3086   */\n      iszero\n        /* \"#utility.yul\":3054:3086   */\n      swap1\n      pop\n        /* \"#utility.yul\":3002:3092   */\n      swap2\n      swap1\n      pop\n      jump\t// out\n        /* \"#utility.yul\":3098:3207   */\n    tag_123:\n        /* \"#utility.yul\":3179:3200   */\n      tag_176\n        /* \"#utility.yul\":3194:3199   */\n      dup2\n        /* \"#utility.yul\":3179:3200   */\n      tag_122\n      jump\t// in\n    tag_176:\n        /* \"#utility.yul\":3174:3177   */\n      dup3\n        /* \"#utility.yul\":3167:3201   */\n      mstore\n        /* \"#utility.yul\":3098:3207   */\n      pop\n      pop\n      jump\t// out\n        /* \"#utility.yul\":3213:3643   */\n    tag_55:\n        /* \"#utility.yul\":3356:3360   */\n      0x00\n        /* \"#utility.yul\":3394:3396   */\n      0x60\n        /* \"#utility.yul\":3383:3392   */\n      dup3\n        /* \"#utility.yul\":3379:3397   */\n      add\n        /* \"#utility.yul\":3371:3397   */\n      swap1\n      pop\n        /* \"#utility.yul\":3407:3478   */\n      tag_178\n        /* \"#utility.yul\":3475:3476   */\n      0x00\n        /* \"#utility.yul\":3464:3473   */\n      dup4\n        /* \"#utility.yul\":3460:3477   */\n      add\n        /* \"#utility.yul\":3451:3457   */\n      dup7\n        /* \"#utility.yul\":3407:3478   */\n      tag_118\n      jump\t// in\n    tag_178:\n        /* \"#utility.yul\":3488:3554   */\n      tag_179\n        /* \"#utility.yul\":3550:3552   */\n      0x20\n        /* \"#utility.yul\":3539:3548   */\n      dup4\n        /* \"#utility.yul\":3535:3553   */\n      add\n        /* \"#utility.yul\":3526:3532   */\n      dup6\n        /* \"#utility.yul\":3488:3554   */\n      tag_123\n      jump\t// in\n    tag_179:\n        /* \"#utility.yul\":3564:3636   */\n      tag_180\n        /* \"#utility.yul\":3632:3634   */\n      0x40\n        /* \"#utility.yul\":3621:3630   */\n      dup4\n        /* \"#utility.yul\":3617:3635   */\n      add\n        /* \"#utility.yul\":3608:3614   */\n      dup5\n        /* \"#utility.yul\":3564:3636   */\n      tag_118\n      jump\t// in\n    tag_180:\n        /* \"#utility.yul\":3213:3643   */\n      swap5\n      swap4\n      pop\n      pop\n      pop\n      pop\n      jump\t// out\n        /* \"#utility.yul\":3649:3818   */\n    tag_124:\n        /* \"#utility.yul\":3733:3744   */\n      0x00\n        /* \"#utility.yul\":3767:3773   */\n      dup3\n        /* \"#utility.yul\":3762:3765   */\n      dup3\n        /* \"#utility.yul\":3755:3774   */\n      mstore\n        /* \"#utility.yul\":3807:3811   */\n      0x20\n        /* \"#utility.yul\":3802:3805   */\n      dup3\n        /* \"#utility.yul\":3798:3812   */\n      add\n        /* \"#utility.yul\":3783:3812   */\n      swap1\n      pop\n        /* \"#utility.yul\":3649:3818   */\n      swap3\n      swap2\n      pop\n      pop\n      jump\t// out\n        /* \"#utility.yul\":3824:4049   */\n    tag_125:\n        /* \"#utility.yul\":3964:3998   */\n      0x4f6e6c7920616e206f776e65722063616e206163636573732074686973206675\n        /* \"#utility.yul\":3960:3961   */\n      0x00\n        /* \"#utility.yul\":3952:3958   */\n      dup3\n        /* \"#utility.yul\":3948:3962   */\n      add\n        /* \"#utility.yul\":3941:3999   */\n      mstore\n        /* \"#utility.yul\":4033:4041   */\n      0x6e6374696f6e0000000000000000000000000000000000000000000000000000\n        /* \"#utility.yul\":4028:4030   */\n      0x20\n        /* \"#utility.yul\":4020:4026   */\n      dup3\n        /* \"#utility.yul\":4016:4031   */\n      add\n        /* \"#utility.yul\":4009:4042   */\n      mstore\n        /* \"#utility.yul\":3824:4049   */\n      pop\n      jump\t// out\n        /* \"#utility.yul\":4055:4421   */\n    tag_126:\n        /* \"#utility.yul\":4197:4200   */\n      0x00\n        /* \"#utility.yul\":4218:4285   */\n      tag_184\n        /* \"#utility.yul\":4282:4284   */\n      0x26\n        /* \"#utility.yul\":4277:4280   */\n      dup4\n        /* \"#utility.yul\":4218:4285   */\n      tag_124\n      jump\t// in\n    tag_184:\n        /* \"#utility.yul\":4211:4285   */\n      swap2\n      pop\n        /* \"#utility.yul\":4294:4387   */\n      tag_185\n        /* \"#utility.yul\":4383:4386   */\n      dup3\n        /* \"#utility.yul\":4294:4387   */\n      tag_125\n      jump\t// in\n    tag_185:\n        /* \"#utility.yul\":4412:4414   */\n      0x40\n        /* \"#utility.yul\":4407:4410   */\n      dup3\n        /* \"#utility.yul\":4403:4415   */\n      add\n        /* \"#utility.yul\":4396:4415   */\n      swap1\n      pop\n        /* \"#utility.yul\":4055:4421   */\n      swap2\n      swap1\n      pop\n      jump\t// out\n        /* \"#utility.yul\":4427:4846   */\n    tag_59:\n        /* \"#utility.yul\":4593:4597   */\n      0x00\n        /* \"#utility.yul\":4631:4633   */\n      0x20\n        /* \"#utility.yul\":4620:4629   */\n      dup3\n        /* \"#utility.yul\":4616:4634   */\n      add\n        /* \"#utility.yul\":4608:4634   */\n      swap1\n      pop\n        /* \"#utility.yul\":4680:4689   */\n      dup2\n        /* \"#utility.yul\":4674:4678   */\n      dup2\n        /* \"#utility.yul\":4670:4690   */\n      sub\n        /* \"#utility.yul\":4666:4667   */\n      0x00\n        /* \"#utility.yul\":4655:4664   */\n      dup4\n        /* \"#utility.yul\":4651:4668   */\n      add\n        /* \"#utility.yul\":4644:4691   */\n      mstore\n        /* \"#utility.yul\":4708:4839   */\n      tag_187\n        /* \"#utility.yul\":4834:4838   */\n      dup2\n        /* \"#utility.yul\":4708:4839   */\n      tag_126\n      jump\t// in\n    tag_187:\n        /* \"#utility.yul\":4700:4839   */\n      swap1\n      pop\n        /* \"#utility.yul\":4427:4846   */\n      swap2\n      swap1\n      pop\n      jump\t// out\n        /* \"#utility.yul\":4852:5184   */\n    tag_61:\n        /* \"#utility.yul\":4973:4977   */\n      0x00\n        /* \"#utility.yul\":5011:5013   */\n      0x40\n        /* \"#utility.yul\":5000:5009   */\n      dup3\n        /* \"#utility.yul\":4996:5014   */\n      add\n        /* \"#utility.yul\":4988:5014   */\n      swap1\n      pop\n        /* \"#utility.yul\":5024:5095   */\n      tag_189\n        /* \"#utility.yul\":5092:5093   */\n      0x00\n        /* \"#utility.yul\":5081:5090   */\n      dup4\n        /* \"#utility.yul\":5077:5094   */\n      add\n        /* \"#utility.yul\":5068:5074   */\n      dup6\n        /* \"#utility.yul\":5024:5095   */\n      tag_118\n      jump\t// in\n    tag_189:\n        /* \"#utility.yul\":5105:5177   */\n      tag_190\n        /* \"#utility.yul\":5173:5175   */\n      0x20\n        /* \"#utility.yul\":5162:5171   */\n      dup4\n        /* \"#utility.yul\":5158:5176   */\n      add\n        /* \"#utility.yul\":5149:5155   */\n      dup5\n        /* \"#utility.yul\":5105:5177   */\n      tag_118\n      jump\t// in\n    tag_190:\n        /* \"#utility.yul\":4852:5184   */\n      swap4\n      swap3\n      pop\n      pop\n      pop\n      jump\t// out\n        /* \"#utility.yul\":5190:5370   */\n    tag_127:\n        /* \"#utility.yul\":5238:5315   */\n      0x4e487b7100000000000000000000000000000000000000000000000000000000\n        /* \"#utility.yul\":5235:5236   */\n      0x00\n        /* \"#utility.yul\":5228:5316   */\n      mstore\n        /* \"#utility.yul\":5335:5339   */\n      0x11\n        /* \"#utility.yul\":5332:5333   */\n      0x04\n        /* \"#utility.yul\":5325:5340   */\n      mstore\n        /* \"#utility.yul\":5359:5363   */\n      0x24\n        /* \"#utility.yul\":5356:5357   */\n      0x00\n        /* \"#utility.yul\":5349:5364   */\n      revert\n        /* \"#utility.yul\":5376:5609   */\n    tag_63:\n        /* \"#utility.yul\":5415:5418   */\n      0x00\n        /* \"#utility.yul\":5438:5462   */\n      tag_193\n        /* \"#utility.yul\":5456:5461   */\n      dup3\n        /* \"#utility.yul\":5438:5462   */\n      tag_115\n      jump\t// in\n    tag_193:\n        /* \"#utility.yul\":5429:5462   */\n      swap2\n      pop\n        /* \"#utility.yul\":5484:5550   */\n      0xffffffffffffffffffffffffffffffffffffffffffffffffffffffffffffffff\n        /* \"#utility.yul\":5477:5482   */\n      dup3\n        /* \"#utility.yul\":5474:5551   */\n      sub\n        /* \"#utility.yul\":5471:5574   */\n      tag_194\n      jumpi\n        /* \"#utility.yul\":5554:5572   */\n      tag_195\n      tag_127\n      jump\t// in\n    tag_195:\n        /* \"#utility.yul\":5471:5574   */\n    tag_194:\n        /* \"#utility.yul\":5601:5602   */\n      0x01\n        /* \"#utility.yul\":5594:5599   */\n      dup3\n        /* \"#utility.yul\":5590:5603   */\n      add\n        /* \"#utility.yul\":5583:5603   */\n      swap1\n      pop\n        /* \"#utility.yul\":5376:5609   */\n      swap2\n      swap1\n      pop\n      jump\t// out\n        /* \"#utility.yul\":5615:5809   */\n    tag_65:\n        /* \"#utility.yul\":5655:5659   */\n      0x00\n        /* \"#utility.yul\":5675:5695   */\n      tag_197\n        /* \"#utility.yul\":5693:5694   */\n      dup3\n        /* \"#utility.yul\":5675:5695   */\n      tag_115\n      jump\t// in\n    tag_197:\n        /* \"#utility.yul\":5670:5695   */\n      swap2\n      pop\n        /* \"#utility.yul\":5709:5729   */\n      tag_198\n        /* \"#utility.yul\":5727:5728   */\n      dup4\n        /* \"#utility.yul\":5709:5729   */\n      tag_115\n      jump\t// in\n    tag_198:\n        /* \"#utility.yul\":5704:5729   */\n      swap3\n      pop\n        /* \"#utility.yul\":5753:5754   */\n      dup3\n        /* \"#utility.yul\":5750:5751   */\n      dup3\n        /* \"#utility.yul\":5746:5755   */\n      sub\n        /* \"#utility.yul\":5738:5755   */\n      swap1\n      pop\n        /* \"#utility.yul\":5777:5778   */\n      dup2\n        /* \"#utility.yul\":5771:5775   */\n      dup2\n        /* \"#utility.yul\":5768:5779   */\n      gt\n        /* \"#utility.yul\":5765:5802   */\n      iszero\n      tag_199\n      jumpi\n        /* \"#utility.yul\":5782:5800   */\n      tag_200\n      tag_127\n      jump\t// in\n    tag_200:\n        /* \"#utility.yul\":5765:5802   */\n    tag_199:\n        /* \"#utility.yul\":5615:5809   */\n      swap3\n      swap2\n      pop\n      pop\n      jump\t// out\n        /* \"#utility.yul\":5815:5988   */\n    tag_128:\n        /* \"#utility.yul\":5955:5980   */\n      0x496e76616c6964207061726b696e672073706f74204944000000000000000000\n        /* \"#utility.yul\":5951:5952   */\n      0x00\n        /* \"#utility.yul\":5943:5949   */\n      dup3\n        /* \"#utility.yul\":5939:5953   */\n      add\n        /* \"#utility.yul\":5932:5981   */\n      mstore\n        /* \"#utility.yul\":5815:5988   */\n      pop\n      jump\t// out\n        /* \"#utility.yul\":5994:6360   */\n    tag_129:\n        /* \"#utility.yul\":6136:6139   */\n      0x00\n        /* \"#utility.yul\":6157:6224   */\n      tag_203\n        /* \"#utility.yul\":6221:6223   */\n      0x17\n        /* \"#utility.yul\":6216:6219   */\n      dup4\n        /* \"#utility.yul\":6157:6224   */\n      tag_124\n      jump\t// in\n    tag_203:\n        /* \"#utility.yul\":6150:6224   */\n      swap2\n      pop\n        /* \"#utility.yul\":6233:6326   */\n      tag_204\n        /* \"#utility.yul\":6322:6325   */\n      dup3\n        /* \"#utility.yul\":6233:6326   */\n      tag_128\n      jump\t// in\n    tag_204:\n        /* \"#utility.yul\":6351:6353   */\n      0x20\n        /* \"#utility.yul\":6346:6349   */\n      dup3\n        /* \"#utility.yul\":6342:6354   */\n      add\n        /* \"#utility.yul\":6335:6354   */\n      swap1\n      pop\n        /* \"#utility.yul\":5994:6360   */\n      swap2\n      swap1\n      pop\n      jump\t// out\n        /* \"#utility.yul\":6366:6785   */\n    tag_69:\n        /* \"#utility.yul\":6532:6536   */\n      0x00\n        /* \"#utility.yul\":6570:6572   */\n      0x20\n        /* \"#utility.yul\":6559:6568   */\n      dup3\n        /* \"#utility.yul\":6555:6573   */\n      add\n        /* \"#utility.yul\":6547:6573   */\n      swap1\n      pop\n        /* \"#utility.yul\":6619:6628   */\n      dup2\n        /* \"#utility.yul\":6613:6617   */\n      dup2\n        /* \"#utility.yul\":6609:6629   */\n      sub\n        /* \"#utility.yul\":6605:6606   */\n      0x00\n        /* \"#utility.yul\":6594:6603   */\n      dup4\n        /* \"#utility.yul\":6590:6607   */\n      add\n        /* \"#utility.yul\":6583:6630   */\n      mstore\n        /* \"#utility.yul\":6647:6778   */\n      tag_206\n        /* \"#utility.yul\":6773:6777   */\n      dup2\n        /* \"#utility.yul\":6647:6778   */\n      tag_129\n      jump\t// in\n    tag_206:\n        /* \"#utility.yul\":6639:6778   */\n      swap1\n      pop\n        /* \"#utility.yul\":6366:6785   */\n      swap2\n      swap1\n      pop\n      jump\t// out\n        /* \"#utility.yul\":6791:6970   */\n    tag_130:\n        /* \"#utility.yul\":6931:6962   */\n      0x5061726b696e672073706f74206973206e6f7420617661696c61626c65000000\n        /* \"#utility.yul\":6927:6928   */\n      0x00\n        /* \"#utility.yul\":6919:6925   */\n      dup3\n        /* \"#utility.yul\":6915:6929   */\n      add\n        /* \"#utility.yul\":6908:6963   */\n      mstore\n        /* \"#utility.yul\":6791:6970   */\n      pop\n      jump\t// out\n        /* \"#utility.yul\":6976:7342   */\n    tag_131:\n        /* \"#utility.yul\":7118:7121   */\n      0x00\n        /* \"#utility.yul\":7139:7206   */\n      tag_209\n        /* \"#utility.yul\":7203:7205   */\n      0x1d\n        /* \"#utility.yul\":7198:7201   */\n      dup4\n        /* \"#utility.yul\":7139:7206   */\n      tag_124\n      jump\t// in\n    tag_209:\n        /* \"#utility.yul\":7132:7206   */\n      swap2\n      pop\n        /* \"#utility.yul\":7215:7308   */\n      tag_210\n        /* \"#utility.yul\":7304:7307   */\n      dup3\n        /* \"#utility.yul\":7215:7308   */\n      tag_130\n      jump\t// in\n    tag_210:\n        /* \"#utility.yul\":7333:7335   */\n      0x20\n        /* \"#utility.yul\":7328:7331   */\n      dup3\n        /* \"#utility.yul\":7324:7336   */\n      add\n        /* \"#utility.yul\":7317:7336   */\n      swap1\n      pop\n        /* \"#utility.yul\":6976:7342   */\n      swap2\n      swap1\n      pop\n      jump\t// out\n        /* \"#utility.yul\":7348:7767   */\n    tag_72:\n        /* \"#utility.yul\":7514:7518   */\n      0x00\n        /* \"#utility.yul\":7552:7554   */\n      0x20\n        /* \"#utility.yul\":7541:7550   */\n      dup3\n        /* \"#utility.yul\":7537:7555   */\n      add\n        /* \"#utility.yul\":7529:7555   */\n      swap1\n      pop\n        /* \"#utility.yul\":7601:7610   */\n      dup2\n        /* \"#utility.yul\":7595:7599   */\n      dup2\n        /* \"#utility.yul\":7591:7611   */\n      sub\n        /* \"#utility.yul\":7587:7588   */\n      0x00\n        /* \"#utility.yul\":7576:7585   */\n      dup4\n        /* \"#utility.yul\":7572:7589   */\n      add\n        /* \"#utility.yul\":7565:7612   */\n      mstore\n        /* \"#utility.yul\":7629:7760   */\n      tag_212\n        /* \"#utility.yul\":7755:7759   */\n      dup2\n        /* \"#utility.yul\":7629:7760   */\n      tag_131\n      jump\t// in\n    tag_212:\n        /* \"#utility.yul\":7621:7760   */\n      swap1\n      pop\n        /* \"#utility.yul\":7348:7767   */\n      swap2\n      swap1\n      pop\n      jump\t// out\n        /* \"#utility.yul\":7773:8183   */\n    tag_74:\n        /* \"#utility.yul\":7813:7820   */\n      0x00\n        /* \"#utility.yul\":7836:7856   */\n      tag_214\n        /* \"#utility.yul\":7854:7855   */\n      dup3\n        /* \"#utility.yul\":7836:7856   */\n      tag_115\n      jump\t// in\n    tag_214:\n        /* \"#utility.yul\":7831:7856   */\n      swap2\n      pop\n        /* \"#utility.yul\":7870:7890   */\n      tag_215\n        /* \"#utility.yul\":7888:7889   */\n      dup4\n        /* \"#utility.yul\":7870:7890   */\n      tag_115\n      jump\t// in\n    tag_215:\n        /* \"#utility.yul\":7865:7890   */\n      swap3\n      pop\n        /* \"#utility.yul\":7925:7926   */\n      dup3\n        /* \"#utility.yul\":7922:7923   */\n      dup3\n        /* \"#utility.yul\":7918:7927   */\n      mul\n        /* \"#utility.yul\":7947:7977   */\n      tag_216\n        /* \"#utility.yul\":7965:7976   */\n      dup2\n        /* \"#utility.yul\":7947:7977   */\n      tag_115\n      jump\t// in\n    tag_216:\n        /* \"#utility.yul\":7936:7977   */\n      swap2\n      pop\n        /* \"#utility.yul\":8126:8127   */\n      dup3\n        /* \"#utility.yul\":8117:8124   */\n      dup3\n        /* \"#utility.yul\":8113:8128   */\n      div\n        /* \"#utility.yul\":8110:8111   */\n      dup5\n        /* \"#utility.yul\":8107:8129   */\n      eq\n        /* \"#utility.yul\":8087:8088   */\n      dup4\n        /* \"#utility.yul\":8080:8089   */\n      iszero\n        /* \"#utility.yul\":8060:8143   */\n      or\n        /* \"#utility.yul\":8037:8176   */\n      tag_217\n      jumpi\n        /* \"#utility.yul\":8156:8174   */\n      tag_218\n      tag_127\n      jump\t// in\n    tag_218:\n        /* \"#utility.yul\":8037:8176   */\n    tag_217:\n        /* \"#utility.yul\":7821:8183   */\n      pop\n        /* \"#utility.yul\":7773:8183   */\n      swap3\n      swap2\n      pop\n      pop\n      jump\t// out\n        /* \"#utility.yul\":8189:8357   */\n    tag_132:\n        /* \"#utility.yul\":8329:8349   */\n      0x496e73756666696369656e742066756e64730000000000000000000000000000\n        /* \"#utility.yul\":8325:8326   */\n      0x00\n        /* \"#utility.yul\":8317:8323   */\n      dup3\n        /* \"#utility.yul\":8313:8327   */\n      add\n        /* \"#utility.yul\":8306:8350   */\n      mstore\n        /* \"#utility.yul\":8189:8357   */\n      pop\n      jump\t// out\n        /* \"#utility.yul\":8363:8729   */\n    tag_133:\n        /* \"#utility.yul\":8505:8508   */\n      0x00\n        /* \"#utility.yul\":8526:8593   */\n      tag_221\n        /* \"#utility.yul\":8590:8592   */\n      0x12\n        /* \"#utility.yul\":8585:8588   */\n      dup4\n        /* \"#utility.yul\":8526:8593   */\n      tag_124\n      jump\t// in\n    tag_221:\n        /* \"#utility.yul\":8519:8593   */\n      swap2\n      pop\n        /* \"#utility.yul\":8602:8695   */\n      tag_222\n        /* \"#utility.yul\":8691:8694   */\n      dup3\n        /* \"#utility.yul\":8602:8695   */\n      tag_132\n      jump\t// in\n    tag_222:\n        /* \"#utility.yul\":8720:8722   */\n      0x20\n        /* \"#utility.yul\":8715:8718   */\n      dup3\n        /* \"#utility.yul\":8711:8723   */\n      add\n        /* \"#utility.yul\":8704:8723   */\n      swap1\n      pop\n        /* \"#utility.yul\":8363:8729   */\n      swap2\n      swap1\n      pop\n      jump\t// out\n        /* \"#utility.yul\":8735:9154   */\n    tag_77:\n        /* \"#utility.yul\":8901:8905   */\n      0x00\n        /* \"#utility.yul\":8939:8941   */\n      0x20\n        /* \"#utility.yul\":8928:8937   */\n      dup3\n        /* \"#utility.yul\":8924:8942   */\n      add\n        /* \"#utility.yul\":8916:8942   */\n      swap1\n      pop\n        /* \"#utility.yul\":8988:8997   */\n      dup2\n        /* \"#utility.yul\":8982:8986   */\n      dup2\n        /* \"#utility.yul\":8978:8998   */\n      sub\n        /* \"#utility.yul\":8974:8975   */\n      0x00\n        /* \"#utility.yul\":8963:8972   */\n      dup4\n        /* \"#utility.yul\":8959:8976   */\n      add\n        /* \"#utility.yul\":8952:8999   */\n      mstore\n        /* \"#utility.yul\":9016:9147   */\n      tag_224\n        /* \"#utility.yul\":9142:9146   */\n      dup2\n        /* \"#utility.yul\":9016:9147   */\n      tag_133\n      jump\t// in\n    tag_224:\n        /* \"#utility.yul\":9008:9147   */\n      swap1\n      pop\n        /* \"#utility.yul\":8735:9154   */\n      swap2\n      swap1\n      pop\n      jump\t// out\n        /* \"#utility.yul\":9160:9351   */\n    tag_80:\n        /* \"#utility.yul\":9200:9203   */\n      0x00\n        /* \"#utility.yul\":9219:9239   */\n      tag_226\n        /* \"#utility.yul\":9237:9238   */\n      dup3\n        /* \"#utility.yul\":9219:9239   */\n      tag_115\n      jump\t// in\n    tag_226:\n        /* \"#utility.yul\":9214:9239   */\n      swap2\n      pop\n        /* \"#utility.yul\":9253:9273   */\n      tag_227\n        /* \"#utility.yul\":9271:9272   */\n      dup4\n        /* \"#utility.yul\":9253:9273   */\n      tag_115\n      jump\t// in\n    tag_227:\n        /* \"#utility.yul\":9248:9273   */\n      swap3\n      pop\n        /* \"#utility.yul\":9296:9297   */\n      dup3\n        /* \"#utility.yul\":9293:9294   */\n      dup3\n        /* \"#utility.yul\":9289:9298   */\n      add\n        /* \"#utility.yul\":9282:9298   */\n      swap1\n      pop\n        /* \"#utility.yul\":9317:9320   */\n      dup1\n        /* \"#utility.yul\":9314:9315   */\n      dup3\n        /* \"#utility.yul\":9311:9321   */\n      gt\n        /* \"#utility.yul\":9308:9344   */\n      iszero\n      tag_228\n      jumpi\n        /* \"#utility.yul\":9324:9342   */\n      tag_229\n      tag_127\n      jump\t// in\n    tag_229:\n        /* \"#utility.yul\":9308:9344   */\n    tag_228:\n        /* \"#utility.yul\":9160:9351   */\n      swap3\n      swap2\n      pop\n      pop\n      jump\t// out\n        /* \"#utility.yul\":9357:10021   */\n    tag_84:\n        /* \"#utility.yul\":9562:9566   */\n      0x00\n        /* \"#utility.yul\":9600:9603   */\n      0xa0\n        /* \"#utility.yul\":9589:9598   */\n      dup3\n        /* \"#utility.yul\":9585:9604   */\n      add\n        /* \"#utility.yul\":9577:9604   */\n      swap1\n      pop\n        /* \"#utility.yul\":9614:9685   */\n      tag_231\n        /* \"#utility.yul\":9682:9683   */\n      0x00\n        /* \"#utility.yul\":9671:9680   */\n      dup4\n        /* \"#utility.yul\":9667:9684   */\n      add\n        /* \"#utility.yul\":9658:9664   */\n      dup9\n        /* \"#utility.yul\":9614:9685   */\n      tag_118\n      jump\t// in\n    tag_231:\n        /* \"#utility.yul\":9695:9767   */\n      tag_232\n        /* \"#utility.yul\":9763:9765   */\n      0x20\n        /* \"#utility.yul\":9752:9761   */\n      dup4\n        /* \"#utility.yul\":9748:9766   */\n      add\n        /* \"#utility.yul\":9739:9745   */\n      dup8\n        /* \"#utility.yul\":9695:9767   */\n      tag_118\n      jump\t// in\n    tag_232:\n        /* \"#utility.yul\":9777:9849   */\n      tag_233\n        /* \"#utility.yul\":9845:9847   */\n      0x40\n        /* \"#utility.yul\":9834:9843   */\n      dup4\n        /* \"#utility.yul\":9830:9848   */\n      add\n        /* \"#utility.yul\":9821:9827   */\n      dup7\n        /* \"#utility.yul\":9777:9849   */\n      tag_121\n      jump\t// in\n    tag_233:\n        /* \"#utility.yul\":9859:9931   */\n      tag_234\n        /* \"#utility.yul\":9927:9929   */\n      0x60\n        /* \"#utility.yul\":9916:9925   */\n      dup4\n        /* \"#utility.yul\":9912:9930   */\n      add\n        /* \"#utility.yul\":9903:9909   */\n      dup6\n        /* \"#utility.yul\":9859:9931   */\n      tag_118\n      jump\t// in\n    tag_234:\n        /* \"#utility.yul\":9941:10014   */\n      tag_235\n        /* \"#utility.yul\":10009:10012   */\n      0x80\n        /* \"#utility.yul\":9998:10007   */\n      dup4\n        /* \"#utility.yul\":9994:10013   */\n      add\n        /* \"#utility.yul\":9985:9991   */\n      dup5\n        /* \"#utility.yul\":9941:10014   */\n      tag_118\n      jump\t// in\n    tag_235:\n        /* \"#utility.yul\":9357:10021   */\n      swap7\n      swap6\n      pop\n      pop\n      pop\n      pop\n      pop\n      pop\n      jump\t// out\n        /* \"#utility.yul\":10027:10199   */\n    tag_134:\n        /* \"#utility.yul\":10167:10191   */\n      0x496e76616c6964207265736572766174696f6e20494400000000000000000000\n        /* \"#utility.yul\":10163:10164   */\n      0x00\n        /* \"#utility.yul\":10155:10161   */\n      dup3\n        /* \"#utility.yul\":10151:10165   */\n      add\n        /* \"#utility.yul\":10144:10192   */\n      mstore\n        /* \"#utility.yul\":10027:10199   */\n      pop\n      jump\t// out\n        /* \"#utility.yul\":10205:10571   */\n    tag_135:\n        /* \"#utility.yul\":10347:10350   */\n      0x00\n        /* \"#utility.yul\":10368:10435   */\n      tag_238\n        /* \"#utility.yul\":10432:10434   */\n      0x16\n        /* \"#utility.yul\":10427:10430   */\n      dup4\n        /* \"#utility.yul\":10368:10435   */\n      tag_124\n      jump\t// in\n    tag_238:\n        /* \"#utility.yul\":10361:10435   */\n      swap2\n      pop\n        /* \"#utility.yul\":10444:10537   */\n      tag_239\n        /* \"#utility.yul\":10533:10536   */\n      dup3\n        /* \"#utility.yul\":10444:10537   */\n      tag_134\n      jump\t// in\n    tag_239:\n        /* \"#utility.yul\":10562:10564   */\n      0x20\n        /* \"#utility.yul\":10557:10560   */\n      dup3\n        /* \"#utility.yul\":10553:10565   */\n      add\n        /* \"#utility.yul\":10546:10565   */\n      swap1\n      pop\n        /* \"#utility.yul\":10205:10571   */\n      swap2\n      swap1\n      pop\n      jump\t// out\n        /* \"#utility.yul\":10577:10996   */\n    tag_93:\n        /* \"#utility.yul\":10743:10747   */\n      0x00\n        /* \"#utility.yul\":10781:10783   */\n      0x20\n        /* \"#utility.yul\":10770:10779   */\n      dup3\n        /* \"#utility.yul\":10766:10784   */\n      add\n        /* \"#utility.yul\":10758:10784   */\n      swap1\n      pop\n        /* \"#utility.yul\":10830:10839   */\n      dup2\n        /* \"#utility.yul\":10824:10828   */\n      dup2\n        /* \"#utility.yul\":10820:10840   */\n      sub\n        /* \"#utility.yul\":10816:10817   */\n      0x00\n        /* \"#utility.yul\":10805:10814   */\n      dup4\n        /* \"#utility.yul\":10801:10818   */\n      add\n        /* \"#utility.yul\":10794:10841   */\n      mstore\n        /* \"#utility.yul\":10858:10989   */\n      tag_241\n        /* \"#utility.yul\":10984:10988   */\n      dup2\n        /* \"#utility.yul\":10858:10989   */\n      tag_135\n      jump\t// in\n    tag_241:\n        /* \"#utility.yul\":10850:10989   */\n      swap1\n      pop\n        /* \"#utility.yul\":10577:10996   */\n      swap2\n      swap1\n      pop\n      jump\t// out\n        /* \"#utility.yul\":11002:11225   */\n    tag_136:\n        /* \"#utility.yul\":11142:11176   */\n      0x4e6f7420617574686f72697a656420746f2063616e63656c2072657365727661\n        /* \"#utility.yul\":11138:11139   */\n      0x00\n        /* \"#utility.yul\":11130:11136   */\n      dup3\n        /* \"#utility.yul\":11126:11140   */\n      add\n        /* \"#utility.yul\":11119:11177   */\n      mstore\n        /* \"#utility.yul\":11211:11217   */\n      0x74696f6e00000000000000000000000000000000000000000000000000000000\n        /* \"#utility.yul\":11206:11208   */\n      0x20\n        /* \"#utility.yul\":11198:11204   */\n      dup3\n        /* \"#utility.yul\":11194:11209   */\n      add\n        /* \"#utility.yul\":11187:11218   */\n      mstore\n        /* \"#utility.yul\":11002:11225   */\n      pop\n      jump\t// out\n        /* \"#utility.yul\":11231:11597   */\n    tag_137:\n        /* \"#utility.yul\":11373:11376   */\n      0x00\n        /* \"#utility.yul\":11394:11461   */\n      tag_244\n        /* \"#utility.yul\":11458:11460   */\n      0x24\n        /* \"#utility.yul\":11453:11456   */\n      dup4\n        /* \"#utility.yul\":11394:11461   */\n      tag_124\n      jump\t// in\n    tag_244:\n        /* \"#utility.yul\":11387:11461   */\n      swap2\n      pop\n        /* \"#utility.yul\":11470:11563   */\n      tag_245\n        /* \"#utility.yul\":11559:11562   */\n      dup3\n        /* \"#utility.yul\":11470:11563   */\n      tag_136\n      jump\t// in\n    tag_245:\n        /* \"#utility.yul\":11588:11590   */\n      0x40\n        /* \"#utility.yul\":11583:11586   */\n      dup3\n        /* \"#utility.yul\":11579:11591   */\n      add\n        /* \"#utility.yul\":11572:11591   */\n      swap1\n      pop\n        /* \"#utility.yul\":11231:11597   */\n      swap2\n      swap1\n      pop\n      jump\t// out\n        /* \"#utility.yul\":11603:12022   */\n    tag_96:\n        /* \"#utility.yul\":11769:11773   */\n      0x00\n        /* \"#utility.yul\":11807:11809   */\n      0x20\n        /* \"#utility.yul\":11796:11805   */\n      dup3\n        /* \"#utility.yul\":11792:11810   */\n      add\n        /* \"#utility.yul\":11784:11810   */\n      swap1\n      pop\n        /* \"#utility.yul\":11856:11865   */\n      dup2\n        /* \"#utility.yul\":11850:11854   */\n      dup2\n        /* \"#utility.yul\":11846:11866   */\n      sub\n        /* \"#utility.yul\":11842:11843   */\n      0x00\n        /* \"#utility.yul\":11831:11840   */\n      dup4\n        /* \"#utility.yul\":11827:11844   */\n      add\n        /* \"#utility.yul\":11820:11867   */\n      mstore\n        /* \"#utility.yul\":11884:12015   */\n      tag_247\n        /* \"#utility.yul\":12010:12014   */\n      dup2\n        /* \"#utility.yul\":11884:12015   */\n      tag_137\n      jump\t// in\n    tag_247:\n        /* \"#utility.yul\":11876:12015   */\n      swap1\n      pop\n        /* \"#utility.yul\":11603:12022   */\n      swap2\n      swap1\n      pop\n      jump\t// out\n        /* \"#utility.yul\":12028:12199   */\n    tag_99:\n        /* \"#utility.yul\":12067:12070   */\n      0x00\n        /* \"#utility.yul\":12090:12114   */\n      tag_249\n        /* \"#utility.yul\":12108:12113   */\n      dup3\n        /* \"#utility.yul\":12090:12114   */\n      tag_115\n      jump\t// in\n    tag_249:\n        /* \"#utility.yul\":12081:12114   */\n      swap2\n      pop\n        /* \"#utility.yul\":12136:12140   */\n      0x00\n        /* \"#utility.yul\":12129:12134   */\n      dup3\n        /* \"#utility.yul\":12126:12141   */\n      sub\n        /* \"#utility.yul\":12123:12164   */\n      tag_250\n      jumpi\n        /* \"#utility.yul\":12144:12162   */\n      tag_251\n      tag_127\n      jump\t// in\n    tag_251:\n        /* \"#utility.yul\":12123:12164   */\n    tag_250:\n        /* \"#utility.yul\":12191:12192   */\n      0x01\n        /* \"#utility.yul\":12184:12189   */\n      dup3\n        /* \"#utility.yul\":12180:12193   */\n      sub\n        /* \"#utility.yul\":12173:12193   */\n      swap1\n      pop\n        /* \"#utility.yul\":12028:12199   */\n      swap2\n      swap1\n      pop\n      jump\t// out\n        /* \"#utility.yul\":12205:12385   */\n    tag_138:\n        /* \"#utility.yul\":12253:12330   */\n      0x4e487b7100000000000000000000000000000000000000000000000000000000\n        /* \"#utility.yul\":12250:12251   */\n      0x00\n        /* \"#utility.yul\":12243:12331   */\n      mstore\n        /* \"#utility.yul\":12350:12354   */\n      0x12\n        /* \"#utility.yul\":12347:12348   */\n      0x04\n        /* \"#utility.yul\":12340:12355   */\n      mstore\n        /* \"#utility.yul\":12374:12378   */\n      0x24\n        /* \"#utility.yul\":12371:12372   */\n      0x00\n        /* \"#utility.yul\":12364:12379   */\n      revert\n        /* \"#utility.yul\":12391:12576   */\n    tag_102:\n        /* \"#utility.yul\":12431:12432   */\n      0x00\n        /* \"#utility.yul\":12448:12468   */\n      tag_254\n        /* \"#utility.yul\":12466:12467   */\n      dup3\n        /* \"#utility.yul\":12448:12468   */\n      tag_115\n      jump\t// in\n    tag_254:\n        /* \"#utility.yul\":12443:12468   */\n      swap2\n      pop\n        /* \"#utility.yul\":12482:12502   */\n      tag_255\n        /* \"#utility.yul\":12500:12501   */\n      dup4\n        /* \"#utility.yul\":12482:12502   */\n      tag_115\n      jump\t// in\n    tag_255:\n        /* \"#utility.yul\":12477:12502   */\n      swap3\n      pop\n        /* \"#utility.yul\":12521:12522   */\n      dup3\n        /* \"#utility.yul\":12511:12546   */\n      tag_256\n      jumpi\n        /* \"#utility.yul\":12526:12544   */\n      tag_257\n      tag_138\n      jump\t// in\n    tag_257:\n        /* \"#utility.yul\":12511:12546   */\n    tag_256:\n        /* \"#utility.yul\":12568:12569   */\n      dup3\n        /* \"#utility.yul\":12565:12566   */\n      dup3\n        /* \"#utility.yul\":12561:12570   */\n      div\n        /* \"#utility.yul\":12556:12570   */\n      swap1\n      pop\n        /* \"#utility.yul\":12391:12576   */\n      swap3\n      swap2\n      pop\n      pop\n      jump\t// out\n\n    auxdata: 0xa26469706673582212208a2069c09d1cb397473c35239be9ef5b7c65ce5ba7abd10e6ec9135ad4b2489b64736f6c63430008120033\n}\n",
				"bytecode": {
					"linkReferences": {},
					"object": "60806040526000600255600060035534801561001a57600080fd5b5033600460006101000a81548173ffffffffffffffffffffffffffffffffffffffff021916908373ffffffffffffffffffffffffffffffffffffffff1602179055506111b78061006b6000396000f3fe6080604052600436106100865760003560e01c80638da5cb5b116100595780638da5cb5b1461014f578063ae5e6cf41461017a578063c0d8774b146101a3578063c4d1b347146101cc578063f5defcd3146101f757610086565b8063067cf8321461008b578063182d8de5146100cb578063658db3e514610108578063868def0414610133575b600080fd5b34801561009757600080fd5b506100b260048036038101906100ad9190610aec565b610236565b6040516100c29493929190610b69565b60405180910390f35b3480156100d757600080fd5b506100f260048036038101906100ed9190610aec565b610286565b6040516100ff9190610bae565b60405180910390f35b34801561011457600080fd5b5061011d6103ec565b60405161012a9190610bae565b60405180910390f35b61014d60048036038101906101489190610bc9565b6103f2565b005b34801561015b57600080fd5b506101646106cb565b6040516101719190610c09565b60405180910390f35b34801561018657600080fd5b506101a1600480360381019061019c9190610aec565b6106f1565b005b3480156101af57600080fd5b506101ca60048036038101906101c59190610bc9565b610949565b005b3480156101d857600080fd5b506101e1610a74565b6040516101ee9190610bae565b60405180910390f35b34801561020357600080fd5b5061021e60048036038101906102199190610aec565b610a7a565b60405161022d93929190610c3f565b60405180910390f35b60016020528060005260406000206000915090508060000154908060010160009054906101000a900473ffffffffffffffffffffffffffffffffffffffff16908060020154908060030154905084565b6000600460009054906101000a900473ffffffffffffffffffffffffffffffffffffffff1673ffffffffffffffffffffffffffffffffffffffff163373ffffffffffffffffffffffffffffffffffffffff1614610318576040517f08c379a000000000000000000000000000000000000000000000000000000000815260040161030f90610cf9565b60405180910390fd5b604051806060016040528060025481526020016001151581526020018381525060008060025481526020019081526020016000206000820151816000015560208201518160010160006101000a81548160ff021916908315150217905550604082015181600201559050507ff75d109f18e4f7bd4ba898340a13e16a7b3ad2860a84e35165f3564fbd642a8b600254836040516103b6929190610d19565b60405180910390a1600260008154809291906103d190610d71565b919050555060016002546103e59190610db9565b9050919050565b60025481565b6002548210610436576040517f08c379a000000000000000000000000000000000000000000000000000000000815260040161042d90610e39565b60405180910390fd5b60008083815260200190815260200160002060010160009054906101000a900460ff16610498576040517f08c379a000000000000000000000000000000000000000000000000000000000815260040161048f90610ea5565b60405180910390fd5b600081600080858152602001908152602001600020600201546104bb9190610ec5565b905080341015610500576040517f08c379a00000000000000000000000000000000000000000000000000000000081526004016104f790610f53565b60405180910390fd5b60405180608001604052808481526020013373ffffffffffffffffffffffffffffffffffffffff168152602001428152602001610e10846105419190610ec5565b4261054c9190610f73565b8152506001600060035481526020019081526020016000206000820151816000015560208201518160010160006101000a81548173ffffffffffffffffffffffffffffffffffffffff021916908373ffffffffffffffffffffffffffffffffffffffff1602179055506040820151816002015560608201518160030155905050600080600085815260200190815260200160002060010160006101000a81548160ff0219169083151502179055507f72ecd7f7851d99362881875ab1be61b520cafd001460ee107307408aa0ffbc58600354843342610e108761062f9190610ec5565b4261063a9190610f73565b60405161064b959493929190610fa7565b60405180910390a16003600081548092919061066690610d71565b9190505550803411156106c6573373ffffffffffffffffffffffffffffffffffffffff166108fc82346106999190610db9565b9081150290604051600060405180830381858888f193505050501580156106c4573d6000803e3d6000fd5b505b505050565b600460009054906101000a900473ffffffffffffffffffffffffffffffffffffffff1681565b6003548110610735576040517f08c379a000000000000000000000000000000000000000000000000000000000815260040161072c90611046565b60405180910390fd5b60006001600083815260200190815260200160002090503373ffffffffffffffffffffffffffffffffffffffff168160010160009054906101000a900473ffffffffffffffffffffffffffffffffffffffff1673ffffffffffffffffffffffffffffffffffffffff16146107de576040517f08c379a00000000000000000000000000000000000000000000000000000000081526004016107d5906110d8565b60405180910390fd5b60016000808360000154815260200190815260200160002060010160006101000a81548160ff0219169083151502179055507f81a9339e192f17a2544892f6f54b4b2c4d16184d3ac5cbcd45146fe360d753af8260405161083f9190610bae565b60405180910390a1600160008381526020019081526020016000206000808201600090556001820160006101000a81549073ffffffffffffffffffffffffffffffffffffffff0219169055600282016000905560038201600090555050600360008154809291906108af906110f8565b91905055506000610e10826002015483600301546108cd9190610db9565b6108d79190611150565b60008084600001548152602001908152602001600020600201546108fb9190610ec5565b90503373ffffffffffffffffffffffffffffffffffffffff166108fc829081150290604051600060405180830381858888f19350505050158015610943573d6000803e3d6000fd5b50505050565b600460009054906101000a900473ffffffffffffffffffffffffffffffffffffffff1673ffffffffffffffffffffffffffffffffffffffff163373ffffffffffffffffffffffffffffffffffffffff16146109d9576040517f08c379a00000000000000000000000000000000000000000000000000000000081526004016109d090610cf9565b60405180910390fd5b6002548210610a1d576040517f08c379a0000000000000000000000000000000000000000000000000000000008152600401610a1490610e39565b60405180910390fd5b80600080848152602001908152602001600020600201819055507fda4e74bbf57aae4d09379d2ffdb6e596f1760a1cd5623421e5f1dd6e05afc6558282604051610a68929190610d19565b60405180910390a15050565b60035481565b60006020528060005260406000206000915090508060000154908060010160009054906101000a900460ff16908060020154905083565b600080fd5b6000819050919050565b610ac981610ab6565b8114610ad457600080fd5b50565b600081359050610ae681610ac0565b92915050565b600060208284031215610b0257610b01610ab1565b5b6000610b1084828501610ad7565b91505092915050565b610b2281610ab6565b82525050565b600073ffffffffffffffffffffffffffffffffffffffff82169050919050565b6000610b5382610b28565b9050919050565b610b6381610b48565b82525050565b6000608082019050610b7e6000830187610b19565b610b8b6020830186610b5a565b610b986040830185610b19565b610ba56060830184610b19565b95945050505050565b6000602082019050610bc36000830184610b19565b92915050565b60008060408385031215610be057610bdf610ab1565b5b6000610bee85828601610ad7565b9250506020610bff85828601610ad7565b9150509250929050565b6000602082019050610c1e6000830184610b5a565b92915050565b60008115159050919050565b610c3981610c24565b82525050565b6000606082019050610c546000830186610b19565b610c616020830185610c30565b610c6e6040830184610b19565b949350505050565b600082825260208201905092915050565b7f4f6e6c7920616e206f776e65722063616e20616363657373207468697320667560008201527f6e6374696f6e0000000000000000000000000000000000000000000000000000602082015250565b6000610ce3602683610c76565b9150610cee82610c87565b604082019050919050565b60006020820190508181036000830152610d1281610cd6565b9050919050565b6000604082019050610d2e6000830185610b19565b610d3b6020830184610b19565b9392505050565b7f4e487b7100000000000000000000000000000000000000000000000000000000600052601160045260246000fd5b6000610d7c82610ab6565b91507fffffffffffffffffffffffffffffffffffffffffffffffffffffffffffffffff8203610dae57610dad610d42565b5b600182019050919050565b6000610dc482610ab6565b9150610dcf83610ab6565b9250828203905081811115610de757610de6610d42565b5b92915050565b7f496e76616c6964207061726b696e672073706f74204944000000000000000000600082015250565b6000610e23601783610c76565b9150610e2e82610ded565b602082019050919050565b60006020820190508181036000830152610e5281610e16565b9050919050565b7f5061726b696e672073706f74206973206e6f7420617661696c61626c65000000600082015250565b6000610e8f601d83610c76565b9150610e9a82610e59565b602082019050919050565b60006020820190508181036000830152610ebe81610e82565b9050919050565b6000610ed082610ab6565b9150610edb83610ab6565b9250828202610ee981610ab6565b91508282048414831517610f0057610eff610d42565b5b5092915050565b7f496e73756666696369656e742066756e64730000000000000000000000000000600082015250565b6000610f3d601283610c76565b9150610f4882610f07565b602082019050919050565b60006020820190508181036000830152610f6c81610f30565b9050919050565b6000610f7e82610ab6565b9150610f8983610ab6565b9250828201905080821115610fa157610fa0610d42565b5b92915050565b600060a082019050610fbc6000830188610b19565b610fc96020830187610b19565b610fd66040830186610b5a565b610fe36060830185610b19565b610ff06080830184610b19565b9695505050505050565b7f496e76616c6964207265736572766174696f6e20494400000000000000000000600082015250565b6000611030601683610c76565b915061103b82610ffa565b602082019050919050565b6000602082019050818103600083015261105f81611023565b9050919050565b7f4e6f7420617574686f72697a656420746f2063616e63656c207265736572766160008201527f74696f6e00000000000000000000000000000000000000000000000000000000602082015250565b60006110c2602483610c76565b91506110cd82611066565b604082019050919050565b600060208201905081810360008301526110f1816110b5565b9050919050565b600061110382610ab6565b91506000820361111657611115610d42565b5b600182039050919050565b7f4e487b7100000000000000000000000000000000000000000000000000000000600052601260045260246000fd5b600061115b82610ab6565b915061116683610ab6565b92508261117657611175611121565b5b82820490509291505056fea26469706673582212208a2069c09d1cb397473c35239be9ef5b7c65ce5ba7abd10e6ec9135ad4b2489b64736f6c63430008120033",
					"opcodes": "PUSH1 0x80 PUSH1 0x40 MSTORE PUSH1 0x0 PUSH1 0x2 SSTORE PUSH1 0x0 PUSH1 0x3 SSTORE CALLVALUE DUP1 ISZERO PUSH2 0x1A JUMPI PUSH1 0x0 DUP1 REVERT JUMPDEST POP CALLER PUSH1 0x4 PUSH1 0x0 PUSH2 0x100 EXP DUP2 SLOAD DUP2 PUSH20 0xFFFFFFFFFFFFFFFFFFFFFFFFFFFFFFFFFFFFFFFF MUL NOT AND SWAP1 DUP4 PUSH20 0xFFFFFFFFFFFFFFFFFFFFFFFFFFFFFFFFFFFFFFFF AND MUL OR SWAP1 SSTORE POP PUSH2 0x11B7 DUP1 PUSH2 0x6B PUSH1 0x0 CODECOPY PUSH1 0x0 RETURN INVALID PUSH1 0x80 PUSH1 0x40 MSTORE PUSH1 0x4 CALLDATASIZE LT PUSH2 0x86 JUMPI PUSH1 0x0 CALLDATALOAD PUSH1 0xE0 SHR DUP1 PUSH4 0x8DA5CB5B GT PUSH2 0x59 JUMPI DUP1 PUSH4 0x8DA5CB5B EQ PUSH2 0x14F JUMPI DUP1 PUSH4 0xAE5E6CF4 EQ PUSH2 0x17A JUMPI DUP1 PUSH4 0xC0D8774B EQ PUSH2 0x1A3 JUMPI DUP1 PUSH4 0xC4D1B347 EQ PUSH2 0x1CC JUMPI DUP1 PUSH4 0xF5DEFCD3 EQ PUSH2 0x1F7 JUMPI PUSH2 0x86 JUMP JUMPDEST DUP1 PUSH4 0x67CF832 EQ PUSH2 0x8B JUMPI DUP1 PUSH4 0x182D8DE5 EQ PUSH2 0xCB JUMPI DUP1 PUSH4 0x658DB3E5 EQ PUSH2 0x108 JUMPI DUP1 PUSH4 0x868DEF04 EQ PUSH2 0x133 JUMPI JUMPDEST PUSH1 0x0 DUP1 REVERT JUMPDEST CALLVALUE DUP1 ISZERO PUSH2 0x97 JUMPI PUSH1 0x0 DUP1 REVERT JUMPDEST POP PUSH2 0xB2 PUSH1 0x4 DUP1 CALLDATASIZE SUB DUP2 ADD SWAP1 PUSH2 0xAD SWAP2 SWAP1 PUSH2 0xAEC JUMP JUMPDEST PUSH2 0x236 JUMP JUMPDEST PUSH1 0x40 MLOAD PUSH2 0xC2 SWAP5 SWAP4 SWAP3 SWAP2 SWAP1 PUSH2 0xB69 JUMP JUMPDEST PUSH1 0x40 MLOAD DUP1 SWAP2 SUB SWAP1 RETURN JUMPDEST CALLVALUE DUP1 ISZERO PUSH2 0xD7 JUMPI PUSH1 0x0 DUP1 REVERT JUMPDEST POP PUSH2 0xF2 PUSH1 0x4 DUP1 CALLDATASIZE SUB DUP2 ADD SWAP1 PUSH2 0xED SWAP2 SWAP1 PUSH2 0xAEC JUMP JUMPDEST PUSH2 0x286 JUMP JUMPDEST PUSH1 0x40 MLOAD PUSH2 0xFF SWAP2 SWAP1 PUSH2 0xBAE JUMP JUMPDEST PUSH1 0x40 MLOAD DUP1 SWAP2 SUB SWAP1 RETURN JUMPDEST CALLVALUE DUP1 ISZERO PUSH2 0x114 JUMPI PUSH1 0x0 DUP1 REVERT JUMPDEST POP PUSH2 0x11D PUSH2 0x3EC JUMP JUMPDEST PUSH1 0x40 MLOAD PUSH2 0x12A SWAP2 SWAP1 PUSH2 0xBAE JUMP JUMPDEST PUSH1 0x40 MLOAD DUP1 SWAP2 SUB SWAP1 RETURN JUMPDEST PUSH2 0x14D PUSH1 0x4 DUP1 CALLDATASIZE SUB DUP2 ADD SWAP1 PUSH2 0x148 SWAP2 SWAP1 PUSH2 0xBC9 JUMP JUMPDEST PUSH2 0x3F2 JUMP JUMPDEST STOP JUMPDEST CALLVALUE DUP1 ISZERO PUSH2 0x15B JUMPI PUSH1 0x0 DUP1 REVERT JUMPDEST POP PUSH2 0x164 PUSH2 0x6CB JUMP JUMPDEST PUSH1 0x40 MLOAD PUSH2 0x171 SWAP2 SWAP1 PUSH2 0xC09 JUMP JUMPDEST PUSH1 0x40 MLOAD DUP1 SWAP2 SUB SWAP1 RETURN JUMPDEST CALLVALUE DUP1 ISZERO PUSH2 0x186 JUMPI PUSH1 0x0 DUP1 REVERT JUMPDEST POP PUSH2 0x1A1 PUSH1 0x4 DUP1 CALLDATASIZE SUB DUP2 ADD SWAP1 PUSH2 0x19C SWAP2 SWAP1 PUSH2 0xAEC JUMP JUMPDEST PUSH2 0x6F1 JUMP JUMPDEST STOP JUMPDEST CALLVALUE DUP1 ISZERO PUSH2 0x1AF JUMPI PUSH1 0x0 DUP1 REVERT JUMPDEST POP PUSH2 0x1CA PUSH1 0x4 DUP1 CALLDATASIZE SUB DUP2 ADD SWAP1 PUSH2 0x1C5 SWAP2 SWAP1 PUSH2 0xBC9 JUMP JUMPDEST PUSH2 0x949 JUMP JUMPDEST STOP JUMPDEST CALLVALUE DUP1 ISZERO PUSH2 0x1D8 JUMPI PUSH1 0x0 DUP1 REVERT JUMPDEST POP PUSH2 0x1E1 PUSH2 0xA74 JUMP JUMPDEST PUSH1 0x40 MLOAD PUSH2 0x1EE SWAP2 SWAP1 PUSH2 0xBAE JUMP JUMPDEST PUSH1 0x40 MLOAD DUP1 SWAP2 SUB SWAP1 RETURN JUMPDEST CALLVALUE DUP1 ISZERO PUSH2 0x203 JUMPI PUSH1 0x0 DUP1 REVERT JUMPDEST POP PUSH2 0x21E PUSH1 0x4 DUP1 CALLDATASIZE SUB DUP2 ADD SWAP1 PUSH2 0x219 SWAP2 SWAP1 PUSH2 0xAEC JUMP JUMPDEST PUSH2 0xA7A JUMP JUMPDEST PUSH1 0x40 MLOAD PUSH2 0x22D SWAP4 SWAP3 SWAP2 SWAP1 PUSH2 0xC3F JUMP JUMPDEST PUSH1 0x40 MLOAD DUP1 SWAP2 SUB SWAP1 RETURN JUMPDEST PUSH1 0x1 PUSH1 0x20 MSTORE DUP1 PUSH1 0x0 MSTORE PUSH1 0x40 PUSH1 0x0 KECCAK256 PUSH1 0x0 SWAP2 POP SWAP1 POP DUP1 PUSH1 0x0 ADD SLOAD SWAP1 DUP1 PUSH1 0x1 ADD PUSH1 0x0 SWAP1 SLOAD SWAP1 PUSH2 0x100 EXP SWAP1 DIV PUSH20 0xFFFFFFFFFFFFFFFFFFFFFFFFFFFFFFFFFFFFFFFF AND SWAP1 DUP1 PUSH1 0x2 ADD SLOAD SWAP1 DUP1 PUSH1 0x3 ADD SLOAD SWAP1 POP DUP5 JUMP JUMPDEST PUSH1 0x0 PUSH1 0x4 PUSH1 0x0 SWAP1 SLOAD SWAP1 PUSH2 0x100 EXP SWAP1 DIV PUSH20 0xFFFFFFFFFFFFFFFFFFFFFFFFFFFFFFFFFFFFFFFF AND PUSH20 0xFFFFFFFFFFFFFFFFFFFFFFFFFFFFFFFFFFFFFFFF AND CALLER PUSH20 0xFFFFFFFFFFFFFFFFFFFFFFFFFFFFFFFFFFFFFFFF AND EQ PUSH2 0x318 JUMPI PUSH1 0x40 MLOAD PUSH32 0x8C379A000000000000000000000000000000000000000000000000000000000 DUP2 MSTORE PUSH1 0x4 ADD PUSH2 0x30F SWAP1 PUSH2 0xCF9 JUMP JUMPDEST PUSH1 0x40 MLOAD DUP1 SWAP2 SUB SWAP1 REVERT JUMPDEST PUSH1 0x40 MLOAD DUP1 PUSH1 0x60 ADD PUSH1 0x40 MSTORE DUP1 PUSH1 0x2 SLOAD DUP2 MSTORE PUSH1 0x20 ADD PUSH1 0x1 ISZERO ISZERO DUP2 MSTORE PUSH1 0x20 ADD DUP4 DUP2 MSTORE POP PUSH1 0x0 DUP1 PUSH1 0x2 SLOAD DUP2 MSTORE PUSH1 0x20 ADD SWAP1 DUP2 MSTORE PUSH1 0x20 ADD PUSH1 0x0 KECCAK256 PUSH1 0x0 DUP3 ADD MLOAD DUP2 PUSH1 0x0 ADD SSTORE PUSH1 0x20 DUP3 ADD MLOAD DUP2 PUSH1 0x1 ADD PUSH1 0x0 PUSH2 0x100 EXP DUP2 SLOAD DUP2 PUSH1 0xFF MUL NOT AND SWAP1 DUP4 ISZERO ISZERO MUL OR SWAP1 SSTORE POP PUSH1 0x40 DUP3 ADD MLOAD DUP2 PUSH1 0x2 ADD SSTORE SWAP1 POP POP PUSH32 0xF75D109F18E4F7BD4BA898340A13E16A7B3AD2860A84E35165F3564FBD642A8B PUSH1 0x2 SLOAD DUP4 PUSH1 0x40 MLOAD PUSH2 0x3B6 SWAP3 SWAP2 SWAP1 PUSH2 0xD19 JUMP JUMPDEST PUSH1 0x40 MLOAD DUP1 SWAP2 SUB SWAP1 LOG1 PUSH1 0x2 PUSH1 0x0 DUP2 SLOAD DUP1 SWAP3 SWAP2 SWAP1 PUSH2 0x3D1 SWAP1 PUSH2 0xD71 JUMP JUMPDEST SWAP2 SWAP1 POP SSTORE POP PUSH1 0x1 PUSH1 0x2 SLOAD PUSH2 0x3E5 SWAP2 SWAP1 PUSH2 0xDB9 JUMP JUMPDEST SWAP1 POP SWAP2 SWAP1 POP JUMP JUMPDEST PUSH1 0x2 SLOAD DUP2 JUMP JUMPDEST PUSH1 0x2 SLOAD DUP3 LT PUSH2 0x436 JUMPI PUSH1 0x40 MLOAD PUSH32 0x8C379A000000000000000000000000000000000000000000000000000000000 DUP2 MSTORE PUSH1 0x4 ADD PUSH2 0x42D SWAP1 PUSH2 0xE39 JUMP JUMPDEST PUSH1 0x40 MLOAD DUP1 SWAP2 SUB SWAP1 REVERT JUMPDEST PUSH1 0x0 DUP1 DUP4 DUP2 MSTORE PUSH1 0x20 ADD SWAP1 DUP2 MSTORE PUSH1 0x20 ADD PUSH1 0x0 KECCAK256 PUSH1 0x1 ADD PUSH1 0x0 SWAP1 SLOAD SWAP1 PUSH2 0x100 EXP SWAP1 DIV PUSH1 0xFF AND PUSH2 0x498 JUMPI PUSH1 0x40 MLOAD PUSH32 0x8C379A000000000000000000000000000000000000000000000000000000000 DUP2 MSTORE PUSH1 0x4 ADD PUSH2 0x48F SWAP1 PUSH2 0xEA5 JUMP JUMPDEST PUSH1 0x40 MLOAD DUP1 SWAP2 SUB SWAP1 REVERT JUMPDEST PUSH1 0x0 DUP2 PUSH1 0x0 DUP1 DUP6 DUP2 MSTORE PUSH1 0x20 ADD SWAP1 DUP2 MSTORE PUSH1 0x20 ADD PUSH1 0x0 KECCAK256 PUSH1 0x2 ADD SLOAD PUSH2 0x4BB SWAP2 SWAP1 PUSH2 0xEC5 JUMP JUMPDEST SWAP1 POP DUP1 CALLVALUE LT ISZERO PUSH2 0x500 JUMPI PUSH1 0x40 MLOAD PUSH32 0x8C379A000000000000000000000000000000000000000000000000000000000 DUP2 MSTORE PUSH1 0x4 ADD PUSH2 0x4F7 SWAP1 PUSH2 0xF53 JUMP JUMPDEST PUSH1 0x40 MLOAD DUP1 SWAP2 SUB SWAP1 REVERT JUMPDEST PUSH1 0x40 MLOAD DUP1 PUSH1 0x80 ADD PUSH1 0x40 MSTORE DUP1 DUP5 DUP2 MSTORE PUSH1 0x20 ADD CALLER PUSH20 0xFFFFFFFFFFFFFFFFFFFFFFFFFFFFFFFFFFFFFFFF AND DUP2 MSTORE PUSH1 0x20 ADD TIMESTAMP DUP2 MSTORE PUSH1 0x20 ADD PUSH2 0xE10 DUP5 PUSH2 0x541 SWAP2 SWAP1 PUSH2 0xEC5 JUMP JUMPDEST TIMESTAMP PUSH2 0x54C SWAP2 SWAP1 PUSH2 0xF73 JUMP JUMPDEST DUP2 MSTORE POP PUSH1 0x1 PUSH1 0x0 PUSH1 0x3 SLOAD DUP2 MSTORE PUSH1 0x20 ADD SWAP1 DUP2 MSTORE PUSH1 0x20 ADD PUSH1 0x0 KECCAK256 PUSH1 0x0 DUP3 ADD MLOAD DUP2 PUSH1 0x0 ADD SSTORE PUSH1 0x20 DUP3 ADD MLOAD DUP2 PUSH1 0x1 ADD PUSH1 0x0 PUSH2 0x100 EXP DUP2 SLOAD DUP2 PUSH20 0xFFFFFFFFFFFFFFFFFFFFFFFFFFFFFFFFFFFFFFFF MUL NOT AND SWAP1 DUP4 PUSH20 0xFFFFFFFFFFFFFFFFFFFFFFFFFFFFFFFFFFFFFFFF AND MUL OR SWAP1 SSTORE POP PUSH1 0x40 DUP3 ADD MLOAD DUP2 PUSH1 0x2 ADD SSTORE PUSH1 0x60 DUP3 ADD MLOAD DUP2 PUSH1 0x3 ADD SSTORE SWAP1 POP POP PUSH1 0x0 DUP1 PUSH1 0x0 DUP6 DUP2 MSTORE PUSH1 0x20 ADD SWAP1 DUP2 MSTORE PUSH1 0x20 ADD PUSH1 0x0 KECCAK256 PUSH1 0x1 ADD PUSH1 0x0 PUSH2 0x100 EXP DUP2 SLOAD DUP2 PUSH1 0xFF MUL NOT AND SWAP1 DUP4 ISZERO ISZERO MUL OR SWAP1 SSTORE POP PUSH32 0x72ECD7F7851D99362881875AB1BE61B520CAFD001460EE107307408AA0FFBC58 PUSH1 0x3 SLOAD DUP5 CALLER TIMESTAMP PUSH2 0xE10 DUP8 PUSH2 0x62F SWAP2 SWAP1 PUSH2 0xEC5 JUMP JUMPDEST TIMESTAMP PUSH2 0x63A SWAP2 SWAP1 PUSH2 0xF73 JUMP JUMPDEST PUSH1 0x40 MLOAD PUSH2 0x64B SWAP6 SWAP5 SWAP4 SWAP3 SWAP2 SWAP1 PUSH2 0xFA7 JUMP JUMPDEST PUSH1 0x40 MLOAD DUP1 SWAP2 SUB SWAP1 LOG1 PUSH1 0x3 PUSH1 0x0 DUP2 SLOAD DUP1 SWAP3 SWAP2 SWAP1 PUSH2 0x666 SWAP1 PUSH2 0xD71 JUMP JUMPDEST SWAP2 SWAP1 POP SSTORE POP DUP1 CALLVALUE GT ISZERO PUSH2 0x6C6 JUMPI CALLER PUSH20 0xFFFFFFFFFFFFFFFFFFFFFFFFFFFFFFFFFFFFFFFF AND PUSH2 0x8FC DUP3 CALLVALUE PUSH2 0x699 SWAP2 SWAP1 PUSH2 0xDB9 JUMP JUMPDEST SWAP1 DUP2 ISZERO MUL SWAP1 PUSH1 0x40 MLOAD PUSH1 0x0 PUSH1 0x40 MLOAD DUP1 DUP4 SUB DUP2 DUP6 DUP9 DUP9 CALL SWAP4 POP POP POP POP ISZERO DUP1 ISZERO PUSH2 0x6C4 JUMPI RETURNDATASIZE PUSH1 0x0 DUP1 RETURNDATACOPY RETURNDATASIZE PUSH1 0x0 REVERT JUMPDEST POP JUMPDEST POP POP POP JUMP JUMPDEST PUSH1 0x4 PUSH1 0x0 SWAP1 SLOAD SWAP1 PUSH2 0x100 EXP SWAP1 DIV PUSH20 0xFFFFFFFFFFFFFFFFFFFFFFFFFFFFFFFFFFFFFFFF AND DUP2 JUMP JUMPDEST PUSH1 0x3 SLOAD DUP2 LT PUSH2 0x735 JUMPI PUSH1 0x40 MLOAD PUSH32 0x8C379A000000000000000000000000000000000000000000000000000000000 DUP2 MSTORE PUSH1 0x4 ADD PUSH2 0x72C SWAP1 PUSH2 0x1046 JUMP JUMPDEST PUSH1 0x40 MLOAD DUP1 SWAP2 SUB SWAP1 REVERT JUMPDEST PUSH1 0x0 PUSH1 0x1 PUSH1 0x0 DUP4 DUP2 MSTORE PUSH1 0x20 ADD SWAP1 DUP2 MSTORE PUSH1 0x20 ADD PUSH1 0x0 KECCAK256 SWAP1 POP CALLER PUSH20 0xFFFFFFFFFFFFFFFFFFFFFFFFFFFFFFFFFFFFFFFF AND DUP2 PUSH1 0x1 ADD PUSH1 0x0 SWAP1 SLOAD SWAP1 PUSH2 0x100 EXP SWAP1 DIV PUSH20 0xFFFFFFFFFFFFFFFFFFFFFFFFFFFFFFFFFFFFFFFF AND PUSH20 0xFFFFFFFFFFFFFFFFFFFFFFFFFFFFFFFFFFFFFFFF AND EQ PUSH2 0x7DE JUMPI PUSH1 0x40 MLOAD PUSH32 0x8C379A000000000000000000000000000000000000000000000000000000000 DUP2 MSTORE PUSH1 0x4 ADD PUSH2 0x7D5 SWAP1 PUSH2 0x10D8 JUMP JUMPDEST PUSH1 0x40 MLOAD DUP1 SWAP2 SUB SWAP1 REVERT JUMPDEST PUSH1 0x1 PUSH1 0x0 DUP1 DUP4 PUSH1 0x0 ADD SLOAD DUP2 MSTORE PUSH1 0x20 ADD SWAP1 DUP2 MSTORE PUSH1 0x20 ADD PUSH1 0x0 KECCAK256 PUSH1 0x1 ADD PUSH1 0x0 PUSH2 0x100 EXP DUP2 SLOAD DUP2 PUSH1 0xFF MUL NOT AND SWAP1 DUP4 ISZERO ISZERO MUL OR SWAP1 SSTORE POP PUSH32 0x81A9339E192F17A2544892F6F54B4B2C4D16184D3AC5CBCD45146FE360D753AF DUP3 PUSH1 0x40 MLOAD PUSH2 0x83F SWAP2 SWAP1 PUSH2 0xBAE JUMP JUMPDEST PUSH1 0x40 MLOAD DUP1 SWAP2 SUB SWAP1 LOG1 PUSH1 0x1 PUSH1 0x0 DUP4 DUP2 MSTORE PUSH1 0x20 ADD SWAP1 DUP2 MSTORE PUSH1 0x20 ADD PUSH1 0x0 KECCAK256 PUSH1 0x0 DUP1 DUP3 ADD PUSH1 0x0 SWAP1 SSTORE PUSH1 0x1 DUP3 ADD PUSH1 0x0 PUSH2 0x100 EXP DUP2 SLOAD SWAP1 PUSH20 0xFFFFFFFFFFFFFFFFFFFFFFFFFFFFFFFFFFFFFFFF MUL NOT AND SWAP1 SSTORE PUSH1 0x2 DUP3 ADD PUSH1 0x0 SWAP1 SSTORE PUSH1 0x3 DUP3 ADD PUSH1 0x0 SWAP1 SSTORE POP POP PUSH1 0x3 PUSH1 0x0 DUP2 SLOAD DUP1 SWAP3 SWAP2 SWAP1 PUSH2 0x8AF SWAP1 PUSH2 0x10F8 JUMP JUMPDEST SWAP2 SWAP1 POP SSTORE POP PUSH1 0x0 PUSH2 0xE10 DUP3 PUSH1 0x2 ADD SLOAD DUP4 PUSH1 0x3 ADD SLOAD PUSH2 0x8CD SWAP2 SWAP1 PUSH2 0xDB9 JUMP JUMPDEST PUSH2 0x8D7 SWAP2 SWAP1 PUSH2 0x1150 JUMP JUMPDEST PUSH1 0x0 DUP1 DUP5 PUSH1 0x0 ADD SLOAD DUP2 MSTORE PUSH1 0x20 ADD SWAP1 DUP2 MSTORE PUSH1 0x20 ADD PUSH1 0x0 KECCAK256 PUSH1 0x2 ADD SLOAD PUSH2 0x8FB SWAP2 SWAP1 PUSH2 0xEC5 JUMP JUMPDEST SWAP1 POP CALLER PUSH20 0xFFFFFFFFFFFFFFFFFFFFFFFFFFFFFFFFFFFFFFFF AND PUSH2 0x8FC DUP3 SWAP1 DUP2 ISZERO MUL SWAP1 PUSH1 0x40 MLOAD PUSH1 0x0 PUSH1 0x40 MLOAD DUP1 DUP4 SUB DUP2 DUP6 DUP9 DUP9 CALL SWAP4 POP POP POP POP ISZERO DUP1 ISZERO PUSH2 0x943 JUMPI RETURNDATASIZE PUSH1 0x0 DUP1 RETURNDATACOPY RETURNDATASIZE PUSH1 0x0 REVERT JUMPDEST POP POP POP POP JUMP JUMPDEST PUSH1 0x4 PUSH1 0x0 SWAP1 SLOAD SWAP1 PUSH2 0x100 EXP SWAP1 DIV PUSH20 0xFFFFFFFFFFFFFFFFFFFFFFFFFFFFFFFFFFFFFFFF AND PUSH20 0xFFFFFFFFFFFFFFFFFFFFFFFFFFFFFFFFFFFFFFFF AND CALLER PUSH20 0xFFFFFFFFFFFFFFFFFFFFFFFFFFFFFFFFFFFFFFFF AND EQ PUSH2 0x9D9 JUMPI PUSH1 0x40 MLOAD PUSH32 0x8C379A000000000000000000000000000000000000000000000000000000000 DUP2 MSTORE PUSH1 0x4 ADD PUSH2 0x9D0 SWAP1 PUSH2 0xCF9 JUMP JUMPDEST PUSH1 0x40 MLOAD DUP1 SWAP2 SUB SWAP1 REVERT JUMPDEST PUSH1 0x2 SLOAD DUP3 LT PUSH2 0xA1D JUMPI PUSH1 0x40 MLOAD PUSH32 0x8C379A000000000000000000000000000000000000000000000000000000000 DUP2 MSTORE PUSH1 0x4 ADD PUSH2 0xA14 SWAP1 PUSH2 0xE39 JUMP JUMPDEST PUSH1 0x40 MLOAD DUP1 SWAP2 SUB SWAP1 REVERT JUMPDEST DUP1 PUSH1 0x0 DUP1 DUP5 DUP2 MSTORE PUSH1 0x20 ADD SWAP1 DUP2 MSTORE PUSH1 0x20 ADD PUSH1 0x0 KECCAK256 PUSH1 0x2 ADD DUP2 SWAP1 SSTORE POP PUSH32 0xDA4E74BBF57AAE4D09379D2FFDB6E596F1760A1CD5623421E5F1DD6E05AFC655 DUP3 DUP3 PUSH1 0x40 MLOAD PUSH2 0xA68 SWAP3 SWAP2 SWAP1 PUSH2 0xD19 JUMP JUMPDEST PUSH1 0x40 MLOAD DUP1 SWAP2 SUB SWAP1 LOG1 POP POP JUMP JUMPDEST PUSH1 0x3 SLOAD DUP2 JUMP JUMPDEST PUSH1 0x0 PUSH1 0x20 MSTORE DUP1 PUSH1 0x0 MSTORE PUSH1 0x40 PUSH1 0x0 KECCAK256 PUSH1 0x0 SWAP2 POP SWAP1 POP DUP1 PUSH1 0x0 ADD SLOAD SWAP1 DUP1 PUSH1 0x1 ADD PUSH1 0x0 SWAP1 SLOAD SWAP1 PUSH2 0x100 EXP SWAP1 DIV PUSH1 0xFF AND SWAP1 DUP1 PUSH1 0x2 ADD SLOAD SWAP1 POP DUP4 JUMP JUMPDEST PUSH1 0x0 DUP1 REVERT JUMPDEST PUSH1 0x0 DUP2 SWAP1 POP SWAP2 SWAP1 POP JUMP JUMPDEST PUSH2 0xAC9 DUP2 PUSH2 0xAB6 JUMP JUMPDEST DUP2 EQ PUSH2 0xAD4 JUMPI PUSH1 0x0 DUP1 REVERT JUMPDEST POP JUMP JUMPDEST PUSH1 0x0 DUP2 CALLDATALOAD SWAP1 POP PUSH2 0xAE6 DUP2 PUSH2 0xAC0 JUMP JUMPDEST SWAP3 SWAP2 POP POP JUMP JUMPDEST PUSH1 0x0 PUSH1 0x20 DUP3 DUP5 SUB SLT ISZERO PUSH2 0xB02 JUMPI PUSH2 0xB01 PUSH2 0xAB1 JUMP JUMPDEST JUMPDEST PUSH1 0x0 PUSH2 0xB10 DUP5 DUP3 DUP6 ADD PUSH2 0xAD7 JUMP JUMPDEST SWAP2 POP POP SWAP3 SWAP2 POP POP JUMP JUMPDEST PUSH2 0xB22 DUP2 PUSH2 0xAB6 JUMP JUMPDEST DUP3 MSTORE POP POP JUMP JUMPDEST PUSH1 0x0 PUSH20 0xFFFFFFFFFFFFFFFFFFFFFFFFFFFFFFFFFFFFFFFF DUP3 AND SWAP1 POP SWAP2 SWAP1 POP JUMP JUMPDEST PUSH1 0x0 PUSH2 0xB53 DUP3 PUSH2 0xB28 JUMP JUMPDEST SWAP1 POP SWAP2 SWAP1 POP JUMP JUMPDEST PUSH2 0xB63 DUP2 PUSH2 0xB48 JUMP JUMPDEST DUP3 MSTORE POP POP JUMP JUMPDEST PUSH1 0x0 PUSH1 0x80 DUP3 ADD SWAP1 POP PUSH2 0xB7E PUSH1 0x0 DUP4 ADD DUP8 PUSH2 0xB19 JUMP JUMPDEST PUSH2 0xB8B PUSH1 0x20 DUP4 ADD DUP7 PUSH2 0xB5A JUMP JUMPDEST PUSH2 0xB98 PUSH1 0x40 DUP4 ADD DUP6 PUSH2 0xB19 JUMP JUMPDEST PUSH2 0xBA5 PUSH1 0x60 DUP4 ADD DUP5 PUSH2 0xB19 JUMP JUMPDEST SWAP6 SWAP5 POP POP POP POP POP JUMP JUMPDEST PUSH1 0x0 PUSH1 0x20 DUP3 ADD SWAP1 POP PUSH2 0xBC3 PUSH1 0x0 DUP4 ADD DUP5 PUSH2 0xB19 JUMP JUMPDEST SWAP3 SWAP2 POP POP JUMP JUMPDEST PUSH1 0x0 DUP1 PUSH1 0x40 DUP4 DUP6 SUB SLT ISZERO PUSH2 0xBE0 JUMPI PUSH2 0xBDF PUSH2 0xAB1 JUMP JUMPDEST JUMPDEST PUSH1 0x0 PUSH2 0xBEE DUP6 DUP3 DUP7 ADD PUSH2 0xAD7 JUMP JUMPDEST SWAP3 POP POP PUSH1 0x20 PUSH2 0xBFF DUP6 DUP3 DUP7 ADD PUSH2 0xAD7 JUMP JUMPDEST SWAP2 POP POP SWAP3 POP SWAP3 SWAP1 POP JUMP JUMPDEST PUSH1 0x0 PUSH1 0x20 DUP3 ADD SWAP1 POP PUSH2 0xC1E PUSH1 0x0 DUP4 ADD DUP5 PUSH2 0xB5A JUMP JUMPDEST SWAP3 SWAP2 POP POP JUMP JUMPDEST PUSH1 0x0 DUP2 ISZERO ISZERO SWAP1 POP SWAP2 SWAP1 POP JUMP JUMPDEST PUSH2 0xC39 DUP2 PUSH2 0xC24 JUMP JUMPDEST DUP3 MSTORE POP POP JUMP JUMPDEST PUSH1 0x0 PUSH1 0x60 DUP3 ADD SWAP1 POP PUSH2 0xC54 PUSH1 0x0 DUP4 ADD DUP7 PUSH2 0xB19 JUMP JUMPDEST PUSH2 0xC61 PUSH1 0x20 DUP4 ADD DUP6 PUSH2 0xC30 JUMP JUMPDEST PUSH2 0xC6E PUSH1 0x40 DUP4 ADD DUP5 PUSH2 0xB19 JUMP JUMPDEST SWAP5 SWAP4 POP POP POP POP JUMP JUMPDEST PUSH1 0x0 DUP3 DUP3 MSTORE PUSH1 0x20 DUP3 ADD SWAP1 POP SWAP3 SWAP2 POP POP JUMP JUMPDEST PUSH32 0x4F6E6C7920616E206F776E65722063616E206163636573732074686973206675 PUSH1 0x0 DUP3 ADD MSTORE PUSH32 0x6E6374696F6E0000000000000000000000000000000000000000000000000000 PUSH1 0x20 DUP3 ADD MSTORE POP JUMP JUMPDEST PUSH1 0x0 PUSH2 0xCE3 PUSH1 0x26 DUP4 PUSH2 0xC76 JUMP JUMPDEST SWAP2 POP PUSH2 0xCEE DUP3 PUSH2 0xC87 JUMP JUMPDEST PUSH1 0x40 DUP3 ADD SWAP1 POP SWAP2 SWAP1 POP JUMP JUMPDEST PUSH1 0x0 PUSH1 0x20 DUP3 ADD SWAP1 POP DUP2 DUP2 SUB PUSH1 0x0 DUP4 ADD MSTORE PUSH2 0xD12 DUP2 PUSH2 0xCD6 JUMP JUMPDEST SWAP1 POP SWAP2 SWAP1 POP JUMP JUMPDEST PUSH1 0x0 PUSH1 0x40 DUP3 ADD SWAP1 POP PUSH2 0xD2E PUSH1 0x0 DUP4 ADD DUP6 PUSH2 0xB19 JUMP JUMPDEST PUSH2 0xD3B PUSH1 0x20 DUP4 ADD DUP5 PUSH2 0xB19 JUMP JUMPDEST SWAP4 SWAP3 POP POP POP JUMP JUMPDEST PUSH32 0x4E487B7100000000000000000000000000000000000000000000000000000000 PUSH1 0x0 MSTORE PUSH1 0x11 PUSH1 0x4 MSTORE PUSH1 0x24 PUSH1 0x0 REVERT JUMPDEST PUSH1 0x0 PUSH2 0xD7C DUP3 PUSH2 0xAB6 JUMP JUMPDEST SWAP2 POP PUSH32 0xFFFFFFFFFFFFFFFFFFFFFFFFFFFFFFFFFFFFFFFFFFFFFFFFFFFFFFFFFFFFFFFF DUP3 SUB PUSH2 0xDAE JUMPI PUSH2 0xDAD PUSH2 0xD42 JUMP JUMPDEST JUMPDEST PUSH1 0x1 DUP3 ADD SWAP1 POP SWAP2 SWAP1 POP JUMP JUMPDEST PUSH1 0x0 PUSH2 0xDC4 DUP3 PUSH2 0xAB6 JUMP JUMPDEST SWAP2 POP PUSH2 0xDCF DUP4 PUSH2 0xAB6 JUMP JUMPDEST SWAP3 POP DUP3 DUP3 SUB SWAP1 POP DUP2 DUP2 GT ISZERO PUSH2 0xDE7 JUMPI PUSH2 0xDE6 PUSH2 0xD42 JUMP JUMPDEST JUMPDEST SWAP3 SWAP2 POP POP JUMP JUMPDEST PUSH32 0x496E76616C6964207061726B696E672073706F74204944000000000000000000 PUSH1 0x0 DUP3 ADD MSTORE POP JUMP JUMPDEST PUSH1 0x0 PUSH2 0xE23 PUSH1 0x17 DUP4 PUSH2 0xC76 JUMP JUMPDEST SWAP2 POP PUSH2 0xE2E DUP3 PUSH2 0xDED JUMP JUMPDEST PUSH1 0x20 DUP3 ADD SWAP1 POP SWAP2 SWAP1 POP JUMP JUMPDEST PUSH1 0x0 PUSH1 0x20 DUP3 ADD SWAP1 POP DUP2 DUP2 SUB PUSH1 0x0 DUP4 ADD MSTORE PUSH2 0xE52 DUP2 PUSH2 0xE16 JUMP JUMPDEST SWAP1 POP SWAP2 SWAP1 POP JUMP JUMPDEST PUSH32 0x5061726B696E672073706F74206973206E6F7420617661696C61626C65000000 PUSH1 0x0 DUP3 ADD MSTORE POP JUMP JUMPDEST PUSH1 0x0 PUSH2 0xE8F PUSH1 0x1D DUP4 PUSH2 0xC76 JUMP JUMPDEST SWAP2 POP PUSH2 0xE9A DUP3 PUSH2 0xE59 JUMP JUMPDEST PUSH1 0x20 DUP3 ADD SWAP1 POP SWAP2 SWAP1 POP JUMP JUMPDEST PUSH1 0x0 PUSH1 0x20 DUP3 ADD SWAP1 POP DUP2 DUP2 SUB PUSH1 0x0 DUP4 ADD MSTORE PUSH2 0xEBE DUP2 PUSH2 0xE82 JUMP JUMPDEST SWAP1 POP SWAP2 SWAP1 POP JUMP JUMPDEST PUSH1 0x0 PUSH2 0xED0 DUP3 PUSH2 0xAB6 JUMP JUMPDEST SWAP2 POP PUSH2 0xEDB DUP4 PUSH2 0xAB6 JUMP JUMPDEST SWAP3 POP DUP3 DUP3 MUL PUSH2 0xEE9 DUP2 PUSH2 0xAB6 JUMP JUMPDEST SWAP2 POP DUP3 DUP3 DIV DUP5 EQ DUP4 ISZERO OR PUSH2 0xF00 JUMPI PUSH2 0xEFF PUSH2 0xD42 JUMP JUMPDEST JUMPDEST POP SWAP3 SWAP2 POP POP JUMP JUMPDEST PUSH32 0x496E73756666696369656E742066756E64730000000000000000000000000000 PUSH1 0x0 DUP3 ADD MSTORE POP JUMP JUMPDEST PUSH1 0x0 PUSH2 0xF3D PUSH1 0x12 DUP4 PUSH2 0xC76 JUMP JUMPDEST SWAP2 POP PUSH2 0xF48 DUP3 PUSH2 0xF07 JUMP JUMPDEST PUSH1 0x20 DUP3 ADD SWAP1 POP SWAP2 SWAP1 POP JUMP JUMPDEST PUSH1 0x0 PUSH1 0x20 DUP3 ADD SWAP1 POP DUP2 DUP2 SUB PUSH1 0x0 DUP4 ADD MSTORE PUSH2 0xF6C DUP2 PUSH2 0xF30 JUMP JUMPDEST SWAP1 POP SWAP2 SWAP1 POP JUMP JUMPDEST PUSH1 0x0 PUSH2 0xF7E DUP3 PUSH2 0xAB6 JUMP JUMPDEST SWAP2 POP PUSH2 0xF89 DUP4 PUSH2 0xAB6 JUMP JUMPDEST SWAP3 POP DUP3 DUP3 ADD SWAP1 POP DUP1 DUP3 GT ISZERO PUSH2 0xFA1 JUMPI PUSH2 0xFA0 PUSH2 0xD42 JUMP JUMPDEST JUMPDEST SWAP3 SWAP2 POP POP JUMP JUMPDEST PUSH1 0x0 PUSH1 0xA0 DUP3 ADD SWAP1 POP PUSH2 0xFBC PUSH1 0x0 DUP4 ADD DUP9 PUSH2 0xB19 JUMP JUMPDEST PUSH2 0xFC9 PUSH1 0x20 DUP4 ADD DUP8 PUSH2 0xB19 JUMP JUMPDEST PUSH2 0xFD6 PUSH1 0x40 DUP4 ADD DUP7 PUSH2 0xB5A JUMP JUMPDEST PUSH2 0xFE3 PUSH1 0x60 DUP4 ADD DUP6 PUSH2 0xB19 JUMP JUMPDEST PUSH2 0xFF0 PUSH1 0x80 DUP4 ADD DUP5 PUSH2 0xB19 JUMP JUMPDEST SWAP7 SWAP6 POP POP POP POP POP POP JUMP JUMPDEST PUSH32 0x496E76616C6964207265736572766174696F6E20494400000000000000000000 PUSH1 0x0 DUP3 ADD MSTORE POP JUMP JUMPDEST PUSH1 0x0 PUSH2 0x1030 PUSH1 0x16 DUP4 PUSH2 0xC76 JUMP JUMPDEST SWAP2 POP PUSH2 0x103B DUP3 PUSH2 0xFFA JUMP JUMPDEST PUSH1 0x20 DUP3 ADD SWAP1 POP SWAP2 SWAP1 POP JUMP JUMPDEST PUSH1 0x0 PUSH1 0x20 DUP3 ADD SWAP1 POP DUP2 DUP2 SUB PUSH1 0x0 DUP4 ADD MSTORE PUSH2 0x105F DUP2 PUSH2 0x1023 JUMP JUMPDEST SWAP1 POP SWAP2 SWAP1 POP JUMP JUMPDEST PUSH32 0x4E6F7420617574686F72697A656420746F2063616E63656C2072657365727661 PUSH1 0x0 DUP3 ADD MSTORE PUSH32 0x74696F6E00000000000000000000000000000000000000000000000000000000 PUSH1 0x20 DUP3 ADD MSTORE POP JUMP JUMPDEST PUSH1 0x0 PUSH2 0x10C2 PUSH1 0x24 DUP4 PUSH2 0xC76 JUMP JUMPDEST SWAP2 POP PUSH2 0x10CD DUP3 PUSH2 0x1066 JUMP JUMPDEST PUSH1 0x40 DUP3 ADD SWAP1 POP SWAP2 SWAP1 POP JUMP JUMPDEST PUSH1 0x0 PUSH1 0x20 DUP3 ADD SWAP1 POP DUP2 DUP2 SUB PUSH1 0x0 DUP4 ADD MSTORE PUSH2 0x10F1 DUP2 PUSH2 0x10B5 JUMP JUMPDEST SWAP1 POP SWAP2 SWAP1 POP JUMP JUMPDEST PUSH1 0x0 PUSH2 0x1103 DUP3 PUSH2 0xAB6 JUMP JUMPDEST SWAP2 POP PUSH1 0x0 DUP3 SUB PUSH2 0x1116 JUMPI PUSH2 0x1115 PUSH2 0xD42 JUMP JUMPDEST JUMPDEST PUSH1 0x1 DUP3 SUB SWAP1 POP SWAP2 SWAP1 POP JUMP JUMPDEST PUSH32 0x4E487B7100000000000000000000000000000000000000000000000000000000 PUSH1 0x0 MSTORE PUSH1 0x12 PUSH1 0x4 MSTORE PUSH1 0x24 PUSH1 0x0 REVERT JUMPDEST PUSH1 0x0 PUSH2 0x115B DUP3 PUSH2 0xAB6 JUMP JUMPDEST SWAP2 POP PUSH2 0x1166 DUP4 PUSH2 0xAB6 JUMP JUMPDEST SWAP3 POP DUP3 PUSH2 0x1176 JUMPI PUSH2 0x1175 PUSH2 0x1121 JUMP JUMPDEST JUMPDEST DUP3 DUP3 DIV SWAP1 POP SWAP3 SWAP2 POP POP JUMP INVALID LOG2 PUSH5 0x6970667358 0x22 SLT KECCAK256 DUP11 KECCAK256 PUSH10 0xC09D1CB397473C35239B 0xE9 0xEF JUMPDEST PUSH29 0x65CE5BA7ABD10E6EC9135AD4B2489B64736F6C63430008120033000000 "
				},
				"gasEstimates": {
					"creation": {
						"codeDepositCost": "907000",
						"executionCost": "35220",
						"totalCost": "942220"
					},
					"external": {
						"addParkingSpot(uint256)": "infinite",
						"cancelReservation(uint256)": "infinite",
						"owner()": "2514",
						"parkingSpots(uint256)": "infinite",
						"parkingSpotsCount()": "2474",
						"reservations(uint256)": "infinite",
						"reservationsCount()": "2495",
						"reserveSpot(uint256,uint256)": "infinite",
						"updateParkingSpot(uint256,uint256)": "infinite"
					}
				},
				"methodIdentifiers": {
					"addParkingSpot(uint256)": "182d8de5",
					"cancelReservation(uint256)": "ae5e6cf4",
					"owner()": "8da5cb5b",
					"parkingSpots(uint256)": "f5defcd3",
					"parkingSpotsCount()": "658db3e5",
					"reservations(uint256)": "067cf832",
					"reservationsCount()": "c4d1b347",
					"reserveSpot(uint256,uint256)": "868def04",
					"updateParkingSpot(uint256,uint256)": "c0d8774b"
				}
			},
			"storageLayout": {
				"storage": [
					{
						"astId": 22,
						"contract": "SmartParking.sol:SmartParking",
						"label": "parkingSpots",
						"offset": 0,
						"slot": "0",
						"type": "t_mapping(t_uint256,t_struct(ParkingSpot)8_storage)"
					},
					{
						"astId": 27,
						"contract": "SmartParking.sol:SmartParking",
						"label": "reservations",
						"offset": 0,
						"slot": "1",
						"type": "t_mapping(t_uint256,t_struct(Reservation)17_storage)"
					},
					{
						"astId": 30,
						"contract": "SmartParking.sol:SmartParking",
						"label": "parkingSpotsCount",
						"offset": 0,
						"slot": "2",
						"type": "t_uint256"
					},
					{
						"astId": 33,
						"contract": "SmartParking.sol:SmartParking",
						"label": "reservationsCount",
						"offset": 0,
						"slot": "3",
						"type": "t_uint256"
					},
					{
						"astId": 35,
						"contract": "SmartParking.sol:SmartParking",
						"label": "owner",
						"offset": 0,
						"slot": "4",
						"type": "t_address"
					}
				],
				"types": {
					"t_address": {
						"encoding": "inplace",
						"label": "address",
						"numberOfBytes": "20"
					},
					"t_bool": {
						"encoding": "inplace",
						"label": "bool",
						"numberOfBytes": "1"
					},
					"t_mapping(t_uint256,t_struct(ParkingSpot)8_storage)": {
						"encoding": "mapping",
						"key": "t_uint256",
						"label": "mapping(uint256 => struct SmartParking.ParkingSpot)",
						"numberOfBytes": "32",
						"value": "t_struct(ParkingSpot)8_storage"
					},
					"t_mapping(t_uint256,t_struct(Reservation)17_storage)": {
						"encoding": "mapping",
						"key": "t_uint256",
						"label": "mapping(uint256 => struct SmartParking.Reservation)",
						"numberOfBytes": "32",
						"value": "t_struct(Reservation)17_storage"
					},
					"t_struct(ParkingSpot)8_storage": {
						"encoding": "inplace",
						"label": "struct SmartParking.ParkingSpot",
						"members": [
							{
								"astId": 3,
								"contract": "SmartParking.sol:SmartParking",
								"label": "id",
								"offset": 0,
								"slot": "0",
								"type": "t_uint256"
							},
							{
								"astId": 5,
								"contract": "SmartParking.sol:SmartParking",
								"label": "available",
								"offset": 0,
								"slot": "1",
								"type": "t_bool"
							},
							{
								"astId": 7,
								"contract": "SmartParking.sol:SmartParking",
								"label": "hourlyRate",
								"offset": 0,
								"slot": "2",
								"type": "t_uint256"
							}
						],
						"numberOfBytes": "96"
					},
					"t_struct(Reservation)17_storage": {
						"encoding": "inplace",
						"label": "struct SmartParking.Reservation",
						"members": [
							{
								"astId": 10,
								"contract": "SmartParking.sol:SmartParking",
								"label": "parkingSpotId",
								"offset": 0,
								"slot": "0",
								"type": "t_uint256"
							},
							{
								"astId": 12,
								"contract": "SmartParking.sol:SmartParking",
								"label": "user",
								"offset": 0,
								"slot": "1",
								"type": "t_address"
							},
							{
								"astId": 14,
								"contract": "SmartParking.sol:SmartParking",
								"label": "startTime",
								"offset": 0,
								"slot": "2",
								"type": "t_uint256"
							},
							{
								"astId": 16,
								"contract": "SmartParking.sol:SmartParking",
								"label": "endTime",
								"offset": 0,
								"slot": "3",
								"type": "t_uint256"
							}
						],
						"numberOfBytes": "128"
					},
					"t_uint256": {
						"encoding": "inplace",
						"label": "uint256",
						"numberOfBytes": "32"
					}
				}
			},
			"userdoc": {
				"kind": "user",
				"methods": {},
				"version": 1
			}
		}
	}
}